{
  "address": "0x0E02C9a74d14aFfe79B305AE50c622548862Fc10",
  "abi": [
    {
      "inputs": [],
      "stateMutability": "nonpayable",
      "type": "constructor"
    },
    {
      "anonymous": false,
      "inputs": [
        {
          "indexed": true,
          "internalType": "address",
          "name": "owner",
          "type": "address"
        },
        {
          "indexed": true,
          "internalType": "address",
          "name": "approved",
          "type": "address"
        },
        {
          "indexed": true,
          "internalType": "uint256",
          "name": "tokenId",
          "type": "uint256"
        }
      ],
      "name": "Approval",
      "type": "event"
    },
    {
      "anonymous": false,
      "inputs": [
        {
          "indexed": true,
          "internalType": "address",
          "name": "owner",
          "type": "address"
        },
        {
          "indexed": true,
          "internalType": "address",
          "name": "operator",
          "type": "address"
        },
        {
          "indexed": false,
          "internalType": "bool",
          "name": "approved",
          "type": "bool"
        }
      ],
      "name": "ApprovalForAll",
      "type": "event"
    },
    {
      "anonymous": false,
      "inputs": [
        {
          "indexed": false,
          "internalType": "uint256",
          "name": "_fromTokenId",
          "type": "uint256"
        },
        {
          "indexed": false,
          "internalType": "uint256",
          "name": "_toTokenId",
          "type": "uint256"
        }
      ],
      "name": "BatchMetadataUpdate",
      "type": "event"
    },
    {
      "anonymous": false,
      "inputs": [
        {
          "indexed": false,
          "internalType": "uint256",
          "name": "_tokenId",
          "type": "uint256"
        }
      ],
      "name": "MetadataUpdate",
      "type": "event"
    },
    {
      "anonymous": false,
      "inputs": [
        {
          "indexed": true,
          "internalType": "bytes32",
          "name": "role",
          "type": "bytes32"
        },
        {
          "indexed": true,
          "internalType": "bytes32",
          "name": "previousAdminRole",
          "type": "bytes32"
        },
        {
          "indexed": true,
          "internalType": "bytes32",
          "name": "newAdminRole",
          "type": "bytes32"
        }
      ],
      "name": "RoleAdminChanged",
      "type": "event"
    },
    {
      "anonymous": false,
      "inputs": [
        {
          "indexed": true,
          "internalType": "bytes32",
          "name": "role",
          "type": "bytes32"
        },
        {
          "indexed": true,
          "internalType": "address",
          "name": "account",
          "type": "address"
        },
        {
          "indexed": true,
          "internalType": "address",
          "name": "sender",
          "type": "address"
        }
      ],
      "name": "RoleGranted",
      "type": "event"
    },
    {
      "anonymous": false,
      "inputs": [
        {
          "indexed": true,
          "internalType": "bytes32",
          "name": "role",
          "type": "bytes32"
        },
        {
          "indexed": true,
          "internalType": "address",
          "name": "account",
          "type": "address"
        },
        {
          "indexed": true,
          "internalType": "address",
          "name": "sender",
          "type": "address"
        }
      ],
      "name": "RoleRevoked",
      "type": "event"
    },
    {
      "anonymous": false,
      "inputs": [
        {
          "indexed": true,
          "internalType": "address",
          "name": "from",
          "type": "address"
        },
        {
          "indexed": true,
          "internalType": "address",
          "name": "to",
          "type": "address"
        },
        {
          "indexed": true,
          "internalType": "uint256",
          "name": "tokenId",
          "type": "uint256"
        }
      ],
      "name": "Transfer",
      "type": "event"
    },
    {
      "inputs": [],
      "name": "DEFAULT_ADMIN_ROLE",
      "outputs": [
        {
          "internalType": "bytes32",
          "name": "",
          "type": "bytes32"
        }
      ],
      "stateMutability": "view",
      "type": "function"
    },
    {
      "inputs": [],
      "name": "MINTER_ROLE",
      "outputs": [
        {
          "internalType": "bytes32",
          "name": "",
          "type": "bytes32"
        }
      ],
      "stateMutability": "view",
      "type": "function"
    },
    {
      "inputs": [
        {
          "internalType": "address",
          "name": "to",
          "type": "address"
        },
        {
          "internalType": "uint256",
          "name": "tokenId",
          "type": "uint256"
        }
      ],
      "name": "approve",
      "outputs": [],
      "stateMutability": "nonpayable",
      "type": "function"
    },
    {
      "inputs": [
        {
          "internalType": "address",
          "name": "owner",
          "type": "address"
        }
      ],
      "name": "balanceOf",
      "outputs": [
        {
          "internalType": "uint256",
          "name": "",
          "type": "uint256"
        }
      ],
      "stateMutability": "view",
      "type": "function"
    },
    {
      "inputs": [
        {
          "internalType": "uint256",
          "name": "",
          "type": "uint256"
        }
      ],
      "name": "colors",
      "outputs": [
        {
          "internalType": "string",
          "name": "",
          "type": "string"
        }
      ],
      "stateMutability": "view",
      "type": "function"
    },
    {
      "inputs": [
        {
          "internalType": "uint256",
          "name": "tokenId",
          "type": "uint256"
        }
      ],
      "name": "getApproved",
      "outputs": [
        {
          "internalType": "address",
          "name": "",
          "type": "address"
        }
      ],
      "stateMutability": "view",
      "type": "function"
    },
    {
      "inputs": [
        {
          "internalType": "uint256",
          "name": "nextIndex",
          "type": "uint256"
        }
      ],
      "name": "getNextRandomNumber",
      "outputs": [
        {
          "internalType": "uint256",
          "name": "",
          "type": "uint256"
        }
      ],
      "stateMutability": "view",
      "type": "function"
    },
    {
      "inputs": [
        {
          "internalType": "uint256",
          "name": "nextIndex",
          "type": "uint256"
        },
        {
          "internalType": "uint256",
          "name": "max",
          "type": "uint256"
        }
      ],
      "name": "getNextRandomRange",
      "outputs": [
        {
          "internalType": "uint256",
          "name": "",
          "type": "uint256"
        }
      ],
      "stateMutability": "view",
      "type": "function"
    },
    {
      "inputs": [],
      "name": "getRandomBytes",
      "outputs": [
        {
          "internalType": "bytes32",
          "name": "addr",
          "type": "bytes32"
        }
      ],
      "stateMutability": "view",
      "type": "function"
    },
    {
      "inputs": [],
      "name": "getRandomNumber",
      "outputs": [
        {
          "internalType": "uint256",
          "name": "",
          "type": "uint256"
        }
      ],
      "stateMutability": "view",
      "type": "function"
    },
    {
      "inputs": [
        {
          "internalType": "uint256",
          "name": "max",
          "type": "uint256"
        }
      ],
      "name": "getRandomRange",
      "outputs": [
        {
          "internalType": "uint256",
          "name": "",
          "type": "uint256"
        }
      ],
      "stateMutability": "view",
      "type": "function"
    },
    {
      "inputs": [
        {
          "internalType": "bytes32",
          "name": "role",
          "type": "bytes32"
        }
      ],
      "name": "getRoleAdmin",
      "outputs": [
        {
          "internalType": "bytes32",
          "name": "",
          "type": "bytes32"
        }
      ],
      "stateMutability": "view",
      "type": "function"
    },
    {
      "inputs": [
        {
          "internalType": "bytes32",
          "name": "role",
          "type": "bytes32"
        },
        {
          "internalType": "address",
          "name": "account",
          "type": "address"
        }
      ],
      "name": "grantRole",
      "outputs": [],
      "stateMutability": "nonpayable",
      "type": "function"
    },
    {
      "inputs": [
        {
          "internalType": "bytes32",
          "name": "role",
          "type": "bytes32"
        },
        {
          "internalType": "address",
          "name": "account",
          "type": "address"
        }
      ],
      "name": "hasRole",
      "outputs": [
        {
          "internalType": "bool",
          "name": "",
          "type": "bool"
        }
      ],
      "stateMutability": "view",
      "type": "function"
    },
    {
      "inputs": [
        {
          "internalType": "address",
          "name": "owner",
          "type": "address"
        },
        {
          "internalType": "address",
          "name": "operator",
          "type": "address"
        }
      ],
      "name": "isApprovedForAll",
      "outputs": [
        {
          "internalType": "bool",
          "name": "",
          "type": "bool"
        }
      ],
      "stateMutability": "view",
      "type": "function"
    },
    {
      "inputs": [],
      "name": "name",
      "outputs": [
        {
          "internalType": "string",
          "name": "",
          "type": "string"
        }
      ],
      "stateMutability": "view",
      "type": "function"
    },
    {
      "inputs": [
        {
          "internalType": "uint256",
          "name": "tokenId",
          "type": "uint256"
        }
      ],
      "name": "ownerOf",
      "outputs": [
        {
          "internalType": "address",
          "name": "",
          "type": "address"
        }
      ],
      "stateMutability": "view",
      "type": "function"
    },
    {
      "inputs": [
        {
          "internalType": "bytes32",
          "name": "role",
          "type": "bytes32"
        },
        {
          "internalType": "address",
          "name": "account",
          "type": "address"
        }
      ],
      "name": "renounceRole",
      "outputs": [],
      "stateMutability": "nonpayable",
      "type": "function"
    },
    {
      "inputs": [
        {
          "internalType": "bytes32",
          "name": "role",
          "type": "bytes32"
        },
        {
          "internalType": "address",
          "name": "account",
          "type": "address"
        }
      ],
      "name": "revokeRole",
      "outputs": [],
      "stateMutability": "nonpayable",
      "type": "function"
    },
    {
      "inputs": [
        {
          "internalType": "address",
          "name": "to",
          "type": "address"
        }
      ],
      "name": "safeMint",
      "outputs": [],
      "stateMutability": "nonpayable",
      "type": "function"
    },
    {
      "inputs": [
        {
          "internalType": "address",
          "name": "from",
          "type": "address"
        },
        {
          "internalType": "address",
          "name": "to",
          "type": "address"
        },
        {
          "internalType": "uint256",
          "name": "tokenId",
          "type": "uint256"
        }
      ],
      "name": "safeTransferFrom",
      "outputs": [],
      "stateMutability": "nonpayable",
      "type": "function"
    },
    {
      "inputs": [
        {
          "internalType": "address",
          "name": "from",
          "type": "address"
        },
        {
          "internalType": "address",
          "name": "to",
          "type": "address"
        },
        {
          "internalType": "uint256",
          "name": "tokenId",
          "type": "uint256"
        },
        {
          "internalType": "bytes",
          "name": "data",
          "type": "bytes"
        }
      ],
      "name": "safeTransferFrom",
      "outputs": [],
      "stateMutability": "nonpayable",
      "type": "function"
    },
    {
      "inputs": [
        {
          "internalType": "address",
          "name": "operator",
          "type": "address"
        },
        {
          "internalType": "bool",
          "name": "approved",
          "type": "bool"
        }
      ],
      "name": "setApprovalForAll",
      "outputs": [],
      "stateMutability": "nonpayable",
      "type": "function"
    },
    {
      "inputs": [
        {
          "internalType": "uint256",
          "name": "",
          "type": "uint256"
        },
        {
          "internalType": "uint256",
          "name": "",
          "type": "uint256"
        }
      ],
      "name": "speeds",
      "outputs": [
        {
          "internalType": "uint8",
          "name": "",
          "type": "uint8"
        }
      ],
      "stateMutability": "view",
      "type": "function"
    },
    {
      "inputs": [
        {
          "internalType": "bytes4",
          "name": "interfaceId",
          "type": "bytes4"
        }
      ],
      "name": "supportsInterface",
      "outputs": [
        {
          "internalType": "bool",
          "name": "",
          "type": "bool"
        }
      ],
      "stateMutability": "view",
      "type": "function"
    },
    {
      "inputs": [],
      "name": "symbol",
      "outputs": [
        {
          "internalType": "string",
          "name": "",
          "type": "string"
        }
      ],
      "stateMutability": "view",
      "type": "function"
    },
    {
      "inputs": [
        {
          "internalType": "uint256",
          "name": "index",
          "type": "uint256"
        }
      ],
      "name": "tokenByIndex",
      "outputs": [
        {
          "internalType": "uint256",
          "name": "",
          "type": "uint256"
        }
      ],
      "stateMutability": "view",
      "type": "function"
    },
    {
      "inputs": [],
      "name": "tokenIdCounter",
      "outputs": [
        {
          "internalType": "uint256",
          "name": "_value",
          "type": "uint256"
        }
      ],
      "stateMutability": "view",
      "type": "function"
    },
    {
      "inputs": [
        {
          "internalType": "address",
          "name": "owner",
          "type": "address"
        },
        {
          "internalType": "uint256",
          "name": "index",
          "type": "uint256"
        }
      ],
      "name": "tokenOfOwnerByIndex",
      "outputs": [
        {
          "internalType": "uint256",
          "name": "",
          "type": "uint256"
        }
      ],
      "stateMutability": "view",
      "type": "function"
    },
    {
      "inputs": [
        {
          "internalType": "uint256",
          "name": "tokenId",
          "type": "uint256"
        }
      ],
      "name": "tokenURI",
      "outputs": [
        {
          "internalType": "string",
          "name": "",
          "type": "string"
        }
      ],
      "stateMutability": "view",
      "type": "function"
    },
    {
      "inputs": [],
      "name": "totalSupply",
      "outputs": [
        {
          "internalType": "uint256",
          "name": "",
          "type": "uint256"
        }
      ],
      "stateMutability": "view",
      "type": "function"
    },
    {
      "inputs": [
        {
          "internalType": "address",
          "name": "from",
          "type": "address"
        },
        {
          "internalType": "address",
          "name": "to",
          "type": "address"
        },
        {
          "internalType": "uint256",
          "name": "tokenId",
          "type": "uint256"
        }
      ],
      "name": "transferFrom",
      "outputs": [],
      "stateMutability": "nonpayable",
      "type": "function"
    }
  ],
  "transactionHash": "0xf6ce434c584871fa2035f91f26c3eeb5c47d5e529be9c5fce85722d149477c81",
  "args": [],
  "numDeployments": 12,
  "solcInputHash": "974683319fd9893a8bb4251ec38564b2",
  "bytecode": "0x60806040523480156200001157600080fd5b506040518060400160405280600a81526020017f44796e616d69634e4654000000000000000000000000000000000000000000008152506040518060400160405280600481526020017f444e46540000000000000000000000000000000000000000000000000000000081525081600090816200008f9190620004d0565b508060019081620000a19190620004d0565b505050620000b96000801b33620000f160201b60201c565b620000eb7f9f2df0fed2c77648de5860a4cc508cd0818c85b8b8a1ab4ceeef8d981c8956a633620000f160201b60201c565b620005b7565b620001038282620001e360201b60201c565b620001df576001600b600084815260200190815260200160002060000160008373ffffffffffffffffffffffffffffffffffffffff1673ffffffffffffffffffffffffffffffffffffffff16815260200190815260200160002060006101000a81548160ff021916908315150217905550620001846200024e60201b60201c565b73ffffffffffffffffffffffffffffffffffffffff168173ffffffffffffffffffffffffffffffffffffffff16837f2f8788117e7eff1d82e926ec794901d17c78024a50270940304540a733656f0d60405160405180910390a45b5050565b6000600b600084815260200190815260200160002060000160008373ffffffffffffffffffffffffffffffffffffffff1673ffffffffffffffffffffffffffffffffffffffff16815260200190815260200160002060009054906101000a900460ff16905092915050565b600033905090565b600081519050919050565b7f4e487b7100000000000000000000000000000000000000000000000000000000600052604160045260246000fd5b7f4e487b7100000000000000000000000000000000000000000000000000000000600052602260045260246000fd5b60006002820490506001821680620002d857607f821691505b602082108103620002ee57620002ed62000290565b5b50919050565b60008190508160005260206000209050919050565b60006020601f8301049050919050565b600082821b905092915050565b600060088302620003587fffffffffffffffffffffffffffffffffffffffffffffffffffffffffffffffff8262000319565b62000364868362000319565b95508019841693508086168417925050509392505050565b6000819050919050565b6000819050919050565b6000620003b1620003ab620003a5846200037c565b62000386565b6200037c565b9050919050565b6000819050919050565b620003cd8362000390565b620003e5620003dc82620003b8565b84845462000326565b825550505050565b600090565b620003fc620003ed565b62000409818484620003c2565b505050565b5b81811015620004315762000425600082620003f2565b6001810190506200040f565b5050565b601f82111562000480576200044a81620002f4565b620004558462000309565b8101602085101562000465578190505b6200047d620004748562000309565b8301826200040e565b50505b505050565b600082821c905092915050565b6000620004a56000198460080262000485565b1980831691505092915050565b6000620004c0838362000492565b9150826002028217905092915050565b620004db8262000256565b67ffffffffffffffff811115620004f757620004f662000261565b5b620005038254620002bf565b6200051082828562000435565b600060209050601f83116001811462000548576000841562000533578287015190505b6200053f8582620004b2565b865550620005af565b601f1984166200055886620002f4565b60005b8281101562000582578489015182556001820191506020850194506020810190506200055b565b86831015620005a257848901516200059e601f89168262000492565b8355505b6001600288020188555050505b505050505050565b6159cc80620005c76000396000f3fe608060405234801561001057600080fd5b50600436106101f05760003560e01c806391d148541161010f578063bd11f69d116100a2578063d547741f11610071578063d547741f14610617578063dbdff2c114610633578063e985e9c514610651578063ec4d5ce214610681576101f0565b8063bd11f69d14610569578063c46e63f414610599578063c87b56dd146105c9578063d5391393146105f9576101f0565b8063a217fddf116100de578063a217fddf146104f5578063a22cb46514610513578063b88d4fde1461052f578063ba23ec8e1461054b576101f0565b806391d148541461045957806395d89b411461048957806395fa9135146104a757806398bdf6f5146104d7576101f0565b80632f745c591161018757806342842e0e1161015657806342842e0e146103ad5780634f6ccce7146103c95780636352211e146103f957806370a0823114610429576101f0565b80632f745c591461031557806336568abe146103455780633c051a921461036157806340d097c314610391576101f0565b806318160ddd116101c357806318160ddd1461028f57806323b872dd146102ad578063248a9ca3146102c95780632f2ff15d146102f9576101f0565b806301ffc9a7146101f557806306fdde0314610225578063081812fc14610243578063095ea7b314610273575b600080fd5b61020f600480360381019061020a9190613093565b6106b1565b60405161021c91906130db565b60405180910390f35b61022d6106c3565b60405161023a9190613186565b60405180910390f35b61025d600480360381019061025891906131de565b610755565b60405161026a919061324c565b60405180910390f35b61028d60048036038101906102889190613293565b61079b565b005b6102976108b2565b6040516102a491906132e2565b60405180910390f35b6102c760048036038101906102c291906132fd565b6108bf565b005b6102e360048036038101906102de9190613386565b61091f565b6040516102f091906133c2565b60405180910390f35b610313600480360381019061030e91906133dd565b61093f565b005b61032f600480360381019061032a9190613293565b610960565b60405161033c91906132e2565b60405180910390f35b61035f600480360381019061035a91906133dd565b610a05565b005b61037b6004803603810190610376919061341d565b610a88565b60405161038891906132e2565b60405180910390f35b6103ab60048036038101906103a6919061345d565b610ad0565b005b6103c760048036038101906103c291906132fd565b610d94565b005b6103e360048036038101906103de91906131de565b610db4565b6040516103f091906132e2565b60405180910390f35b610413600480360381019061040e91906131de565b610e25565b604051610420919061324c565b60405180910390f35b610443600480360381019061043e919061345d565b610eab565b60405161045091906132e2565b60405180910390f35b610473600480360381019061046e91906133dd565b610f62565b60405161048091906130db565b60405180910390f35b610491610fcd565b60405161049e9190613186565b60405180910390f35b6104c160048036038101906104bc91906131de565b61105f565b6040516104ce91906132e2565b60405180910390f35b6104df61109b565b6040516104ec91906132e2565b60405180910390f35b6104fd6110a7565b60405161050a91906133c2565b60405180910390f35b61052d600480360381019061052891906134b6565b6110ae565b005b6105496004803603810190610544919061362b565b6110c4565b005b610553611126565b60405161056091906133c2565b60405180910390f35b610583600480360381019061057e91906131de565b611148565b6040516105909190613186565b60405180910390f35b6105b360048036038101906105ae91906131de565b6111e8565b6040516105c091906132e2565b60405180910390f35b6105e360048036038101906105de91906131de565b611204565b6040516105f09190613186565b60405180910390f35b6106016112fe565b60405161060e91906133c2565b60405180910390f35b610631600480360381019061062c91906133dd565b611322565b005b61063b611343565b60405161064891906132e2565b60405180910390f35b61066b600480360381019061066691906136ae565b611355565b60405161067891906130db565b60405180910390f35b61069b6004803603810190610696919061341d565b6113e9565b6040516106a8919061370a565b60405180910390f35b60006106bc8261142c565b9050919050565b6060600080546106d290613754565b80601f01602080910402602001604051908101604052809291908181526020018280546106fe90613754565b801561074b5780601f106107205761010080835404028352916020019161074b565b820191906000526020600020905b81548152906001019060200180831161072e57829003601f168201915b5050505050905090565b6000610760826114a6565b6004600083815260200190815260200160002060009054906101000a900473ffffffffffffffffffffffffffffffffffffffff169050919050565b60006107a682610e25565b90508073ffffffffffffffffffffffffffffffffffffffff168373ffffffffffffffffffffffffffffffffffffffff1603610816576040517f08c379a000000000000000000000000000000000000000000000000000000000815260040161080d906137f7565b60405180910390fd5b8073ffffffffffffffffffffffffffffffffffffffff166108356114f1565b73ffffffffffffffffffffffffffffffffffffffff16148061086457506108638161085e6114f1565b611355565b5b6108a3576040517f08c379a000000000000000000000000000000000000000000000000000000000815260040161089a90613889565b60405180910390fd5b6108ad83836114f9565b505050565b6000600880549050905090565b6108d06108ca6114f1565b826115b2565b61090f576040517f08c379a00000000000000000000000000000000000000000000000000000000081526004016109069061391b565b60405180910390fd5b61091a838383611647565b505050565b6000600b6000838152602001908152602001600020600101549050919050565b6109488261091f565b61095181611940565b61095b8383611954565b505050565b600061096b83610eab565b82106109ac576040517f08c379a00000000000000000000000000000000000000000000000000000000081526004016109a3906139ad565b60405180910390fd5b600660008473ffffffffffffffffffffffffffffffffffffffff1673ffffffffffffffffffffffffffffffffffffffff168152602001908152602001600020600083815260200190815260200160002054905092915050565b610a0d6114f1565b73ffffffffffffffffffffffffffffffffffffffff168173ffffffffffffffffffffffffffffffffffffffff1614610a7a576040517f08c379a0000000000000000000000000000000000000000000000000000000008152600401610a7190613a3f565b60405180910390fd5b610a848282611a35565b5050565b60008183610a94611343565b17604051602001610aa591906132e2565b6040516020818303038152906040528051906020012060001c610ac89190613a8e565b905092915050565b7f9f2df0fed2c77648de5860a4cc508cd0818c85b8b8a1ab4ceeef8d981c8956a6610afa81611940565b6000610b06600c611b17565b9050610b12600c611b25565b610b1c8382611b3b565b60006006905060008160ff1667ffffffffffffffff811115610b4157610b40613500565b5b604051908082528060200260200182016040528015610b6f5781602001602082028036833780820191505090505b50905060005b8260ff168160ff161015610c245760038160ff161015610bcc57610b9d8160ff1660ff610a88565b828260ff1681518110610bb357610bb2613abf565b5b602002602001019060ff16908160ff1681525050610c11565b610bda8160ff166024610a88565b6001610be69190613b1d565b828260ff1681518110610bfc57610bfb613abf565b5b602002602001019060ff16908160ff16815250505b8080610c1c90613b51565b915050610b75565b50610c4c81600081518110610c3c57610c3b613abf565b5b602002602001015160ff16611b59565b610c7382600181518110610c6357610c62613abf565b5b602002602001015160ff16611b59565b610c9a83600281518110610c8a57610c89613abf565b5b602002602001015160ff16611b59565b604051602001610cac93929190613bdc565b604051602081830303815290604052600d6000610cc9600c611b17565b81526020019081526020016000209081610ce39190613dd7565b50604051806060016040528082600381518110610d0357610d02613abf565b5b602002602001015160ff1660ff16815260200182600481518110610d2a57610d29613abf565b5b602002602001015160ff1660ff16815260200182600581518110610d5157610d50613abf565b5b602002602001015160ff1660ff16815250600e6000610d70600c611b17565b8152602001908152602001600020906003610d8c929190612f63565b505050505050565b610daf838383604051806020016040528060008152506110c4565b505050565b6000610dbe6108b2565b8210610dff576040517f08c379a0000000000000000000000000000000000000000000000000000000008152600401610df690613f1b565b60405180910390fd5b60088281548110610e1357610e12613abf565b5b90600052602060002001549050919050565b600080610e3183611c27565b9050600073ffffffffffffffffffffffffffffffffffffffff168173ffffffffffffffffffffffffffffffffffffffff1603610ea2576040517f08c379a0000000000000000000000000000000000000000000000000000000008152600401610e9990613f87565b60405180910390fd5b80915050919050565b60008073ffffffffffffffffffffffffffffffffffffffff168273ffffffffffffffffffffffffffffffffffffffff1603610f1b576040517f08c379a0000000000000000000000000000000000000000000000000000000008152600401610f1290614019565b60405180910390fd5b600360008373ffffffffffffffffffffffffffffffffffffffff1673ffffffffffffffffffffffffffffffffffffffff168152602001908152602001600020549050919050565b6000600b600084815260200190815260200160002060000160008373ffffffffffffffffffffffffffffffffffffffff1673ffffffffffffffffffffffffffffffffffffffff16815260200190815260200160002060009054906101000a900460ff16905092915050565b606060018054610fdc90613754565b80601f016020809104026020016040519081016040528092919081815260200182805461100890613754565b80156110555780601f1061102a57610100808354040283529160200191611055565b820191906000526020600020905b81548152906001019060200180831161103857829003601f168201915b5050505050905090565b60008161106a611343565b1760405160200161107b91906132e2565b6040516020818303038152906040528051906020012060001c9050919050565b600c8060000154905081565b6000801b81565b6110c06110b96114f1565b8383611c64565b5050565b6110d56110cf6114f1565b836115b2565b611114576040517f08c379a000000000000000000000000000000000000000000000000000000000815260040161110b9061391b565b60405180910390fd5b61112084848484611dd0565b50505050565b60006040516000810160208160008060185afa61113f57fe5b81519250505090565b600d602052806000526040600020600091509050805461116790613754565b80601f016020809104026020016040519081016040528092919081815260200182805461119390613754565b80156111e05780601f106111b5576101008083540402835291602001916111e0565b820191906000526020600020905b8154815290600101906020018083116111c357829003601f168201915b505050505081565b6000816111f3611343565b6111fd9190613a8e565b9050919050565b60606112f76112116106c3565b6040518060400160405280601a81526020017f44796e616d6963204e465420536d61727420436f6e74726163740000000000008152506112f273E2419bEDDe902C38ff2D9e9cAD6ca5D34B78884063452955e4600d6000898152602001908152602001600020600e60008a81526020019081526020016000206040518363ffffffff1660e01b81526004016112a7929190614e41565b600060405180830381865af41580156112c4573d6000803e3d6000fd5b505050506040513d6000823e3d601f19601f820116820180604052508101906112ed9190614ee8565b611e2c565b611e5d565b9050919050565b7f9f2df0fed2c77648de5860a4cc508cd0818c85b8b8a1ab4ceeef8d981c8956a681565b61132b8261091f565b61133481611940565b61133e8383611a35565b505050565b600061134d611126565b60001c905090565b6000600560008473ffffffffffffffffffffffffffffffffffffffff1673ffffffffffffffffffffffffffffffffffffffff16815260200190815260200160002060008373ffffffffffffffffffffffffffffffffffffffff1673ffffffffffffffffffffffffffffffffffffffff16815260200190815260200160002060009054906101000a900460ff16905092915050565b600e602052816000526040600020818154811061140557600080fd5b9060005260206000209060209182820401919006915091509054906101000a900460ff1681565b60007f7965db0b000000000000000000000000000000000000000000000000000000007bffffffffffffffffffffffffffffffffffffffffffffffffffffffff1916827bffffffffffffffffffffffffffffffffffffffffffffffffffffffff1916148061149f575061149e82611eb3565b5b9050919050565b6114af81611f14565b6114ee576040517f08c379a00000000000000000000000000000000000000000000000000000000081526004016114e590613f87565b60405180910390fd5b50565b600033905090565b816004600083815260200190815260200160002060006101000a81548173ffffffffffffffffffffffffffffffffffffffff021916908373ffffffffffffffffffffffffffffffffffffffff160217905550808273ffffffffffffffffffffffffffffffffffffffff1661156c83610e25565b73ffffffffffffffffffffffffffffffffffffffff167f8c5be1e5ebec7d5bd14f71427d1e84f3dd0314c0f7b2291e5b200ac8c7c3b92560405160405180910390a45050565b6000806115be83610e25565b90508073ffffffffffffffffffffffffffffffffffffffff168473ffffffffffffffffffffffffffffffffffffffff16148061160057506115ff8185611355565b5b8061163e57508373ffffffffffffffffffffffffffffffffffffffff1661162684610755565b73ffffffffffffffffffffffffffffffffffffffff16145b91505092915050565b8273ffffffffffffffffffffffffffffffffffffffff1661166782610e25565b73ffffffffffffffffffffffffffffffffffffffff16146116bd576040517f08c379a00000000000000000000000000000000000000000000000000000000081526004016116b490614fa3565b60405180910390fd5b600073ffffffffffffffffffffffffffffffffffffffff168273ffffffffffffffffffffffffffffffffffffffff160361172c576040517f08c379a000000000000000000000000000000000000000000000000000000000815260040161172390615035565b60405180910390fd5b6117398383836001611f55565b8273ffffffffffffffffffffffffffffffffffffffff1661175982610e25565b73ffffffffffffffffffffffffffffffffffffffff16146117af576040517f08c379a00000000000000000000000000000000000000000000000000000000081526004016117a690614fa3565b60405180910390fd5b6004600082815260200190815260200160002060006101000a81549073ffffffffffffffffffffffffffffffffffffffff02191690556001600360008573ffffffffffffffffffffffffffffffffffffffff1673ffffffffffffffffffffffffffffffffffffffff168152602001908152602001600020600082825403925050819055506001600360008473ffffffffffffffffffffffffffffffffffffffff1673ffffffffffffffffffffffffffffffffffffffff16815260200190815260200160002060008282540192505081905550816002600083815260200190815260200160002060006101000a81548173ffffffffffffffffffffffffffffffffffffffff021916908373ffffffffffffffffffffffffffffffffffffffff160217905550808273ffffffffffffffffffffffffffffffffffffffff168473ffffffffffffffffffffffffffffffffffffffff167fddf252ad1be2c89b69c2b068fc378daa952ba7f163c4a11628f55a4df523b3ef60405160405180910390a461193b8383836001611f67565b505050565b6119518161194c6114f1565b611f6d565b50565b61195e8282610f62565b611a31576001600b600084815260200190815260200160002060000160008373ffffffffffffffffffffffffffffffffffffffff1673ffffffffffffffffffffffffffffffffffffffff16815260200190815260200160002060006101000a81548160ff0219169083151502179055506119d66114f1565b73ffffffffffffffffffffffffffffffffffffffff168173ffffffffffffffffffffffffffffffffffffffff16837f2f8788117e7eff1d82e926ec794901d17c78024a50270940304540a733656f0d60405160405180910390a45b5050565b611a3f8282610f62565b15611b13576000600b600084815260200190815260200160002060000160008373ffffffffffffffffffffffffffffffffffffffff1673ffffffffffffffffffffffffffffffffffffffff16815260200190815260200160002060006101000a81548160ff021916908315150217905550611ab86114f1565b73ffffffffffffffffffffffffffffffffffffffff168173ffffffffffffffffffffffffffffffffffffffff16837ff6391f5c32d9c69d2a47ea670b442974b53935d1edc7fd64eb21e047a839171b60405160405180910390a45b5050565b600081600001549050919050565b6001816000016000828254019250508190555050565b611b55828260405180602001604052806000815250611ff2565b5050565b606060006001611b688461204d565b01905060008167ffffffffffffffff811115611b8757611b86613500565b5b6040519080825280601f01601f191660200182016040528015611bb95781602001600182028036833780820191505090505b509050600082602001820190505b600115611c1c578080600190039150507f3031323334353637383961626364656600000000000000000000000000000000600a86061a8153600a8581611c1057611c0f613a5f565b5b04945060008503611bc7575b819350505050919050565b60006002600083815260200190815260200160002060009054906101000a900473ffffffffffffffffffffffffffffffffffffffff169050919050565b8173ffffffffffffffffffffffffffffffffffffffff168373ffffffffffffffffffffffffffffffffffffffff1603611cd2576040517f08c379a0000000000000000000000000000000000000000000000000000000008152600401611cc9906150a1565b60405180910390fd5b80600560008573ffffffffffffffffffffffffffffffffffffffff1673ffffffffffffffffffffffffffffffffffffffff16815260200190815260200160002060008473ffffffffffffffffffffffffffffffffffffffff1673ffffffffffffffffffffffffffffffffffffffff16815260200190815260200160002060006101000a81548160ff0219169083151502179055508173ffffffffffffffffffffffffffffffffffffffff168373ffffffffffffffffffffffffffffffffffffffff167f17307eab39ab6107e8899845ad3d59bd9653f200f220920489ca2b5937696c3183604051611dc391906130db565b60405180910390a3505050565b611ddb848484611647565b611de7848484846121a0565b611e26576040517f08c379a0000000000000000000000000000000000000000000000000000000008152600401611e1d90615133565b60405180910390fd5b50505050565b6060611e3782612327565b604051602001611e47919061519f565b6040516020818303038152906040529050919050565b6060611e8b848484604051602001611e77939291906153d5565b604051602081830303815290604052612327565b604051602001611e9b91906154aa565b60405160208183030381529060405290509392505050565b6000634906490660e01b7bffffffffffffffffffffffffffffffffffffffffffffffffffffffff1916827bffffffffffffffffffffffffffffffffffffffffffffffffffffffff19161480611f0d5750611f0c8261248a565b5b9050919050565b60008073ffffffffffffffffffffffffffffffffffffffff16611f3683611c27565b73ffffffffffffffffffffffffffffffffffffffff1614159050919050565b611f6184848484612504565b50505050565b50505050565b611f778282610f62565b611fee57611f8481612662565b611f928360001c602061268f565b604051602001611fa3929190615564565b6040516020818303038152906040526040517f08c379a0000000000000000000000000000000000000000000000000000000008152600401611fe59190613186565b60405180910390fd5b5050565b611ffc83836128cb565b61200960008484846121a0565b612048576040517f08c379a000000000000000000000000000000000000000000000000000000000815260040161203f90615133565b60405180910390fd5b505050565b600080600090507a184f03e93ff9f4daa797ed6e38ed64bf6a1f01000000000000000083106120ab577a184f03e93ff9f4daa797ed6e38ed64bf6a1f01000000000000000083816120a1576120a0613a5f565b5b0492506040810190505b6d04ee2d6d415b85acef810000000083106120e8576d04ee2d6d415b85acef810000000083816120de576120dd613a5f565b5b0492506020810190505b662386f26fc10000831061211757662386f26fc10000838161210d5761210c613a5f565b5b0492506010810190505b6305f5e1008310612140576305f5e100838161213657612135613a5f565b5b0492506008810190505b612710831061216557612710838161215b5761215a613a5f565b5b0492506004810190505b60648310612188576064838161217e5761217d613a5f565b5b0492506002810190505b600a8310612197576001810190505b80915050919050565b60006121c18473ffffffffffffffffffffffffffffffffffffffff16612ae8565b1561231a578373ffffffffffffffffffffffffffffffffffffffff1663150b7a026121ea6114f1565b8786866040518563ffffffff1660e01b815260040161220c94939291906155f3565b6020604051808303816000875af192505050801561224857506040513d601f19601f820116820180604052508101906122459190615654565b60015b6122ca573d8060008114612278576040519150601f19603f3d011682016040523d82523d6000602084013e61227d565b606091505b5060008151036122c2576040517f08c379a00000000000000000000000000000000000000000000000000000000081526004016122b990615133565b60405180910390fd5b805181602001fd5b63150b7a0260e01b7bffffffffffffffffffffffffffffffffffffffffffffffffffffffff1916817bffffffffffffffffffffffffffffffffffffffffffffffffffffffff19161491505061231f565b600190505b949350505050565b6060600082510361234957604051806020016040528060008152509050612485565b600060405180606001604052806040815260200161595760409139905060006003600285516123789190613b1d565b6123829190615681565b600461238e91906156b2565b67ffffffffffffffff8111156123a7576123a6613500565b5b6040519080825280601f01601f1916602001820160405280156123d95781602001600182028036833780820191505090505b509050600182016020820185865187015b80821015612445576003820191508151603f8160121c168501518453600184019350603f81600c1c168501518453600184019350603f8160061c168501518453600184019350603f81168501518453600184019350506123ea565b505060038651066001811461246157600281146124745761247c565b603d6001830353603d600283035361247c565b603d60018303535b50505080925050505b919050565b60007f780e9d63000000000000000000000000000000000000000000000000000000007bffffffffffffffffffffffffffffffffffffffffffffffffffffffff1916827bffffffffffffffffffffffffffffffffffffffffffffffffffffffff191614806124fd57506124fc82612b0b565b5b9050919050565b61251084848484612bed565b6001811115612554576040517f08c379a000000000000000000000000000000000000000000000000000000000815260040161254b90615766565b60405180910390fd5b6000829050600073ffffffffffffffffffffffffffffffffffffffff168573ffffffffffffffffffffffffffffffffffffffff160361259b5761259681612bf3565b6125da565b8373ffffffffffffffffffffffffffffffffffffffff168573ffffffffffffffffffffffffffffffffffffffff16146125d9576125d88582612c3c565b5b5b600073ffffffffffffffffffffffffffffffffffffffff168473ffffffffffffffffffffffffffffffffffffffff160361261c5761261781612da9565b61265b565b8473ffffffffffffffffffffffffffffffffffffffff168473ffffffffffffffffffffffffffffffffffffffff161461265a576126598482612e7a565b5b5b5050505050565b60606126888273ffffffffffffffffffffffffffffffffffffffff16601460ff1661268f565b9050919050565b6060600060028360026126a291906156b2565b6126ac9190613b1d565b67ffffffffffffffff8111156126c5576126c4613500565b5b6040519080825280601f01601f1916602001820160405280156126f75781602001600182028036833780820191505090505b5090507f30000000000000000000000000000000000000000000000000000000000000008160008151811061272f5761272e613abf565b5b60200101907effffffffffffffffffffffffffffffffffffffffffffffffffffffffffffff1916908160001a9053507f78000000000000000000000000000000000000000000000000000000000000008160018151811061279357612792613abf565b5b60200101907effffffffffffffffffffffffffffffffffffffffffffffffffffffffffffff1916908160001a905350600060018460026127d391906156b2565b6127dd9190613b1d565b90505b600181111561287d577f3031323334353637383961626364656600000000000000000000000000000000600f86166010811061281f5761281e613abf565b5b1a60f81b82828151811061283657612835613abf565b5b60200101907effffffffffffffffffffffffffffffffffffffffffffffffffffffffffffff1916908160001a905350600485901c94508061287690615786565b90506127e0565b50600084146128c1576040517f08c379a00000000000000000000000000000000000000000000000000000000081526004016128b8906157fb565b60405180910390fd5b8091505092915050565b600073ffffffffffffffffffffffffffffffffffffffff168273ffffffffffffffffffffffffffffffffffffffff160361293a576040517f08c379a000000000000000000000000000000000000000000000000000000000815260040161293190615867565b60405180910390fd5b61294381611f14565b15612983576040517f08c379a000000000000000000000000000000000000000000000000000000000815260040161297a906158d3565b60405180910390fd5b612991600083836001611f55565b61299a81611f14565b156129da576040517f08c379a00000000000000000000000000000000000000000000000000000000081526004016129d1906158d3565b60405180910390fd5b6001600360008473ffffffffffffffffffffffffffffffffffffffff1673ffffffffffffffffffffffffffffffffffffffff16815260200190815260200160002060008282540192505081905550816002600083815260200190815260200160002060006101000a81548173ffffffffffffffffffffffffffffffffffffffff021916908373ffffffffffffffffffffffffffffffffffffffff160217905550808273ffffffffffffffffffffffffffffffffffffffff16600073ffffffffffffffffffffffffffffffffffffffff167fddf252ad1be2c89b69c2b068fc378daa952ba7f163c4a11628f55a4df523b3ef60405160405180910390a4612ae4600083836001611f67565b5050565b6000808273ffffffffffffffffffffffffffffffffffffffff163b119050919050565b60007f80ac58cd000000000000000000000000000000000000000000000000000000007bffffffffffffffffffffffffffffffffffffffffffffffffffffffff1916827bffffffffffffffffffffffffffffffffffffffffffffffffffffffff19161480612bd657507f5b5e139f000000000000000000000000000000000000000000000000000000007bffffffffffffffffffffffffffffffffffffffffffffffffffffffff1916827bffffffffffffffffffffffffffffffffffffffffffffffffffffffff1916145b80612be65750612be582612ef9565b5b9050919050565b50505050565b6008805490506009600083815260200190815260200160002081905550600881908060018154018082558091505060019003906000526020600020016000909190919091505550565b60006001612c4984610eab565b612c5391906158f3565b9050600060076000848152602001908152602001600020549050818114612d38576000600660008673ffffffffffffffffffffffffffffffffffffffff1673ffffffffffffffffffffffffffffffffffffffff168152602001908152602001600020600084815260200190815260200160002054905080600660008773ffffffffffffffffffffffffffffffffffffffff1673ffffffffffffffffffffffffffffffffffffffff168152602001908152602001600020600084815260200190815260200160002081905550816007600083815260200190815260200160002081905550505b6007600084815260200190815260200160002060009055600660008573ffffffffffffffffffffffffffffffffffffffff1673ffffffffffffffffffffffffffffffffffffffff16815260200190815260200160002060008381526020019081526020016000206000905550505050565b60006001600880549050612dbd91906158f3565b9050600060096000848152602001908152602001600020549050600060088381548110612ded57612dec613abf565b5b906000526020600020015490508060088381548110612e0f57612e0e613abf565b5b906000526020600020018190555081600960008381526020019081526020016000208190555060096000858152602001908152602001600020600090556008805480612e5e57612e5d615927565b5b6001900381819060005260206000200160009055905550505050565b6000612e8583610eab565b905081600660008573ffffffffffffffffffffffffffffffffffffffff1673ffffffffffffffffffffffffffffffffffffffff168152602001908152602001600020600083815260200190815260200160002081905550806007600084815260200190815260200160002081905550505050565b60007f01ffc9a7000000000000000000000000000000000000000000000000000000007bffffffffffffffffffffffffffffffffffffffffffffffffffffffff1916827bffffffffffffffffffffffffffffffffffffffffffffffffffffffff1916149050919050565b82805482825590600052602060002090601f01602090048101928215612ff95791602002820160005b83821115612fca57835183826101000a81548160ff021916908360ff1602179055509260200192600101602081600001049283019260010302612f8c565b8015612ff75782816101000a81549060ff0219169055600101602081600001049283019260010302612fca565b505b509050613006919061300a565b5090565b5b8082111561302357600081600090555060010161300b565b5090565b6000604051905090565b600080fd5b600080fd5b60007fffffffff0000000000000000000000000000000000000000000000000000000082169050919050565b6130708161303b565b811461307b57600080fd5b50565b60008135905061308d81613067565b92915050565b6000602082840312156130a9576130a8613031565b5b60006130b78482850161307e565b91505092915050565b60008115159050919050565b6130d5816130c0565b82525050565b60006020820190506130f060008301846130cc565b92915050565b600081519050919050565b600082825260208201905092915050565b60005b83811015613130578082015181840152602081019050613115565b60008484015250505050565b6000601f19601f8301169050919050565b6000613158826130f6565b6131628185613101565b9350613172818560208601613112565b61317b8161313c565b840191505092915050565b600060208201905081810360008301526131a0818461314d565b905092915050565b6000819050919050565b6131bb816131a8565b81146131c657600080fd5b50565b6000813590506131d8816131b2565b92915050565b6000602082840312156131f4576131f3613031565b5b6000613202848285016131c9565b91505092915050565b600073ffffffffffffffffffffffffffffffffffffffff82169050919050565b60006132368261320b565b9050919050565b6132468161322b565b82525050565b6000602082019050613261600083018461323d565b92915050565b6132708161322b565b811461327b57600080fd5b50565b60008135905061328d81613267565b92915050565b600080604083850312156132aa576132a9613031565b5b60006132b88582860161327e565b92505060206132c9858286016131c9565b9150509250929050565b6132dc816131a8565b82525050565b60006020820190506132f760008301846132d3565b92915050565b60008060006060848603121561331657613315613031565b5b60006133248682870161327e565b93505060206133358682870161327e565b9250506040613346868287016131c9565b9150509250925092565b6000819050919050565b61336381613350565b811461336e57600080fd5b50565b6000813590506133808161335a565b92915050565b60006020828403121561339c5761339b613031565b5b60006133aa84828501613371565b91505092915050565b6133bc81613350565b82525050565b60006020820190506133d760008301846133b3565b92915050565b600080604083850312156133f4576133f3613031565b5b600061340285828601613371565b92505060206134138582860161327e565b9150509250929050565b6000806040838503121561343457613433613031565b5b6000613442858286016131c9565b9250506020613453858286016131c9565b9150509250929050565b60006020828403121561347357613472613031565b5b60006134818482850161327e565b91505092915050565b613493816130c0565b811461349e57600080fd5b50565b6000813590506134b08161348a565b92915050565b600080604083850312156134cd576134cc613031565b5b60006134db8582860161327e565b92505060206134ec858286016134a1565b9150509250929050565b600080fd5b600080fd5b7f4e487b7100000000000000000000000000000000000000000000000000000000600052604160045260246000fd5b6135388261313c565b810181811067ffffffffffffffff8211171561355757613556613500565b5b80604052505050565b600061356a613027565b9050613576828261352f565b919050565b600067ffffffffffffffff82111561359657613595613500565b5b61359f8261313c565b9050602081019050919050565b82818337600083830152505050565b60006135ce6135c98461357b565b613560565b9050828152602081018484840111156135ea576135e96134fb565b5b6135f58482856135ac565b509392505050565b600082601f830112613612576136116134f6565b5b81356136228482602086016135bb565b91505092915050565b6000806000806080858703121561364557613644613031565b5b60006136538782880161327e565b94505060206136648782880161327e565b9350506040613675878288016131c9565b925050606085013567ffffffffffffffff81111561369657613695613036565b5b6136a2878288016135fd565b91505092959194509250565b600080604083850312156136c5576136c4613031565b5b60006136d38582860161327e565b92505060206136e48582860161327e565b9150509250929050565b600060ff82169050919050565b613704816136ee565b82525050565b600060208201905061371f60008301846136fb565b92915050565b7f4e487b7100000000000000000000000000000000000000000000000000000000600052602260045260246000fd5b6000600282049050600182168061376c57607f821691505b60208210810361377f5761377e613725565b5b50919050565b7f4552433732313a20617070726f76616c20746f2063757272656e74206f776e6560008201527f7200000000000000000000000000000000000000000000000000000000000000602082015250565b60006137e1602183613101565b91506137ec82613785565b604082019050919050565b60006020820190508181036000830152613810816137d4565b9050919050565b7f4552433732313a20617070726f76652063616c6c6572206973206e6f7420746f60008201527f6b656e206f776e6572206f7220617070726f76656420666f7220616c6c000000602082015250565b6000613873603d83613101565b915061387e82613817565b604082019050919050565b600060208201905081810360008301526138a281613866565b9050919050565b7f4552433732313a2063616c6c6572206973206e6f7420746f6b656e206f776e6560008201527f72206f7220617070726f76656400000000000000000000000000000000000000602082015250565b6000613905602d83613101565b9150613910826138a9565b604082019050919050565b60006020820190508181036000830152613934816138f8565b9050919050565b7f455243373231456e756d657261626c653a206f776e657220696e646578206f7560008201527f74206f6620626f756e6473000000000000000000000000000000000000000000602082015250565b6000613997602b83613101565b91506139a28261393b565b604082019050919050565b600060208201905081810360008301526139c68161398a565b9050919050565b7f416363657373436f6e74726f6c3a2063616e206f6e6c792072656e6f756e636560008201527f20726f6c657320666f722073656c660000000000000000000000000000000000602082015250565b6000613a29602f83613101565b9150613a34826139cd565b604082019050919050565b60006020820190508181036000830152613a5881613a1c565b9050919050565b7f4e487b7100000000000000000000000000000000000000000000000000000000600052601260045260246000fd5b6000613a99826131a8565b9150613aa4836131a8565b925082613ab457613ab3613a5f565b5b828206905092915050565b7f4e487b7100000000000000000000000000000000000000000000000000000000600052603260045260246000fd5b7f4e487b7100000000000000000000000000000000000000000000000000000000600052601160045260246000fd5b6000613b28826131a8565b9150613b33836131a8565b9250828201905080821115613b4b57613b4a613aee565b5b92915050565b6000613b5c826136ee565b915060ff8203613b6f57613b6e613aee565b5b600182019050919050565b600081905092915050565b6000613b90826130f6565b613b9a8185613b7a565b9350613baa818560208601613112565b80840191505092915050565b7f2c00000000000000000000000000000000000000000000000000000000000000815250565b6000613be88286613b85565b9150613bf382613bb6565b600182019150613c038285613b85565b9150613c0e82613bb6565b600182019150613c1e8284613b85565b9150819050949350505050565b60008190508160005260206000209050919050565b60006020601f8301049050919050565b600082821b905092915050565b600060088302613c8d7fffffffffffffffffffffffffffffffffffffffffffffffffffffffffffffffff82613c50565b613c978683613c50565b95508019841693508086168417925050509392505050565b6000819050919050565b6000613cd4613ccf613cca846131a8565b613caf565b6131a8565b9050919050565b6000819050919050565b613cee83613cb9565b613d02613cfa82613cdb565b848454613c5d565b825550505050565b600090565b613d17613d0a565b613d22818484613ce5565b505050565b5b81811015613d4657613d3b600082613d0f565b600181019050613d28565b5050565b601f821115613d8b57613d5c81613c2b565b613d6584613c40565b81016020851015613d74578190505b613d88613d8085613c40565b830182613d27565b50505b505050565b600082821c905092915050565b6000613dae60001984600802613d90565b1980831691505092915050565b6000613dc78383613d9d565b9150826002028217905092915050565b613de0826130f6565b67ffffffffffffffff811115613df957613df8613500565b5b613e038254613754565b613e0e828285613d4a565b600060209050601f831160018114613e415760008415613e2f578287015190505b613e398582613dbb565b865550613ea1565b601f198416613e4f86613c2b565b60005b82811015613e7757848901518255600182019150602085019450602081019050613e52565b86831015613e945784890151613e90601f891682613d9d565b8355505b6001600288020188555050505b505050505050565b7f455243373231456e756d657261626c653a20676c6f62616c20696e646578206f60008201527f7574206f6620626f756e64730000000000000000000000000000000000000000602082015250565b6000613f05602c83613101565b9150613f1082613ea9565b604082019050919050565b60006020820190508181036000830152613f3481613ef8565b9050919050565b7f4552433732313a20696e76616c696420746f6b656e2049440000000000000000600082015250565b6000613f71601883613101565b9150613f7c82613f3b565b602082019050919050565b60006020820190508181036000830152613fa081613f64565b9050919050565b7f4552433732313a2061646472657373207a65726f206973206e6f74206120766160008201527f6c6964206f776e65720000000000000000000000000000000000000000000000602082015250565b6000614003602983613101565b915061400e82613fa7565b604082019050919050565b6000602082019050818103600083015261403281613ff6565b9050919050565b600082825260208201905092915050565b6000815461405781613754565b6140618186614039565b9450600182166000811461407c5760018114614092576140c5565b60ff1983168652811515602002860193506140c5565b61409b85613c2b565b60005b838110156140bd5781548189015260018201915060208101905061409e565b808801955050505b50505092915050565b600081549050919050565b600082825260208201905092915050565b60008190508160005260206000209050919050565b614108816136ee565b82525050565b60008160001c9050919050565b600060ff82169050919050565b600061413b6141368361410e565b61411b565b9050919050565b60008160081c9050919050565b600061416261415d83614142565b61411b565b9050919050565b60008160101c9050919050565b600061418961418483614169565b61411b565b9050919050565b60008160181c9050919050565b60006141b06141ab83614190565b61411b565b9050919050565b60008160201c9050919050565b60006141d76141d2836141b7565b61411b565b9050919050565b60008160281c9050919050565b60006141fe6141f9836141de565b61411b565b9050919050565b60008160301c9050919050565b600061422561422083614205565b61411b565b9050919050565b60008160381c9050919050565b600061424c6142478361422c565b61411b565b9050919050565b60008160401c9050919050565b600061427361426e83614253565b61411b565b9050919050565b60008160481c9050919050565b600061429a6142958361427a565b61411b565b9050919050565b60008160501c9050919050565b60006142c16142bc836142a1565b61411b565b9050919050565b60008160581c9050919050565b60006142e86142e3836142c8565b61411b565b9050919050565b60008160601c9050919050565b600061430f61430a836142ef565b61411b565b9050919050565b60008160681c9050919050565b600061433661433183614316565b61411b565b9050919050565b60008160701c9050919050565b600061435d6143588361433d565b61411b565b9050919050565b60008160781c9050919050565b600061438461437f83614364565b61411b565b9050919050565b60008160801c9050919050565b60006143ab6143a68361438b565b61411b565b9050919050565b60008160881c9050919050565b60006143d26143cd836143b2565b61411b565b9050919050565b60008160901c9050919050565b60006143f96143f4836143d9565b61411b565b9050919050565b60008160981c9050919050565b600061442061441b83614400565b61411b565b9050919050565b60008160a01c9050919050565b600061444761444283614427565b61411b565b9050919050565b60008160a81c9050919050565b600061446e6144698361444e565b61411b565b9050919050565b60008160b01c9050919050565b600061449561449083614475565b61411b565b9050919050565b60008160b81c9050919050565b60006144bc6144b78361449c565b61411b565b9050919050565b60008160c01c9050919050565b60006144e36144de836144c3565b61411b565b9050919050565b60008160c81c9050919050565b600061450a614505836144ea565b61411b565b9050919050565b60008160d01c9050919050565b600061453161452c83614511565b61411b565b9050919050565b60008160d81c9050919050565b600061455861455383614538565b61411b565b9050919050565b60008160e01c9050919050565b600061457f61457a8361455f565b61411b565b9050919050565b60008160e81c9050919050565b60006145a66145a183614586565b61411b565b9050919050565b60008160f01c9050919050565b60006145cd6145c8836145ad565b61411b565b9050919050565b60008160f81c9050919050565b60006145f46145ef836145d4565b61411b565b9050919050565b6000614606826140ce565b61461081856140d9565b93508361461c846140ea565b6000600115614949575b836001602003820110156149485781546146488861464383614128565b6140ff565b6020880197506146608861465b8361414f565b6140ff565b6020880197506146788861467383614176565b6140ff565b6020880197506146908861468b8361419d565b6140ff565b6020880197506146a8886146a3836141c4565b6140ff565b6020880197506146c0886146bb836141eb565b6140ff565b6020880197506146d8886146d383614212565b6140ff565b6020880197506146f0886146eb83614239565b6140ff565b6020880197506147088861470383614260565b6140ff565b6020880197506147208861471b83614287565b6140ff565b60208801975061473888614733836142ae565b6140ff565b6020880197506147508861474b836142d5565b6140ff565b60208801975061476888614763836142fc565b6140ff565b6020880197506147808861477b83614323565b6140ff565b602088019750614798886147938361434a565b6140ff565b6020880197506147b0886147ab83614371565b6140ff565b6020880197506147c8886147c383614398565b6140ff565b6020880197506147e0886147db836143bf565b6140ff565b6020880197506147f8886147f3836143e6565b6140ff565b6020880197506148108861480b8361440d565b6140ff565b6020880197506148288861482383614434565b6140ff565b6020880197506148408861483b8361445b565b6140ff565b6020880197506148588861485383614482565b6140ff565b6020880197506148708861486b836144a9565b6140ff565b60208801975061488888614883836144d0565b6140ff565b6020880197506148a08861489b836144f7565b6140ff565b6020880197506148b8886148b38361451e565b6140ff565b6020880197506148d0886148cb83614545565b6140ff565b6020880197506148e8886148e38361456c565b6140ff565b602088019750614900886148fb83614593565b6140ff565b60208801975061491888614913836145ba565b6140ff565b6020880197506149308861492b836145e1565b6140ff565b60208801975060018301925050602081019050614626565b5b600115614e34578154848210156149795761496c8861496783614128565b6140ff565b6020880197506001820191505b848210156149a0576149938861498e8361414f565b6140ff565b6020880197506001820191505b848210156149c7576149ba886149b583614176565b6140ff565b6020880197506001820191505b848210156149ee576149e1886149dc8361419d565b6140ff565b6020880197506001820191505b84821015614a1557614a0888614a03836141c4565b6140ff565b6020880197506001820191505b84821015614a3c57614a2f88614a2a836141eb565b6140ff565b6020880197506001820191505b84821015614a6357614a5688614a5183614212565b6140ff565b6020880197506001820191505b84821015614a8a57614a7d88614a7883614239565b6140ff565b6020880197506001820191505b84821015614ab157614aa488614a9f83614260565b6140ff565b6020880197506001820191505b84821015614ad857614acb88614ac683614287565b6140ff565b6020880197506001820191505b84821015614aff57614af288614aed836142ae565b6140ff565b6020880197506001820191505b84821015614b2657614b1988614b14836142d5565b6140ff565b6020880197506001820191505b84821015614b4d57614b4088614b3b836142fc565b6140ff565b6020880197506001820191505b84821015614b7457614b6788614b6283614323565b6140ff565b6020880197506001820191505b84821015614b9b57614b8e88614b898361434a565b6140ff565b6020880197506001820191505b84821015614bc257614bb588614bb083614371565b6140ff565b6020880197506001820191505b84821015614be957614bdc88614bd783614398565b6140ff565b6020880197506001820191505b84821015614c1057614c0388614bfe836143bf565b6140ff565b6020880197506001820191505b84821015614c3757614c2a88614c25836143e6565b6140ff565b6020880197506001820191505b84821015614c5e57614c5188614c4c8361440d565b6140ff565b6020880197506001820191505b84821015614c8557614c7888614c7383614434565b6140ff565b6020880197506001820191505b84821015614cac57614c9f88614c9a8361445b565b6140ff565b6020880197506001820191505b84821015614cd357614cc688614cc183614482565b6140ff565b6020880197506001820191505b84821015614cfa57614ced88614ce8836144a9565b6140ff565b6020880197506001820191505b84821015614d2157614d1488614d0f836144d0565b6140ff565b6020880197506001820191505b84821015614d4857614d3b88614d36836144f7565b6140ff565b6020880197506001820191505b84821015614d6f57614d6288614d5d8361451e565b6140ff565b6020880197506001820191505b84821015614d9657614d8988614d8483614545565b6140ff565b6020880197506001820191505b84821015614dbd57614db088614dab8361456c565b6140ff565b6020880197506001820191505b84821015614de457614dd788614dd283614593565b6140ff565b6020880197506001820191505b84821015614e0b57614dfe88614df9836145ba565b6140ff565b6020880197506001820191505b84821015614e3257614e2588614e20836145e1565b6140ff565b6020880197506001820191505b505b8694505050505092915050565b60006040820190508181036000830152614e5b818561404a565b90508181036020830152614e6f81846145fb565b90509392505050565b6000614e8b614e868461357b565b613560565b905082815260208101848484011115614ea757614ea66134fb565b5b614eb2848285613112565b509392505050565b600082601f830112614ecf57614ece6134f6565b5b8151614edf848260208601614e78565b91505092915050565b600060208284031215614efe57614efd613031565b5b600082015167ffffffffffffffff811115614f1c57614f1b613036565b5b614f2884828501614eba565b91505092915050565b7f4552433732313a207472616e736665722066726f6d20696e636f72726563742060008201527f6f776e6572000000000000000000000000000000000000000000000000000000602082015250565b6000614f8d602583613101565b9150614f9882614f31565b604082019050919050565b60006020820190508181036000830152614fbc81614f80565b9050919050565b7f4552433732313a207472616e7366657220746f20746865207a65726f2061646460008201527f7265737300000000000000000000000000000000000000000000000000000000602082015250565b600061501f602483613101565b915061502a82614fc3565b604082019050919050565b6000602082019050818103600083015261504e81615012565b9050919050565b7f4552433732313a20617070726f766520746f2063616c6c657200000000000000600082015250565b600061508b601983613101565b915061509682615055565b602082019050919050565b600060208201905081810360008301526150ba8161507e565b9050919050565b7f4552433732313a207472616e7366657220746f206e6f6e20455243373231526560008201527f63656976657220696d706c656d656e7465720000000000000000000000000000602082015250565b600061511d603283613101565b9150615128826150c1565b604082019050919050565b6000602082019050818103600083015261514c81615110565b9050919050565b7f646174613a696d6167652f7376672b786d6c3b6261736536342c000000000000600082015250565b6000615189601a83613b7a565b915061519482615153565b601a82019050919050565b60006151aa8261517c565b91506151b68284613b85565b915081905092915050565b7f7b00000000000000000000000000000000000000000000000000000000000000600082015250565b60006151f7600183613b7a565b9150615202826151c1565b600182019050919050565b7f226e616d65223a20220000000000000000000000000000000000000000000000600082015250565b6000615243600983613b7a565b915061524e8261520d565b600982019050919050565b7f222c200000000000000000000000000000000000000000000000000000000000600082015250565b600061528f600383613b7a565b915061529a82615259565b600382019050919050565b7f226465736372697074696f6e223a220000000000000000000000000000000000600082015250565b60006152db600f83613b7a565b91506152e6826152a5565b600f82019050919050565b7f22696d616765223a202200000000000000000000000000000000000000000000600082015250565b6000615327600a83613b7a565b9150615332826152f1565b600a82019050919050565b7f2200000000000000000000000000000000000000000000000000000000000000600082015250565b6000615373600183613b7a565b915061537e8261533d565b600182019050919050565b7f7d00000000000000000000000000000000000000000000000000000000000000600082015250565b60006153bf600183613b7a565b91506153ca82615389565b600182019050919050565b60006153e0826151ea565b91506153eb82615236565b91506153f78286613b85565b915061540282615282565b915061540d826152ce565b91506154198285613b85565b915061542482615282565b915061542f8261531a565b915061543b8284613b85565b915061544682615366565b9150615451826153b2565b9150819050949350505050565b7f646174613a6170706c69636174696f6e2f6a736f6e3b6261736536342c000000600082015250565b6000615494601d83613b7a565b915061549f8261545e565b601d82019050919050565b60006154b582615487565b91506154c18284613b85565b915081905092915050565b7f416363657373436f6e74726f6c3a206163636f756e7420000000000000000000600082015250565b6000615502601783613b7a565b915061550d826154cc565b601782019050919050565b7f206973206d697373696e6720726f6c6520000000000000000000000000000000600082015250565b600061554e601183613b7a565b915061555982615518565b601182019050919050565b600061556f826154f5565b915061557b8285613b85565b915061558682615541565b91506155928284613b85565b91508190509392505050565b600081519050919050565b600082825260208201905092915050565b60006155c58261559e565b6155cf81856155a9565b93506155df818560208601613112565b6155e88161313c565b840191505092915050565b6000608082019050615608600083018761323d565b615615602083018661323d565b61562260408301856132d3565b818103606083015261563481846155ba565b905095945050505050565b60008151905061564e81613067565b92915050565b60006020828403121561566a57615669613031565b5b60006156788482850161563f565b91505092915050565b600061568c826131a8565b9150615697836131a8565b9250826156a7576156a6613a5f565b5b828204905092915050565b60006156bd826131a8565b91506156c8836131a8565b92508282026156d6816131a8565b915082820484148315176156ed576156ec613aee565b5b5092915050565b7f455243373231456e756d657261626c653a20636f6e736563757469766520747260008201527f616e7366657273206e6f7420737570706f727465640000000000000000000000602082015250565b6000615750603583613101565b915061575b826156f4565b604082019050919050565b6000602082019050818103600083015261577f81615743565b9050919050565b6000615791826131a8565b9150600082036157a4576157a3613aee565b5b600182039050919050565b7f537472696e67733a20686578206c656e67746820696e73756666696369656e74600082015250565b60006157e5602083613101565b91506157f0826157af565b602082019050919050565b60006020820190508181036000830152615814816157d8565b9050919050565b7f4552433732313a206d696e7420746f20746865207a65726f2061646472657373600082015250565b6000615851602083613101565b915061585c8261581b565b602082019050919050565b6000602082019050818103600083015261588081615844565b9050919050565b7f4552433732313a20746f6b656e20616c7265616479206d696e74656400000000600082015250565b60006158bd601c83613101565b91506158c882615887565b602082019050919050565b600060208201905081810360008301526158ec816158b0565b9050919050565b60006158fe826131a8565b9150615909836131a8565b925082820390508181111561592157615920613aee565b5b92915050565b7f4e487b7100000000000000000000000000000000000000000000000000000000600052603160045260246000fdfe4142434445464748494a4b4c4d4e4f505152535455565758595a6162636465666768696a6b6c6d6e6f707172737475767778797a303132333435363738392b2fa26469706673582212205a4fa315c0d67c456f0ce8ac45c1171aa93503df04ad2c8768a18f78336541e064736f6c63430008130033",
  "deployedBytecode": "0x608060405234801561001057600080fd5b50600436106101f05760003560e01c806391d148541161010f578063bd11f69d116100a2578063d547741f11610071578063d547741f14610617578063dbdff2c114610633578063e985e9c514610651578063ec4d5ce214610681576101f0565b8063bd11f69d14610569578063c46e63f414610599578063c87b56dd146105c9578063d5391393146105f9576101f0565b8063a217fddf116100de578063a217fddf146104f5578063a22cb46514610513578063b88d4fde1461052f578063ba23ec8e1461054b576101f0565b806391d148541461045957806395d89b411461048957806395fa9135146104a757806398bdf6f5146104d7576101f0565b80632f745c591161018757806342842e0e1161015657806342842e0e146103ad5780634f6ccce7146103c95780636352211e146103f957806370a0823114610429576101f0565b80632f745c591461031557806336568abe146103455780633c051a921461036157806340d097c314610391576101f0565b806318160ddd116101c357806318160ddd1461028f57806323b872dd146102ad578063248a9ca3146102c95780632f2ff15d146102f9576101f0565b806301ffc9a7146101f557806306fdde0314610225578063081812fc14610243578063095ea7b314610273575b600080fd5b61020f600480360381019061020a9190613093565b6106b1565b60405161021c91906130db565b60405180910390f35b61022d6106c3565b60405161023a9190613186565b60405180910390f35b61025d600480360381019061025891906131de565b610755565b60405161026a919061324c565b60405180910390f35b61028d60048036038101906102889190613293565b61079b565b005b6102976108b2565b6040516102a491906132e2565b60405180910390f35b6102c760048036038101906102c291906132fd565b6108bf565b005b6102e360048036038101906102de9190613386565b61091f565b6040516102f091906133c2565b60405180910390f35b610313600480360381019061030e91906133dd565b61093f565b005b61032f600480360381019061032a9190613293565b610960565b60405161033c91906132e2565b60405180910390f35b61035f600480360381019061035a91906133dd565b610a05565b005b61037b6004803603810190610376919061341d565b610a88565b60405161038891906132e2565b60405180910390f35b6103ab60048036038101906103a6919061345d565b610ad0565b005b6103c760048036038101906103c291906132fd565b610d94565b005b6103e360048036038101906103de91906131de565b610db4565b6040516103f091906132e2565b60405180910390f35b610413600480360381019061040e91906131de565b610e25565b604051610420919061324c565b60405180910390f35b610443600480360381019061043e919061345d565b610eab565b60405161045091906132e2565b60405180910390f35b610473600480360381019061046e91906133dd565b610f62565b60405161048091906130db565b60405180910390f35b610491610fcd565b60405161049e9190613186565b60405180910390f35b6104c160048036038101906104bc91906131de565b61105f565b6040516104ce91906132e2565b60405180910390f35b6104df61109b565b6040516104ec91906132e2565b60405180910390f35b6104fd6110a7565b60405161050a91906133c2565b60405180910390f35b61052d600480360381019061052891906134b6565b6110ae565b005b6105496004803603810190610544919061362b565b6110c4565b005b610553611126565b60405161056091906133c2565b60405180910390f35b610583600480360381019061057e91906131de565b611148565b6040516105909190613186565b60405180910390f35b6105b360048036038101906105ae91906131de565b6111e8565b6040516105c091906132e2565b60405180910390f35b6105e360048036038101906105de91906131de565b611204565b6040516105f09190613186565b60405180910390f35b6106016112fe565b60405161060e91906133c2565b60405180910390f35b610631600480360381019061062c91906133dd565b611322565b005b61063b611343565b60405161064891906132e2565b60405180910390f35b61066b600480360381019061066691906136ae565b611355565b60405161067891906130db565b60405180910390f35b61069b6004803603810190610696919061341d565b6113e9565b6040516106a8919061370a565b60405180910390f35b60006106bc8261142c565b9050919050565b6060600080546106d290613754565b80601f01602080910402602001604051908101604052809291908181526020018280546106fe90613754565b801561074b5780601f106107205761010080835404028352916020019161074b565b820191906000526020600020905b81548152906001019060200180831161072e57829003601f168201915b5050505050905090565b6000610760826114a6565b6004600083815260200190815260200160002060009054906101000a900473ffffffffffffffffffffffffffffffffffffffff169050919050565b60006107a682610e25565b90508073ffffffffffffffffffffffffffffffffffffffff168373ffffffffffffffffffffffffffffffffffffffff1603610816576040517f08c379a000000000000000000000000000000000000000000000000000000000815260040161080d906137f7565b60405180910390fd5b8073ffffffffffffffffffffffffffffffffffffffff166108356114f1565b73ffffffffffffffffffffffffffffffffffffffff16148061086457506108638161085e6114f1565b611355565b5b6108a3576040517f08c379a000000000000000000000000000000000000000000000000000000000815260040161089a90613889565b60405180910390fd5b6108ad83836114f9565b505050565b6000600880549050905090565b6108d06108ca6114f1565b826115b2565b61090f576040517f08c379a00000000000000000000000000000000000000000000000000000000081526004016109069061391b565b60405180910390fd5b61091a838383611647565b505050565b6000600b6000838152602001908152602001600020600101549050919050565b6109488261091f565b61095181611940565b61095b8383611954565b505050565b600061096b83610eab565b82106109ac576040517f08c379a00000000000000000000000000000000000000000000000000000000081526004016109a3906139ad565b60405180910390fd5b600660008473ffffffffffffffffffffffffffffffffffffffff1673ffffffffffffffffffffffffffffffffffffffff168152602001908152602001600020600083815260200190815260200160002054905092915050565b610a0d6114f1565b73ffffffffffffffffffffffffffffffffffffffff168173ffffffffffffffffffffffffffffffffffffffff1614610a7a576040517f08c379a0000000000000000000000000000000000000000000000000000000008152600401610a7190613a3f565b60405180910390fd5b610a848282611a35565b5050565b60008183610a94611343565b17604051602001610aa591906132e2565b6040516020818303038152906040528051906020012060001c610ac89190613a8e565b905092915050565b7f9f2df0fed2c77648de5860a4cc508cd0818c85b8b8a1ab4ceeef8d981c8956a6610afa81611940565b6000610b06600c611b17565b9050610b12600c611b25565b610b1c8382611b3b565b60006006905060008160ff1667ffffffffffffffff811115610b4157610b40613500565b5b604051908082528060200260200182016040528015610b6f5781602001602082028036833780820191505090505b50905060005b8260ff168160ff161015610c245760038160ff161015610bcc57610b9d8160ff1660ff610a88565b828260ff1681518110610bb357610bb2613abf565b5b602002602001019060ff16908160ff1681525050610c11565b610bda8160ff166024610a88565b6001610be69190613b1d565b828260ff1681518110610bfc57610bfb613abf565b5b602002602001019060ff16908160ff16815250505b8080610c1c90613b51565b915050610b75565b50610c4c81600081518110610c3c57610c3b613abf565b5b602002602001015160ff16611b59565b610c7382600181518110610c6357610c62613abf565b5b602002602001015160ff16611b59565b610c9a83600281518110610c8a57610c89613abf565b5b602002602001015160ff16611b59565b604051602001610cac93929190613bdc565b604051602081830303815290604052600d6000610cc9600c611b17565b81526020019081526020016000209081610ce39190613dd7565b50604051806060016040528082600381518110610d0357610d02613abf565b5b602002602001015160ff1660ff16815260200182600481518110610d2a57610d29613abf565b5b602002602001015160ff1660ff16815260200182600581518110610d5157610d50613abf565b5b602002602001015160ff1660ff16815250600e6000610d70600c611b17565b8152602001908152602001600020906003610d8c929190612f63565b505050505050565b610daf838383604051806020016040528060008152506110c4565b505050565b6000610dbe6108b2565b8210610dff576040517f08c379a0000000000000000000000000000000000000000000000000000000008152600401610df690613f1b565b60405180910390fd5b60088281548110610e1357610e12613abf565b5b90600052602060002001549050919050565b600080610e3183611c27565b9050600073ffffffffffffffffffffffffffffffffffffffff168173ffffffffffffffffffffffffffffffffffffffff1603610ea2576040517f08c379a0000000000000000000000000000000000000000000000000000000008152600401610e9990613f87565b60405180910390fd5b80915050919050565b60008073ffffffffffffffffffffffffffffffffffffffff168273ffffffffffffffffffffffffffffffffffffffff1603610f1b576040517f08c379a0000000000000000000000000000000000000000000000000000000008152600401610f1290614019565b60405180910390fd5b600360008373ffffffffffffffffffffffffffffffffffffffff1673ffffffffffffffffffffffffffffffffffffffff168152602001908152602001600020549050919050565b6000600b600084815260200190815260200160002060000160008373ffffffffffffffffffffffffffffffffffffffff1673ffffffffffffffffffffffffffffffffffffffff16815260200190815260200160002060009054906101000a900460ff16905092915050565b606060018054610fdc90613754565b80601f016020809104026020016040519081016040528092919081815260200182805461100890613754565b80156110555780601f1061102a57610100808354040283529160200191611055565b820191906000526020600020905b81548152906001019060200180831161103857829003601f168201915b5050505050905090565b60008161106a611343565b1760405160200161107b91906132e2565b6040516020818303038152906040528051906020012060001c9050919050565b600c8060000154905081565b6000801b81565b6110c06110b96114f1565b8383611c64565b5050565b6110d56110cf6114f1565b836115b2565b611114576040517f08c379a000000000000000000000000000000000000000000000000000000000815260040161110b9061391b565b60405180910390fd5b61112084848484611dd0565b50505050565b60006040516000810160208160008060185afa61113f57fe5b81519250505090565b600d602052806000526040600020600091509050805461116790613754565b80601f016020809104026020016040519081016040528092919081815260200182805461119390613754565b80156111e05780601f106111b5576101008083540402835291602001916111e0565b820191906000526020600020905b8154815290600101906020018083116111c357829003601f168201915b505050505081565b6000816111f3611343565b6111fd9190613a8e565b9050919050565b60606112f76112116106c3565b6040518060400160405280601a81526020017f44796e616d6963204e465420536d61727420436f6e74726163740000000000008152506112f273__$ad5092d2d81381a97940758c959052a4e8$__63452955e4600d6000898152602001908152602001600020600e60008a81526020019081526020016000206040518363ffffffff1660e01b81526004016112a7929190614e41565b600060405180830381865af41580156112c4573d6000803e3d6000fd5b505050506040513d6000823e3d601f19601f820116820180604052508101906112ed9190614ee8565b611e2c565b611e5d565b9050919050565b7f9f2df0fed2c77648de5860a4cc508cd0818c85b8b8a1ab4ceeef8d981c8956a681565b61132b8261091f565b61133481611940565b61133e8383611a35565b505050565b600061134d611126565b60001c905090565b6000600560008473ffffffffffffffffffffffffffffffffffffffff1673ffffffffffffffffffffffffffffffffffffffff16815260200190815260200160002060008373ffffffffffffffffffffffffffffffffffffffff1673ffffffffffffffffffffffffffffffffffffffff16815260200190815260200160002060009054906101000a900460ff16905092915050565b600e602052816000526040600020818154811061140557600080fd5b9060005260206000209060209182820401919006915091509054906101000a900460ff1681565b60007f7965db0b000000000000000000000000000000000000000000000000000000007bffffffffffffffffffffffffffffffffffffffffffffffffffffffff1916827bffffffffffffffffffffffffffffffffffffffffffffffffffffffff1916148061149f575061149e82611eb3565b5b9050919050565b6114af81611f14565b6114ee576040517f08c379a00000000000000000000000000000000000000000000000000000000081526004016114e590613f87565b60405180910390fd5b50565b600033905090565b816004600083815260200190815260200160002060006101000a81548173ffffffffffffffffffffffffffffffffffffffff021916908373ffffffffffffffffffffffffffffffffffffffff160217905550808273ffffffffffffffffffffffffffffffffffffffff1661156c83610e25565b73ffffffffffffffffffffffffffffffffffffffff167f8c5be1e5ebec7d5bd14f71427d1e84f3dd0314c0f7b2291e5b200ac8c7c3b92560405160405180910390a45050565b6000806115be83610e25565b90508073ffffffffffffffffffffffffffffffffffffffff168473ffffffffffffffffffffffffffffffffffffffff16148061160057506115ff8185611355565b5b8061163e57508373ffffffffffffffffffffffffffffffffffffffff1661162684610755565b73ffffffffffffffffffffffffffffffffffffffff16145b91505092915050565b8273ffffffffffffffffffffffffffffffffffffffff1661166782610e25565b73ffffffffffffffffffffffffffffffffffffffff16146116bd576040517f08c379a00000000000000000000000000000000000000000000000000000000081526004016116b490614fa3565b60405180910390fd5b600073ffffffffffffffffffffffffffffffffffffffff168273ffffffffffffffffffffffffffffffffffffffff160361172c576040517f08c379a000000000000000000000000000000000000000000000000000000000815260040161172390615035565b60405180910390fd5b6117398383836001611f55565b8273ffffffffffffffffffffffffffffffffffffffff1661175982610e25565b73ffffffffffffffffffffffffffffffffffffffff16146117af576040517f08c379a00000000000000000000000000000000000000000000000000000000081526004016117a690614fa3565b60405180910390fd5b6004600082815260200190815260200160002060006101000a81549073ffffffffffffffffffffffffffffffffffffffff02191690556001600360008573ffffffffffffffffffffffffffffffffffffffff1673ffffffffffffffffffffffffffffffffffffffff168152602001908152602001600020600082825403925050819055506001600360008473ffffffffffffffffffffffffffffffffffffffff1673ffffffffffffffffffffffffffffffffffffffff16815260200190815260200160002060008282540192505081905550816002600083815260200190815260200160002060006101000a81548173ffffffffffffffffffffffffffffffffffffffff021916908373ffffffffffffffffffffffffffffffffffffffff160217905550808273ffffffffffffffffffffffffffffffffffffffff168473ffffffffffffffffffffffffffffffffffffffff167fddf252ad1be2c89b69c2b068fc378daa952ba7f163c4a11628f55a4df523b3ef60405160405180910390a461193b8383836001611f67565b505050565b6119518161194c6114f1565b611f6d565b50565b61195e8282610f62565b611a31576001600b600084815260200190815260200160002060000160008373ffffffffffffffffffffffffffffffffffffffff1673ffffffffffffffffffffffffffffffffffffffff16815260200190815260200160002060006101000a81548160ff0219169083151502179055506119d66114f1565b73ffffffffffffffffffffffffffffffffffffffff168173ffffffffffffffffffffffffffffffffffffffff16837f2f8788117e7eff1d82e926ec794901d17c78024a50270940304540a733656f0d60405160405180910390a45b5050565b611a3f8282610f62565b15611b13576000600b600084815260200190815260200160002060000160008373ffffffffffffffffffffffffffffffffffffffff1673ffffffffffffffffffffffffffffffffffffffff16815260200190815260200160002060006101000a81548160ff021916908315150217905550611ab86114f1565b73ffffffffffffffffffffffffffffffffffffffff168173ffffffffffffffffffffffffffffffffffffffff16837ff6391f5c32d9c69d2a47ea670b442974b53935d1edc7fd64eb21e047a839171b60405160405180910390a45b5050565b600081600001549050919050565b6001816000016000828254019250508190555050565b611b55828260405180602001604052806000815250611ff2565b5050565b606060006001611b688461204d565b01905060008167ffffffffffffffff811115611b8757611b86613500565b5b6040519080825280601f01601f191660200182016040528015611bb95781602001600182028036833780820191505090505b509050600082602001820190505b600115611c1c578080600190039150507f3031323334353637383961626364656600000000000000000000000000000000600a86061a8153600a8581611c1057611c0f613a5f565b5b04945060008503611bc7575b819350505050919050565b60006002600083815260200190815260200160002060009054906101000a900473ffffffffffffffffffffffffffffffffffffffff169050919050565b8173ffffffffffffffffffffffffffffffffffffffff168373ffffffffffffffffffffffffffffffffffffffff1603611cd2576040517f08c379a0000000000000000000000000000000000000000000000000000000008152600401611cc9906150a1565b60405180910390fd5b80600560008573ffffffffffffffffffffffffffffffffffffffff1673ffffffffffffffffffffffffffffffffffffffff16815260200190815260200160002060008473ffffffffffffffffffffffffffffffffffffffff1673ffffffffffffffffffffffffffffffffffffffff16815260200190815260200160002060006101000a81548160ff0219169083151502179055508173ffffffffffffffffffffffffffffffffffffffff168373ffffffffffffffffffffffffffffffffffffffff167f17307eab39ab6107e8899845ad3d59bd9653f200f220920489ca2b5937696c3183604051611dc391906130db565b60405180910390a3505050565b611ddb848484611647565b611de7848484846121a0565b611e26576040517f08c379a0000000000000000000000000000000000000000000000000000000008152600401611e1d90615133565b60405180910390fd5b50505050565b6060611e3782612327565b604051602001611e47919061519f565b6040516020818303038152906040529050919050565b6060611e8b848484604051602001611e77939291906153d5565b604051602081830303815290604052612327565b604051602001611e9b91906154aa565b60405160208183030381529060405290509392505050565b6000634906490660e01b7bffffffffffffffffffffffffffffffffffffffffffffffffffffffff1916827bffffffffffffffffffffffffffffffffffffffffffffffffffffffff19161480611f0d5750611f0c8261248a565b5b9050919050565b60008073ffffffffffffffffffffffffffffffffffffffff16611f3683611c27565b73ffffffffffffffffffffffffffffffffffffffff1614159050919050565b611f6184848484612504565b50505050565b50505050565b611f778282610f62565b611fee57611f8481612662565b611f928360001c602061268f565b604051602001611fa3929190615564565b6040516020818303038152906040526040517f08c379a0000000000000000000000000000000000000000000000000000000008152600401611fe59190613186565b60405180910390fd5b5050565b611ffc83836128cb565b61200960008484846121a0565b612048576040517f08c379a000000000000000000000000000000000000000000000000000000000815260040161203f90615133565b60405180910390fd5b505050565b600080600090507a184f03e93ff9f4daa797ed6e38ed64bf6a1f01000000000000000083106120ab577a184f03e93ff9f4daa797ed6e38ed64bf6a1f01000000000000000083816120a1576120a0613a5f565b5b0492506040810190505b6d04ee2d6d415b85acef810000000083106120e8576d04ee2d6d415b85acef810000000083816120de576120dd613a5f565b5b0492506020810190505b662386f26fc10000831061211757662386f26fc10000838161210d5761210c613a5f565b5b0492506010810190505b6305f5e1008310612140576305f5e100838161213657612135613a5f565b5b0492506008810190505b612710831061216557612710838161215b5761215a613a5f565b5b0492506004810190505b60648310612188576064838161217e5761217d613a5f565b5b0492506002810190505b600a8310612197576001810190505b80915050919050565b60006121c18473ffffffffffffffffffffffffffffffffffffffff16612ae8565b1561231a578373ffffffffffffffffffffffffffffffffffffffff1663150b7a026121ea6114f1565b8786866040518563ffffffff1660e01b815260040161220c94939291906155f3565b6020604051808303816000875af192505050801561224857506040513d601f19601f820116820180604052508101906122459190615654565b60015b6122ca573d8060008114612278576040519150601f19603f3d011682016040523d82523d6000602084013e61227d565b606091505b5060008151036122c2576040517f08c379a00000000000000000000000000000000000000000000000000000000081526004016122b990615133565b60405180910390fd5b805181602001fd5b63150b7a0260e01b7bffffffffffffffffffffffffffffffffffffffffffffffffffffffff1916817bffffffffffffffffffffffffffffffffffffffffffffffffffffffff19161491505061231f565b600190505b949350505050565b6060600082510361234957604051806020016040528060008152509050612485565b600060405180606001604052806040815260200161595760409139905060006003600285516123789190613b1d565b6123829190615681565b600461238e91906156b2565b67ffffffffffffffff8111156123a7576123a6613500565b5b6040519080825280601f01601f1916602001820160405280156123d95781602001600182028036833780820191505090505b509050600182016020820185865187015b80821015612445576003820191508151603f8160121c168501518453600184019350603f81600c1c168501518453600184019350603f8160061c168501518453600184019350603f81168501518453600184019350506123ea565b505060038651066001811461246157600281146124745761247c565b603d6001830353603d600283035361247c565b603d60018303535b50505080925050505b919050565b60007f780e9d63000000000000000000000000000000000000000000000000000000007bffffffffffffffffffffffffffffffffffffffffffffffffffffffff1916827bffffffffffffffffffffffffffffffffffffffffffffffffffffffff191614806124fd57506124fc82612b0b565b5b9050919050565b61251084848484612bed565b6001811115612554576040517f08c379a000000000000000000000000000000000000000000000000000000000815260040161254b90615766565b60405180910390fd5b6000829050600073ffffffffffffffffffffffffffffffffffffffff168573ffffffffffffffffffffffffffffffffffffffff160361259b5761259681612bf3565b6125da565b8373ffffffffffffffffffffffffffffffffffffffff168573ffffffffffffffffffffffffffffffffffffffff16146125d9576125d88582612c3c565b5b5b600073ffffffffffffffffffffffffffffffffffffffff168473ffffffffffffffffffffffffffffffffffffffff160361261c5761261781612da9565b61265b565b8473ffffffffffffffffffffffffffffffffffffffff168473ffffffffffffffffffffffffffffffffffffffff161461265a576126598482612e7a565b5b5b5050505050565b60606126888273ffffffffffffffffffffffffffffffffffffffff16601460ff1661268f565b9050919050565b6060600060028360026126a291906156b2565b6126ac9190613b1d565b67ffffffffffffffff8111156126c5576126c4613500565b5b6040519080825280601f01601f1916602001820160405280156126f75781602001600182028036833780820191505090505b5090507f30000000000000000000000000000000000000000000000000000000000000008160008151811061272f5761272e613abf565b5b60200101907effffffffffffffffffffffffffffffffffffffffffffffffffffffffffffff1916908160001a9053507f78000000000000000000000000000000000000000000000000000000000000008160018151811061279357612792613abf565b5b60200101907effffffffffffffffffffffffffffffffffffffffffffffffffffffffffffff1916908160001a905350600060018460026127d391906156b2565b6127dd9190613b1d565b90505b600181111561287d577f3031323334353637383961626364656600000000000000000000000000000000600f86166010811061281f5761281e613abf565b5b1a60f81b82828151811061283657612835613abf565b5b60200101907effffffffffffffffffffffffffffffffffffffffffffffffffffffffffffff1916908160001a905350600485901c94508061287690615786565b90506127e0565b50600084146128c1576040517f08c379a00000000000000000000000000000000000000000000000000000000081526004016128b8906157fb565b60405180910390fd5b8091505092915050565b600073ffffffffffffffffffffffffffffffffffffffff168273ffffffffffffffffffffffffffffffffffffffff160361293a576040517f08c379a000000000000000000000000000000000000000000000000000000000815260040161293190615867565b60405180910390fd5b61294381611f14565b15612983576040517f08c379a000000000000000000000000000000000000000000000000000000000815260040161297a906158d3565b60405180910390fd5b612991600083836001611f55565b61299a81611f14565b156129da576040517f08c379a00000000000000000000000000000000000000000000000000000000081526004016129d1906158d3565b60405180910390fd5b6001600360008473ffffffffffffffffffffffffffffffffffffffff1673ffffffffffffffffffffffffffffffffffffffff16815260200190815260200160002060008282540192505081905550816002600083815260200190815260200160002060006101000a81548173ffffffffffffffffffffffffffffffffffffffff021916908373ffffffffffffffffffffffffffffffffffffffff160217905550808273ffffffffffffffffffffffffffffffffffffffff16600073ffffffffffffffffffffffffffffffffffffffff167fddf252ad1be2c89b69c2b068fc378daa952ba7f163c4a11628f55a4df523b3ef60405160405180910390a4612ae4600083836001611f67565b5050565b6000808273ffffffffffffffffffffffffffffffffffffffff163b119050919050565b60007f80ac58cd000000000000000000000000000000000000000000000000000000007bffffffffffffffffffffffffffffffffffffffffffffffffffffffff1916827bffffffffffffffffffffffffffffffffffffffffffffffffffffffff19161480612bd657507f5b5e139f000000000000000000000000000000000000000000000000000000007bffffffffffffffffffffffffffffffffffffffffffffffffffffffff1916827bffffffffffffffffffffffffffffffffffffffffffffffffffffffff1916145b80612be65750612be582612ef9565b5b9050919050565b50505050565b6008805490506009600083815260200190815260200160002081905550600881908060018154018082558091505060019003906000526020600020016000909190919091505550565b60006001612c4984610eab565b612c5391906158f3565b9050600060076000848152602001908152602001600020549050818114612d38576000600660008673ffffffffffffffffffffffffffffffffffffffff1673ffffffffffffffffffffffffffffffffffffffff168152602001908152602001600020600084815260200190815260200160002054905080600660008773ffffffffffffffffffffffffffffffffffffffff1673ffffffffffffffffffffffffffffffffffffffff168152602001908152602001600020600084815260200190815260200160002081905550816007600083815260200190815260200160002081905550505b6007600084815260200190815260200160002060009055600660008573ffffffffffffffffffffffffffffffffffffffff1673ffffffffffffffffffffffffffffffffffffffff16815260200190815260200160002060008381526020019081526020016000206000905550505050565b60006001600880549050612dbd91906158f3565b9050600060096000848152602001908152602001600020549050600060088381548110612ded57612dec613abf565b5b906000526020600020015490508060088381548110612e0f57612e0e613abf565b5b906000526020600020018190555081600960008381526020019081526020016000208190555060096000858152602001908152602001600020600090556008805480612e5e57612e5d615927565b5b6001900381819060005260206000200160009055905550505050565b6000612e8583610eab565b905081600660008573ffffffffffffffffffffffffffffffffffffffff1673ffffffffffffffffffffffffffffffffffffffff168152602001908152602001600020600083815260200190815260200160002081905550806007600084815260200190815260200160002081905550505050565b60007f01ffc9a7000000000000000000000000000000000000000000000000000000007bffffffffffffffffffffffffffffffffffffffffffffffffffffffff1916827bffffffffffffffffffffffffffffffffffffffffffffffffffffffff1916149050919050565b82805482825590600052602060002090601f01602090048101928215612ff95791602002820160005b83821115612fca57835183826101000a81548160ff021916908360ff1602179055509260200192600101602081600001049283019260010302612f8c565b8015612ff75782816101000a81549060ff0219169055600101602081600001049283019260010302612fca565b505b509050613006919061300a565b5090565b5b8082111561302357600081600090555060010161300b565b5090565b6000604051905090565b600080fd5b600080fd5b60007fffffffff0000000000000000000000000000000000000000000000000000000082169050919050565b6130708161303b565b811461307b57600080fd5b50565b60008135905061308d81613067565b92915050565b6000602082840312156130a9576130a8613031565b5b60006130b78482850161307e565b91505092915050565b60008115159050919050565b6130d5816130c0565b82525050565b60006020820190506130f060008301846130cc565b92915050565b600081519050919050565b600082825260208201905092915050565b60005b83811015613130578082015181840152602081019050613115565b60008484015250505050565b6000601f19601f8301169050919050565b6000613158826130f6565b6131628185613101565b9350613172818560208601613112565b61317b8161313c565b840191505092915050565b600060208201905081810360008301526131a0818461314d565b905092915050565b6000819050919050565b6131bb816131a8565b81146131c657600080fd5b50565b6000813590506131d8816131b2565b92915050565b6000602082840312156131f4576131f3613031565b5b6000613202848285016131c9565b91505092915050565b600073ffffffffffffffffffffffffffffffffffffffff82169050919050565b60006132368261320b565b9050919050565b6132468161322b565b82525050565b6000602082019050613261600083018461323d565b92915050565b6132708161322b565b811461327b57600080fd5b50565b60008135905061328d81613267565b92915050565b600080604083850312156132aa576132a9613031565b5b60006132b88582860161327e565b92505060206132c9858286016131c9565b9150509250929050565b6132dc816131a8565b82525050565b60006020820190506132f760008301846132d3565b92915050565b60008060006060848603121561331657613315613031565b5b60006133248682870161327e565b93505060206133358682870161327e565b9250506040613346868287016131c9565b9150509250925092565b6000819050919050565b61336381613350565b811461336e57600080fd5b50565b6000813590506133808161335a565b92915050565b60006020828403121561339c5761339b613031565b5b60006133aa84828501613371565b91505092915050565b6133bc81613350565b82525050565b60006020820190506133d760008301846133b3565b92915050565b600080604083850312156133f4576133f3613031565b5b600061340285828601613371565b92505060206134138582860161327e565b9150509250929050565b6000806040838503121561343457613433613031565b5b6000613442858286016131c9565b9250506020613453858286016131c9565b9150509250929050565b60006020828403121561347357613472613031565b5b60006134818482850161327e565b91505092915050565b613493816130c0565b811461349e57600080fd5b50565b6000813590506134b08161348a565b92915050565b600080604083850312156134cd576134cc613031565b5b60006134db8582860161327e565b92505060206134ec858286016134a1565b9150509250929050565b600080fd5b600080fd5b7f4e487b7100000000000000000000000000000000000000000000000000000000600052604160045260246000fd5b6135388261313c565b810181811067ffffffffffffffff8211171561355757613556613500565b5b80604052505050565b600061356a613027565b9050613576828261352f565b919050565b600067ffffffffffffffff82111561359657613595613500565b5b61359f8261313c565b9050602081019050919050565b82818337600083830152505050565b60006135ce6135c98461357b565b613560565b9050828152602081018484840111156135ea576135e96134fb565b5b6135f58482856135ac565b509392505050565b600082601f830112613612576136116134f6565b5b81356136228482602086016135bb565b91505092915050565b6000806000806080858703121561364557613644613031565b5b60006136538782880161327e565b94505060206136648782880161327e565b9350506040613675878288016131c9565b925050606085013567ffffffffffffffff81111561369657613695613036565b5b6136a2878288016135fd565b91505092959194509250565b600080604083850312156136c5576136c4613031565b5b60006136d38582860161327e565b92505060206136e48582860161327e565b9150509250929050565b600060ff82169050919050565b613704816136ee565b82525050565b600060208201905061371f60008301846136fb565b92915050565b7f4e487b7100000000000000000000000000000000000000000000000000000000600052602260045260246000fd5b6000600282049050600182168061376c57607f821691505b60208210810361377f5761377e613725565b5b50919050565b7f4552433732313a20617070726f76616c20746f2063757272656e74206f776e6560008201527f7200000000000000000000000000000000000000000000000000000000000000602082015250565b60006137e1602183613101565b91506137ec82613785565b604082019050919050565b60006020820190508181036000830152613810816137d4565b9050919050565b7f4552433732313a20617070726f76652063616c6c6572206973206e6f7420746f60008201527f6b656e206f776e6572206f7220617070726f76656420666f7220616c6c000000602082015250565b6000613873603d83613101565b915061387e82613817565b604082019050919050565b600060208201905081810360008301526138a281613866565b9050919050565b7f4552433732313a2063616c6c6572206973206e6f7420746f6b656e206f776e6560008201527f72206f7220617070726f76656400000000000000000000000000000000000000602082015250565b6000613905602d83613101565b9150613910826138a9565b604082019050919050565b60006020820190508181036000830152613934816138f8565b9050919050565b7f455243373231456e756d657261626c653a206f776e657220696e646578206f7560008201527f74206f6620626f756e6473000000000000000000000000000000000000000000602082015250565b6000613997602b83613101565b91506139a28261393b565b604082019050919050565b600060208201905081810360008301526139c68161398a565b9050919050565b7f416363657373436f6e74726f6c3a2063616e206f6e6c792072656e6f756e636560008201527f20726f6c657320666f722073656c660000000000000000000000000000000000602082015250565b6000613a29602f83613101565b9150613a34826139cd565b604082019050919050565b60006020820190508181036000830152613a5881613a1c565b9050919050565b7f4e487b7100000000000000000000000000000000000000000000000000000000600052601260045260246000fd5b6000613a99826131a8565b9150613aa4836131a8565b925082613ab457613ab3613a5f565b5b828206905092915050565b7f4e487b7100000000000000000000000000000000000000000000000000000000600052603260045260246000fd5b7f4e487b7100000000000000000000000000000000000000000000000000000000600052601160045260246000fd5b6000613b28826131a8565b9150613b33836131a8565b9250828201905080821115613b4b57613b4a613aee565b5b92915050565b6000613b5c826136ee565b915060ff8203613b6f57613b6e613aee565b5b600182019050919050565b600081905092915050565b6000613b90826130f6565b613b9a8185613b7a565b9350613baa818560208601613112565b80840191505092915050565b7f2c00000000000000000000000000000000000000000000000000000000000000815250565b6000613be88286613b85565b9150613bf382613bb6565b600182019150613c038285613b85565b9150613c0e82613bb6565b600182019150613c1e8284613b85565b9150819050949350505050565b60008190508160005260206000209050919050565b60006020601f8301049050919050565b600082821b905092915050565b600060088302613c8d7fffffffffffffffffffffffffffffffffffffffffffffffffffffffffffffffff82613c50565b613c978683613c50565b95508019841693508086168417925050509392505050565b6000819050919050565b6000613cd4613ccf613cca846131a8565b613caf565b6131a8565b9050919050565b6000819050919050565b613cee83613cb9565b613d02613cfa82613cdb565b848454613c5d565b825550505050565b600090565b613d17613d0a565b613d22818484613ce5565b505050565b5b81811015613d4657613d3b600082613d0f565b600181019050613d28565b5050565b601f821115613d8b57613d5c81613c2b565b613d6584613c40565b81016020851015613d74578190505b613d88613d8085613c40565b830182613d27565b50505b505050565b600082821c905092915050565b6000613dae60001984600802613d90565b1980831691505092915050565b6000613dc78383613d9d565b9150826002028217905092915050565b613de0826130f6565b67ffffffffffffffff811115613df957613df8613500565b5b613e038254613754565b613e0e828285613d4a565b600060209050601f831160018114613e415760008415613e2f578287015190505b613e398582613dbb565b865550613ea1565b601f198416613e4f86613c2b565b60005b82811015613e7757848901518255600182019150602085019450602081019050613e52565b86831015613e945784890151613e90601f891682613d9d565b8355505b6001600288020188555050505b505050505050565b7f455243373231456e756d657261626c653a20676c6f62616c20696e646578206f60008201527f7574206f6620626f756e64730000000000000000000000000000000000000000602082015250565b6000613f05602c83613101565b9150613f1082613ea9565b604082019050919050565b60006020820190508181036000830152613f3481613ef8565b9050919050565b7f4552433732313a20696e76616c696420746f6b656e2049440000000000000000600082015250565b6000613f71601883613101565b9150613f7c82613f3b565b602082019050919050565b60006020820190508181036000830152613fa081613f64565b9050919050565b7f4552433732313a2061646472657373207a65726f206973206e6f74206120766160008201527f6c6964206f776e65720000000000000000000000000000000000000000000000602082015250565b6000614003602983613101565b915061400e82613fa7565b604082019050919050565b6000602082019050818103600083015261403281613ff6565b9050919050565b600082825260208201905092915050565b6000815461405781613754565b6140618186614039565b9450600182166000811461407c5760018114614092576140c5565b60ff1983168652811515602002860193506140c5565b61409b85613c2b565b60005b838110156140bd5781548189015260018201915060208101905061409e565b808801955050505b50505092915050565b600081549050919050565b600082825260208201905092915050565b60008190508160005260206000209050919050565b614108816136ee565b82525050565b60008160001c9050919050565b600060ff82169050919050565b600061413b6141368361410e565b61411b565b9050919050565b60008160081c9050919050565b600061416261415d83614142565b61411b565b9050919050565b60008160101c9050919050565b600061418961418483614169565b61411b565b9050919050565b60008160181c9050919050565b60006141b06141ab83614190565b61411b565b9050919050565b60008160201c9050919050565b60006141d76141d2836141b7565b61411b565b9050919050565b60008160281c9050919050565b60006141fe6141f9836141de565b61411b565b9050919050565b60008160301c9050919050565b600061422561422083614205565b61411b565b9050919050565b60008160381c9050919050565b600061424c6142478361422c565b61411b565b9050919050565b60008160401c9050919050565b600061427361426e83614253565b61411b565b9050919050565b60008160481c9050919050565b600061429a6142958361427a565b61411b565b9050919050565b60008160501c9050919050565b60006142c16142bc836142a1565b61411b565b9050919050565b60008160581c9050919050565b60006142e86142e3836142c8565b61411b565b9050919050565b60008160601c9050919050565b600061430f61430a836142ef565b61411b565b9050919050565b60008160681c9050919050565b600061433661433183614316565b61411b565b9050919050565b60008160701c9050919050565b600061435d6143588361433d565b61411b565b9050919050565b60008160781c9050919050565b600061438461437f83614364565b61411b565b9050919050565b60008160801c9050919050565b60006143ab6143a68361438b565b61411b565b9050919050565b60008160881c9050919050565b60006143d26143cd836143b2565b61411b565b9050919050565b60008160901c9050919050565b60006143f96143f4836143d9565b61411b565b9050919050565b60008160981c9050919050565b600061442061441b83614400565b61411b565b9050919050565b60008160a01c9050919050565b600061444761444283614427565b61411b565b9050919050565b60008160a81c9050919050565b600061446e6144698361444e565b61411b565b9050919050565b60008160b01c9050919050565b600061449561449083614475565b61411b565b9050919050565b60008160b81c9050919050565b60006144bc6144b78361449c565b61411b565b9050919050565b60008160c01c9050919050565b60006144e36144de836144c3565b61411b565b9050919050565b60008160c81c9050919050565b600061450a614505836144ea565b61411b565b9050919050565b60008160d01c9050919050565b600061453161452c83614511565b61411b565b9050919050565b60008160d81c9050919050565b600061455861455383614538565b61411b565b9050919050565b60008160e01c9050919050565b600061457f61457a8361455f565b61411b565b9050919050565b60008160e81c9050919050565b60006145a66145a183614586565b61411b565b9050919050565b60008160f01c9050919050565b60006145cd6145c8836145ad565b61411b565b9050919050565b60008160f81c9050919050565b60006145f46145ef836145d4565b61411b565b9050919050565b6000614606826140ce565b61461081856140d9565b93508361461c846140ea565b6000600115614949575b836001602003820110156149485781546146488861464383614128565b6140ff565b6020880197506146608861465b8361414f565b6140ff565b6020880197506146788861467383614176565b6140ff565b6020880197506146908861468b8361419d565b6140ff565b6020880197506146a8886146a3836141c4565b6140ff565b6020880197506146c0886146bb836141eb565b6140ff565b6020880197506146d8886146d383614212565b6140ff565b6020880197506146f0886146eb83614239565b6140ff565b6020880197506147088861470383614260565b6140ff565b6020880197506147208861471b83614287565b6140ff565b60208801975061473888614733836142ae565b6140ff565b6020880197506147508861474b836142d5565b6140ff565b60208801975061476888614763836142fc565b6140ff565b6020880197506147808861477b83614323565b6140ff565b602088019750614798886147938361434a565b6140ff565b6020880197506147b0886147ab83614371565b6140ff565b6020880197506147c8886147c383614398565b6140ff565b6020880197506147e0886147db836143bf565b6140ff565b6020880197506147f8886147f3836143e6565b6140ff565b6020880197506148108861480b8361440d565b6140ff565b6020880197506148288861482383614434565b6140ff565b6020880197506148408861483b8361445b565b6140ff565b6020880197506148588861485383614482565b6140ff565b6020880197506148708861486b836144a9565b6140ff565b60208801975061488888614883836144d0565b6140ff565b6020880197506148a08861489b836144f7565b6140ff565b6020880197506148b8886148b38361451e565b6140ff565b6020880197506148d0886148cb83614545565b6140ff565b6020880197506148e8886148e38361456c565b6140ff565b602088019750614900886148fb83614593565b6140ff565b60208801975061491888614913836145ba565b6140ff565b6020880197506149308861492b836145e1565b6140ff565b60208801975060018301925050602081019050614626565b5b600115614e34578154848210156149795761496c8861496783614128565b6140ff565b6020880197506001820191505b848210156149a0576149938861498e8361414f565b6140ff565b6020880197506001820191505b848210156149c7576149ba886149b583614176565b6140ff565b6020880197506001820191505b848210156149ee576149e1886149dc8361419d565b6140ff565b6020880197506001820191505b84821015614a1557614a0888614a03836141c4565b6140ff565b6020880197506001820191505b84821015614a3c57614a2f88614a2a836141eb565b6140ff565b6020880197506001820191505b84821015614a6357614a5688614a5183614212565b6140ff565b6020880197506001820191505b84821015614a8a57614a7d88614a7883614239565b6140ff565b6020880197506001820191505b84821015614ab157614aa488614a9f83614260565b6140ff565b6020880197506001820191505b84821015614ad857614acb88614ac683614287565b6140ff565b6020880197506001820191505b84821015614aff57614af288614aed836142ae565b6140ff565b6020880197506001820191505b84821015614b2657614b1988614b14836142d5565b6140ff565b6020880197506001820191505b84821015614b4d57614b4088614b3b836142fc565b6140ff565b6020880197506001820191505b84821015614b7457614b6788614b6283614323565b6140ff565b6020880197506001820191505b84821015614b9b57614b8e88614b898361434a565b6140ff565b6020880197506001820191505b84821015614bc257614bb588614bb083614371565b6140ff565b6020880197506001820191505b84821015614be957614bdc88614bd783614398565b6140ff565b6020880197506001820191505b84821015614c1057614c0388614bfe836143bf565b6140ff565b6020880197506001820191505b84821015614c3757614c2a88614c25836143e6565b6140ff565b6020880197506001820191505b84821015614c5e57614c5188614c4c8361440d565b6140ff565b6020880197506001820191505b84821015614c8557614c7888614c7383614434565b6140ff565b6020880197506001820191505b84821015614cac57614c9f88614c9a8361445b565b6140ff565b6020880197506001820191505b84821015614cd357614cc688614cc183614482565b6140ff565b6020880197506001820191505b84821015614cfa57614ced88614ce8836144a9565b6140ff565b6020880197506001820191505b84821015614d2157614d1488614d0f836144d0565b6140ff565b6020880197506001820191505b84821015614d4857614d3b88614d36836144f7565b6140ff565b6020880197506001820191505b84821015614d6f57614d6288614d5d8361451e565b6140ff565b6020880197506001820191505b84821015614d9657614d8988614d8483614545565b6140ff565b6020880197506001820191505b84821015614dbd57614db088614dab8361456c565b6140ff565b6020880197506001820191505b84821015614de457614dd788614dd283614593565b6140ff565b6020880197506001820191505b84821015614e0b57614dfe88614df9836145ba565b6140ff565b6020880197506001820191505b84821015614e3257614e2588614e20836145e1565b6140ff565b6020880197506001820191505b505b8694505050505092915050565b60006040820190508181036000830152614e5b818561404a565b90508181036020830152614e6f81846145fb565b90509392505050565b6000614e8b614e868461357b565b613560565b905082815260208101848484011115614ea757614ea66134fb565b5b614eb2848285613112565b509392505050565b600082601f830112614ecf57614ece6134f6565b5b8151614edf848260208601614e78565b91505092915050565b600060208284031215614efe57614efd613031565b5b600082015167ffffffffffffffff811115614f1c57614f1b613036565b5b614f2884828501614eba565b91505092915050565b7f4552433732313a207472616e736665722066726f6d20696e636f72726563742060008201527f6f776e6572000000000000000000000000000000000000000000000000000000602082015250565b6000614f8d602583613101565b9150614f9882614f31565b604082019050919050565b60006020820190508181036000830152614fbc81614f80565b9050919050565b7f4552433732313a207472616e7366657220746f20746865207a65726f2061646460008201527f7265737300000000000000000000000000000000000000000000000000000000602082015250565b600061501f602483613101565b915061502a82614fc3565b604082019050919050565b6000602082019050818103600083015261504e81615012565b9050919050565b7f4552433732313a20617070726f766520746f2063616c6c657200000000000000600082015250565b600061508b601983613101565b915061509682615055565b602082019050919050565b600060208201905081810360008301526150ba8161507e565b9050919050565b7f4552433732313a207472616e7366657220746f206e6f6e20455243373231526560008201527f63656976657220696d706c656d656e7465720000000000000000000000000000602082015250565b600061511d603283613101565b9150615128826150c1565b604082019050919050565b6000602082019050818103600083015261514c81615110565b9050919050565b7f646174613a696d6167652f7376672b786d6c3b6261736536342c000000000000600082015250565b6000615189601a83613b7a565b915061519482615153565b601a82019050919050565b60006151aa8261517c565b91506151b68284613b85565b915081905092915050565b7f7b00000000000000000000000000000000000000000000000000000000000000600082015250565b60006151f7600183613b7a565b9150615202826151c1565b600182019050919050565b7f226e616d65223a20220000000000000000000000000000000000000000000000600082015250565b6000615243600983613b7a565b915061524e8261520d565b600982019050919050565b7f222c200000000000000000000000000000000000000000000000000000000000600082015250565b600061528f600383613b7a565b915061529a82615259565b600382019050919050565b7f226465736372697074696f6e223a220000000000000000000000000000000000600082015250565b60006152db600f83613b7a565b91506152e6826152a5565b600f82019050919050565b7f22696d616765223a202200000000000000000000000000000000000000000000600082015250565b6000615327600a83613b7a565b9150615332826152f1565b600a82019050919050565b7f2200000000000000000000000000000000000000000000000000000000000000600082015250565b6000615373600183613b7a565b915061537e8261533d565b600182019050919050565b7f7d00000000000000000000000000000000000000000000000000000000000000600082015250565b60006153bf600183613b7a565b91506153ca82615389565b600182019050919050565b60006153e0826151ea565b91506153eb82615236565b91506153f78286613b85565b915061540282615282565b915061540d826152ce565b91506154198285613b85565b915061542482615282565b915061542f8261531a565b915061543b8284613b85565b915061544682615366565b9150615451826153b2565b9150819050949350505050565b7f646174613a6170706c69636174696f6e2f6a736f6e3b6261736536342c000000600082015250565b6000615494601d83613b7a565b915061549f8261545e565b601d82019050919050565b60006154b582615487565b91506154c18284613b85565b915081905092915050565b7f416363657373436f6e74726f6c3a206163636f756e7420000000000000000000600082015250565b6000615502601783613b7a565b915061550d826154cc565b601782019050919050565b7f206973206d697373696e6720726f6c6520000000000000000000000000000000600082015250565b600061554e601183613b7a565b915061555982615518565b601182019050919050565b600061556f826154f5565b915061557b8285613b85565b915061558682615541565b91506155928284613b85565b91508190509392505050565b600081519050919050565b600082825260208201905092915050565b60006155c58261559e565b6155cf81856155a9565b93506155df818560208601613112565b6155e88161313c565b840191505092915050565b6000608082019050615608600083018761323d565b615615602083018661323d565b61562260408301856132d3565b818103606083015261563481846155ba565b905095945050505050565b60008151905061564e81613067565b92915050565b60006020828403121561566a57615669613031565b5b60006156788482850161563f565b91505092915050565b600061568c826131a8565b9150615697836131a8565b9250826156a7576156a6613a5f565b5b828204905092915050565b60006156bd826131a8565b91506156c8836131a8565b92508282026156d6816131a8565b915082820484148315176156ed576156ec613aee565b5b5092915050565b7f455243373231456e756d657261626c653a20636f6e736563757469766520747260008201527f616e7366657273206e6f7420737570706f727465640000000000000000000000602082015250565b6000615750603583613101565b915061575b826156f4565b604082019050919050565b6000602082019050818103600083015261577f81615743565b9050919050565b6000615791826131a8565b9150600082036157a4576157a3613aee565b5b600182039050919050565b7f537472696e67733a20686578206c656e67746820696e73756666696369656e74600082015250565b60006157e5602083613101565b91506157f0826157af565b602082019050919050565b60006020820190508181036000830152615814816157d8565b9050919050565b7f4552433732313a206d696e7420746f20746865207a65726f2061646472657373600082015250565b6000615851602083613101565b915061585c8261581b565b602082019050919050565b6000602082019050818103600083015261588081615844565b9050919050565b7f4552433732313a20746f6b656e20616c7265616479206d696e74656400000000600082015250565b60006158bd601c83613101565b91506158c882615887565b602082019050919050565b600060208201905081810360008301526158ec816158b0565b9050919050565b60006158fe826131a8565b9150615909836131a8565b925082820390508181111561592157615920613aee565b5b92915050565b7f4e487b7100000000000000000000000000000000000000000000000000000000600052603160045260246000fdfe4142434445464748494a4b4c4d4e4f505152535455565758595a6162636465666768696a6b6c6d6e6f707172737475767778797a303132333435363738392b2fa26469706673582212205a4fa315c0d67c456f0ce8ac45c1171aa93503df04ad2c8768a18f78336541e064736f6c63430008130033",
  "libraries": {
    "Encoder": "0x2198b119F9E4B49E6338C19C147c87096E3169c5",
    "SVG": "0xE2419bEDDe902C38ff2D9e9cAD6ca5D34B788840"
  },
  "devdoc": {
    "events": {
      "Approval(address,address,uint256)": {
        "details": "Emitted when `owner` enables `approved` to manage the `tokenId` token."
      },
      "ApprovalForAll(address,address,bool)": {
        "details": "Emitted when `owner` enables or disables (`approved`) `operator` to manage all of its assets."
      },
      "BatchMetadataUpdate(uint256,uint256)": {
        "details": "This event emits when the metadata of a range of tokens is changed. So that the third-party platforms such as NFT market could timely update the images and related attributes of the NFTs."
      },
      "MetadataUpdate(uint256)": {
        "details": "This event emits when the metadata of a token is changed. So that the third-party platforms such as NFT market could timely update the images and related attributes of the NFT."
      },
      "RoleAdminChanged(bytes32,bytes32,bytes32)": {
        "details": "Emitted when `newAdminRole` is set as ``role``'s admin role, replacing `previousAdminRole` `DEFAULT_ADMIN_ROLE` is the starting admin for all roles, despite {RoleAdminChanged} not being emitted signaling this. _Available since v3.1._"
      },
      "RoleGranted(bytes32,address,address)": {
        "details": "Emitted when `account` is granted `role`. `sender` is the account that originated the contract call, an admin role bearer except when using {AccessControl-_setupRole}."
      },
      "RoleRevoked(bytes32,address,address)": {
        "details": "Emitted when `account` is revoked `role`. `sender` is the account that originated the contract call:   - if using `revokeRole`, it is the admin role bearer   - if using `renounceRole`, it is the role bearer (i.e. `account`)"
      },
      "Transfer(address,address,uint256)": {
        "details": "Emitted when `tokenId` token is transferred from `from` to `to`."
      }
    },
    "kind": "dev",
    "methods": {
      "approve(address,uint256)": {
        "details": "See {IERC721-approve}."
      },
      "balanceOf(address)": {
        "details": "See {IERC721-balanceOf}."
      },
      "getApproved(uint256)": {
        "details": "See {IERC721-getApproved}."
      },
      "getNextRandomNumber(uint256)": {
        "params": {
          "nextIndex": "The nextIndex to interate the RNG value by"
        },
        "returns": {
          "_0": "The randon number with an additional index iteration. This shold be used for multiple values in the same block"
        }
      },
      "getNextRandomRange(uint256,uint256)": {
        "params": {
          "max": "The maximum number the random number should be inclusive",
          "nextIndex": "The nextIndex to interate the RNG value by"
        },
        "returns": {
          "_0": "Random number between 0 & max"
        }
      },
      "getRandomBytes()": {
        "details": "Read here for how it works: https://docs.skale.network/tools/skale-specific/random-number-generator"
      },
      "getRandomNumber()": {
        "returns": {
          "_0": "The randon number"
        }
      },
      "getRandomRange(uint256)": {
        "params": {
          "max": "The maximum number the random number should be inclusive"
        },
        "returns": {
          "_0": "Random number between 0 & max"
        }
      },
      "getRoleAdmin(bytes32)": {
        "details": "Returns the admin role that controls `role`. See {grantRole} and {revokeRole}. To change a role's admin, use {_setRoleAdmin}."
      },
      "grantRole(bytes32,address)": {
        "details": "Grants `role` to `account`. If `account` had not been already granted `role`, emits a {RoleGranted} event. Requirements: - the caller must have ``role``'s admin role. May emit a {RoleGranted} event."
      },
      "hasRole(bytes32,address)": {
        "details": "Returns `true` if `account` has been granted `role`."
      },
      "isApprovedForAll(address,address)": {
        "details": "See {IERC721-isApprovedForAll}."
      },
      "name()": {
        "details": "See {IERC721Metadata-name}."
      },
      "ownerOf(uint256)": {
        "details": "See {IERC721-ownerOf}."
      },
      "renounceRole(bytes32,address)": {
        "details": "Revokes `role` from the calling account. Roles are often managed via {grantRole} and {revokeRole}: this function's purpose is to provide a mechanism for accounts to lose their privileges if they are compromised (such as when a trusted device is misplaced). If the calling account had been revoked `role`, emits a {RoleRevoked} event. Requirements: - the caller must be `account`. May emit a {RoleRevoked} event."
      },
      "revokeRole(bytes32,address)": {
        "details": "Revokes `role` from `account`. If `account` had been granted `role`, emits a {RoleRevoked} event. Requirements: - the caller must have ``role``'s admin role. May emit a {RoleRevoked} event."
      },
      "safeTransferFrom(address,address,uint256)": {
        "details": "See {IERC721-safeTransferFrom}."
      },
      "safeTransferFrom(address,address,uint256,bytes)": {
        "details": "See {IERC721-safeTransferFrom}."
      },
      "setApprovalForAll(address,bool)": {
        "details": "See {IERC721-setApprovalForAll}."
      },
      "symbol()": {
        "details": "See {IERC721Metadata-symbol}."
      },
      "tokenByIndex(uint256)": {
        "details": "See {IERC721Enumerable-tokenByIndex}."
      },
      "tokenOfOwnerByIndex(address,uint256)": {
        "details": "See {IERC721Enumerable-tokenOfOwnerByIndex}."
      },
      "totalSupply()": {
        "details": "See {IERC721Enumerable-totalSupply}."
      },
      "transferFrom(address,address,uint256)": {
        "details": "See {IERC721-transferFrom}."
      }
    },
    "version": 1
  },
  "userdoc": {
    "kind": "user",
    "methods": {},
    "version": 1
  },
  "storageLayout": {
    "storage": [
      {
        "astId": 529,
        "contract": "contracts/DynamicNFT.sol:DynamicNFT",
        "label": "_name",
        "offset": 0,
        "slot": "0",
        "type": "t_string_storage"
      },
      {
        "astId": 531,
        "contract": "contracts/DynamicNFT.sol:DynamicNFT",
        "label": "_symbol",
        "offset": 0,
        "slot": "1",
        "type": "t_string_storage"
      },
      {
        "astId": 535,
        "contract": "contracts/DynamicNFT.sol:DynamicNFT",
        "label": "_owners",
        "offset": 0,
        "slot": "2",
        "type": "t_mapping(t_uint256,t_address)"
      },
      {
        "astId": 539,
        "contract": "contracts/DynamicNFT.sol:DynamicNFT",
        "label": "_balances",
        "offset": 0,
        "slot": "3",
        "type": "t_mapping(t_address,t_uint256)"
      },
      {
        "astId": 543,
        "contract": "contracts/DynamicNFT.sol:DynamicNFT",
        "label": "_tokenApprovals",
        "offset": 0,
        "slot": "4",
        "type": "t_mapping(t_uint256,t_address)"
      },
      {
        "astId": 549,
        "contract": "contracts/DynamicNFT.sol:DynamicNFT",
        "label": "_operatorApprovals",
        "offset": 0,
        "slot": "5",
        "type": "t_mapping(t_address,t_mapping(t_address,t_bool))"
      },
      {
        "astId": 1579,
        "contract": "contracts/DynamicNFT.sol:DynamicNFT",
        "label": "_ownedTokens",
        "offset": 0,
        "slot": "6",
        "type": "t_mapping(t_address,t_mapping(t_uint256,t_uint256))"
      },
      {
        "astId": 1583,
        "contract": "contracts/DynamicNFT.sol:DynamicNFT",
        "label": "_ownedTokensIndex",
        "offset": 0,
        "slot": "7",
        "type": "t_mapping(t_uint256,t_uint256)"
      },
      {
        "astId": 1586,
        "contract": "contracts/DynamicNFT.sol:DynamicNFT",
        "label": "_allTokens",
        "offset": 0,
        "slot": "8",
        "type": "t_array(t_uint256)dyn_storage"
      },
      {
        "astId": 1590,
        "contract": "contracts/DynamicNFT.sol:DynamicNFT",
        "label": "_allTokensIndex",
        "offset": 0,
        "slot": "9",
        "type": "t_mapping(t_uint256,t_uint256)"
      },
      {
        "astId": 1934,
        "contract": "contracts/DynamicNFT.sol:DynamicNFT",
        "label": "_tokenURIs",
        "offset": 0,
        "slot": "10",
        "type": "t_mapping(t_uint256,t_string_storage)"
      },
      {
        "astId": 111,
        "contract": "contracts/DynamicNFT.sol:DynamicNFT",
        "label": "_roles",
        "offset": 0,
        "slot": "11",
        "type": "t_mapping(t_bytes32,t_struct(RoleData)106_storage)"
      },
      {
        "astId": 3874,
        "contract": "contracts/DynamicNFT.sol:DynamicNFT",
        "label": "tokenIdCounter",
        "offset": 0,
        "slot": "12",
        "type": "t_struct(Counter)2537_storage"
      },
      {
        "astId": 3878,
        "contract": "contracts/DynamicNFT.sol:DynamicNFT",
        "label": "colors",
        "offset": 0,
        "slot": "13",
        "type": "t_mapping(t_uint256,t_string_storage)"
      },
      {
        "astId": 3883,
        "contract": "contracts/DynamicNFT.sol:DynamicNFT",
        "label": "speeds",
        "offset": 0,
        "slot": "14",
        "type": "t_mapping(t_uint256,t_array(t_uint8)dyn_storage)"
      }
    ],
    "types": {
      "t_address": {
        "encoding": "inplace",
        "label": "address",
        "numberOfBytes": "20"
      },
      "t_array(t_uint256)dyn_storage": {
        "base": "t_uint256",
        "encoding": "dynamic_array",
        "label": "uint256[]",
        "numberOfBytes": "32"
      },
      "t_array(t_uint8)dyn_storage": {
        "base": "t_uint8",
        "encoding": "dynamic_array",
        "label": "uint8[]",
        "numberOfBytes": "32"
      },
      "t_bool": {
        "encoding": "inplace",
        "label": "bool",
        "numberOfBytes": "1"
      },
      "t_bytes32": {
        "encoding": "inplace",
        "label": "bytes32",
        "numberOfBytes": "32"
      },
      "t_mapping(t_address,t_bool)": {
        "encoding": "mapping",
        "key": "t_address",
        "label": "mapping(address => bool)",
        "numberOfBytes": "32",
        "value": "t_bool"
      },
      "t_mapping(t_address,t_mapping(t_address,t_bool))": {
        "encoding": "mapping",
        "key": "t_address",
        "label": "mapping(address => mapping(address => bool))",
        "numberOfBytes": "32",
        "value": "t_mapping(t_address,t_bool)"
      },
      "t_mapping(t_address,t_mapping(t_uint256,t_uint256))": {
        "encoding": "mapping",
        "key": "t_address",
        "label": "mapping(address => mapping(uint256 => uint256))",
        "numberOfBytes": "32",
        "value": "t_mapping(t_uint256,t_uint256)"
      },
      "t_mapping(t_address,t_uint256)": {
        "encoding": "mapping",
        "key": "t_address",
        "label": "mapping(address => uint256)",
        "numberOfBytes": "32",
        "value": "t_uint256"
      },
      "t_mapping(t_bytes32,t_struct(RoleData)106_storage)": {
        "encoding": "mapping",
        "key": "t_bytes32",
        "label": "mapping(bytes32 => struct AccessControl.RoleData)",
        "numberOfBytes": "32",
        "value": "t_struct(RoleData)106_storage"
      },
      "t_mapping(t_uint256,t_address)": {
        "encoding": "mapping",
        "key": "t_uint256",
        "label": "mapping(uint256 => address)",
        "numberOfBytes": "32",
        "value": "t_address"
      },
      "t_mapping(t_uint256,t_array(t_uint8)dyn_storage)": {
        "encoding": "mapping",
        "key": "t_uint256",
        "label": "mapping(uint256 => uint8[])",
        "numberOfBytes": "32",
        "value": "t_array(t_uint8)dyn_storage"
      },
      "t_mapping(t_uint256,t_string_storage)": {
        "encoding": "mapping",
        "key": "t_uint256",
        "label": "mapping(uint256 => string)",
        "numberOfBytes": "32",
        "value": "t_string_storage"
      },
      "t_mapping(t_uint256,t_uint256)": {
        "encoding": "mapping",
        "key": "t_uint256",
        "label": "mapping(uint256 => uint256)",
        "numberOfBytes": "32",
        "value": "t_uint256"
      },
      "t_string_storage": {
        "encoding": "bytes",
        "label": "string",
        "numberOfBytes": "32"
      },
      "t_struct(Counter)2537_storage": {
        "encoding": "inplace",
        "label": "struct Counters.Counter",
        "members": [
          {
            "astId": 2536,
            "contract": "contracts/DynamicNFT.sol:DynamicNFT",
            "label": "_value",
            "offset": 0,
            "slot": "0",
            "type": "t_uint256"
          }
        ],
        "numberOfBytes": "32"
      },
      "t_struct(RoleData)106_storage": {
        "encoding": "inplace",
        "label": "struct AccessControl.RoleData",
        "members": [
          {
            "astId": 103,
            "contract": "contracts/DynamicNFT.sol:DynamicNFT",
            "label": "members",
            "offset": 0,
            "slot": "0",
            "type": "t_mapping(t_address,t_bool)"
          },
          {
            "astId": 105,
            "contract": "contracts/DynamicNFT.sol:DynamicNFT",
            "label": "adminRole",
            "offset": 0,
            "slot": "1",
            "type": "t_bytes32"
          }
        ],
        "numberOfBytes": "64"
      },
      "t_uint256": {
        "encoding": "inplace",
        "label": "uint256",
        "numberOfBytes": "32"
      },
      "t_uint8": {
        "encoding": "inplace",
        "label": "uint8",
        "numberOfBytes": "1"
      }
    }
  }
}