{
  "address": "0xb62D31166F765255dd9161Afb1e7fd1fFD178cd1",
  "abi": [
    {
      "inputs": [],
      "stateMutability": "nonpayable",
      "type": "constructor"
    },
    {
      "anonymous": false,
      "inputs": [
        {
          "indexed": true,
          "internalType": "address",
          "name": "owner",
          "type": "address"
        },
        {
          "indexed": true,
          "internalType": "address",
          "name": "approved",
          "type": "address"
        },
        {
          "indexed": true,
          "internalType": "uint256",
          "name": "tokenId",
          "type": "uint256"
        }
      ],
      "name": "Approval",
      "type": "event"
    },
    {
      "anonymous": false,
      "inputs": [
        {
          "indexed": true,
          "internalType": "address",
          "name": "owner",
          "type": "address"
        },
        {
          "indexed": true,
          "internalType": "address",
          "name": "operator",
          "type": "address"
        },
        {
          "indexed": false,
          "internalType": "bool",
          "name": "approved",
          "type": "bool"
        }
      ],
      "name": "ApprovalForAll",
      "type": "event"
    },
    {
      "anonymous": false,
      "inputs": [
        {
          "indexed": false,
          "internalType": "uint256",
          "name": "_fromTokenId",
          "type": "uint256"
        },
        {
          "indexed": false,
          "internalType": "uint256",
          "name": "_toTokenId",
          "type": "uint256"
        }
      ],
      "name": "BatchMetadataUpdate",
      "type": "event"
    },
    {
      "anonymous": false,
      "inputs": [
        {
          "indexed": false,
          "internalType": "uint256",
          "name": "_tokenId",
          "type": "uint256"
        }
      ],
      "name": "MetadataUpdate",
      "type": "event"
    },
    {
      "anonymous": false,
      "inputs": [
        {
          "indexed": true,
          "internalType": "bytes32",
          "name": "role",
          "type": "bytes32"
        },
        {
          "indexed": true,
          "internalType": "bytes32",
          "name": "previousAdminRole",
          "type": "bytes32"
        },
        {
          "indexed": true,
          "internalType": "bytes32",
          "name": "newAdminRole",
          "type": "bytes32"
        }
      ],
      "name": "RoleAdminChanged",
      "type": "event"
    },
    {
      "anonymous": false,
      "inputs": [
        {
          "indexed": true,
          "internalType": "bytes32",
          "name": "role",
          "type": "bytes32"
        },
        {
          "indexed": true,
          "internalType": "address",
          "name": "account",
          "type": "address"
        },
        {
          "indexed": true,
          "internalType": "address",
          "name": "sender",
          "type": "address"
        }
      ],
      "name": "RoleGranted",
      "type": "event"
    },
    {
      "anonymous": false,
      "inputs": [
        {
          "indexed": true,
          "internalType": "bytes32",
          "name": "role",
          "type": "bytes32"
        },
        {
          "indexed": true,
          "internalType": "address",
          "name": "account",
          "type": "address"
        },
        {
          "indexed": true,
          "internalType": "address",
          "name": "sender",
          "type": "address"
        }
      ],
      "name": "RoleRevoked",
      "type": "event"
    },
    {
      "anonymous": false,
      "inputs": [
        {
          "indexed": true,
          "internalType": "address",
          "name": "from",
          "type": "address"
        },
        {
          "indexed": true,
          "internalType": "address",
          "name": "to",
          "type": "address"
        },
        {
          "indexed": true,
          "internalType": "uint256",
          "name": "tokenId",
          "type": "uint256"
        }
      ],
      "name": "Transfer",
      "type": "event"
    },
    {
      "inputs": [],
      "name": "DEFAULT_ADMIN_ROLE",
      "outputs": [
        {
          "internalType": "bytes32",
          "name": "",
          "type": "bytes32"
        }
      ],
      "stateMutability": "view",
      "type": "function"
    },
    {
      "inputs": [],
      "name": "MINTER_ROLE",
      "outputs": [
        {
          "internalType": "bytes32",
          "name": "",
          "type": "bytes32"
        }
      ],
      "stateMutability": "view",
      "type": "function"
    },
    {
      "inputs": [
        {
          "internalType": "address",
          "name": "to",
          "type": "address"
        },
        {
          "internalType": "uint256",
          "name": "tokenId",
          "type": "uint256"
        }
      ],
      "name": "approve",
      "outputs": [],
      "stateMutability": "nonpayable",
      "type": "function"
    },
    {
      "inputs": [
        {
          "internalType": "address",
          "name": "owner",
          "type": "address"
        }
      ],
      "name": "balanceOf",
      "outputs": [
        {
          "internalType": "uint256",
          "name": "",
          "type": "uint256"
        }
      ],
      "stateMutability": "view",
      "type": "function"
    },
    {
      "inputs": [
        {
          "internalType": "uint256",
          "name": "",
          "type": "uint256"
        }
      ],
      "name": "colors",
      "outputs": [
        {
          "internalType": "string",
          "name": "",
          "type": "string"
        }
      ],
      "stateMutability": "view",
      "type": "function"
    },
    {
      "inputs": [
        {
          "internalType": "uint256",
          "name": "tokenId",
          "type": "uint256"
        }
      ],
      "name": "getApproved",
      "outputs": [
        {
          "internalType": "address",
          "name": "",
          "type": "address"
        }
      ],
      "stateMutability": "view",
      "type": "function"
    },
    {
      "inputs": [
        {
          "internalType": "uint256",
          "name": "nextIndex",
          "type": "uint256"
        }
      ],
      "name": "getNextRandomNumber",
      "outputs": [
        {
          "internalType": "uint256",
          "name": "",
          "type": "uint256"
        }
      ],
      "stateMutability": "view",
      "type": "function"
    },
    {
      "inputs": [
        {
          "internalType": "uint256",
          "name": "nextIndex",
          "type": "uint256"
        },
        {
          "internalType": "uint256",
          "name": "max",
          "type": "uint256"
        }
      ],
      "name": "getNextRandomRange",
      "outputs": [
        {
          "internalType": "uint256",
          "name": "",
          "type": "uint256"
        }
      ],
      "stateMutability": "view",
      "type": "function"
    },
    {
      "inputs": [],
      "name": "getRandomBytes",
      "outputs": [
        {
          "internalType": "bytes32",
          "name": "addr",
          "type": "bytes32"
        }
      ],
      "stateMutability": "view",
      "type": "function"
    },
    {
      "inputs": [],
      "name": "getRandomNumber",
      "outputs": [
        {
          "internalType": "uint256",
          "name": "",
          "type": "uint256"
        }
      ],
      "stateMutability": "view",
      "type": "function"
    },
    {
      "inputs": [
        {
          "internalType": "uint256",
          "name": "max",
          "type": "uint256"
        }
      ],
      "name": "getRandomRange",
      "outputs": [
        {
          "internalType": "uint256",
          "name": "",
          "type": "uint256"
        }
      ],
      "stateMutability": "view",
      "type": "function"
    },
    {
      "inputs": [
        {
          "internalType": "bytes32",
          "name": "role",
          "type": "bytes32"
        }
      ],
      "name": "getRoleAdmin",
      "outputs": [
        {
          "internalType": "bytes32",
          "name": "",
          "type": "bytes32"
        }
      ],
      "stateMutability": "view",
      "type": "function"
    },
    {
      "inputs": [
        {
          "internalType": "bytes32",
          "name": "role",
          "type": "bytes32"
        },
        {
          "internalType": "address",
          "name": "account",
          "type": "address"
        }
      ],
      "name": "grantRole",
      "outputs": [],
      "stateMutability": "nonpayable",
      "type": "function"
    },
    {
      "inputs": [
        {
          "internalType": "bytes32",
          "name": "role",
          "type": "bytes32"
        },
        {
          "internalType": "address",
          "name": "account",
          "type": "address"
        }
      ],
      "name": "hasRole",
      "outputs": [
        {
          "internalType": "bool",
          "name": "",
          "type": "bool"
        }
      ],
      "stateMutability": "view",
      "type": "function"
    },
    {
      "inputs": [
        {
          "internalType": "address",
          "name": "owner",
          "type": "address"
        },
        {
          "internalType": "address",
          "name": "operator",
          "type": "address"
        }
      ],
      "name": "isApprovedForAll",
      "outputs": [
        {
          "internalType": "bool",
          "name": "",
          "type": "bool"
        }
      ],
      "stateMutability": "view",
      "type": "function"
    },
    {
      "inputs": [],
      "name": "name",
      "outputs": [
        {
          "internalType": "string",
          "name": "",
          "type": "string"
        }
      ],
      "stateMutability": "view",
      "type": "function"
    },
    {
      "inputs": [
        {
          "internalType": "uint256",
          "name": "tokenId",
          "type": "uint256"
        }
      ],
      "name": "ownerOf",
      "outputs": [
        {
          "internalType": "address",
          "name": "",
          "type": "address"
        }
      ],
      "stateMutability": "view",
      "type": "function"
    },
    {
      "inputs": [
        {
          "internalType": "bytes32",
          "name": "role",
          "type": "bytes32"
        },
        {
          "internalType": "address",
          "name": "account",
          "type": "address"
        }
      ],
      "name": "renounceRole",
      "outputs": [],
      "stateMutability": "nonpayable",
      "type": "function"
    },
    {
      "inputs": [
        {
          "internalType": "bytes32",
          "name": "role",
          "type": "bytes32"
        },
        {
          "internalType": "address",
          "name": "account",
          "type": "address"
        }
      ],
      "name": "revokeRole",
      "outputs": [],
      "stateMutability": "nonpayable",
      "type": "function"
    },
    {
      "inputs": [
        {
          "internalType": "address",
          "name": "to",
          "type": "address"
        }
      ],
      "name": "safeMint",
      "outputs": [],
      "stateMutability": "nonpayable",
      "type": "function"
    },
    {
      "inputs": [
        {
          "internalType": "address",
          "name": "from",
          "type": "address"
        },
        {
          "internalType": "address",
          "name": "to",
          "type": "address"
        },
        {
          "internalType": "uint256",
          "name": "tokenId",
          "type": "uint256"
        }
      ],
      "name": "safeTransferFrom",
      "outputs": [],
      "stateMutability": "nonpayable",
      "type": "function"
    },
    {
      "inputs": [
        {
          "internalType": "address",
          "name": "from",
          "type": "address"
        },
        {
          "internalType": "address",
          "name": "to",
          "type": "address"
        },
        {
          "internalType": "uint256",
          "name": "tokenId",
          "type": "uint256"
        },
        {
          "internalType": "bytes",
          "name": "data",
          "type": "bytes"
        }
      ],
      "name": "safeTransferFrom",
      "outputs": [],
      "stateMutability": "nonpayable",
      "type": "function"
    },
    {
      "inputs": [
        {
          "internalType": "address",
          "name": "operator",
          "type": "address"
        },
        {
          "internalType": "bool",
          "name": "approved",
          "type": "bool"
        }
      ],
      "name": "setApprovalForAll",
      "outputs": [],
      "stateMutability": "nonpayable",
      "type": "function"
    },
    {
      "inputs": [
        {
          "internalType": "uint256",
          "name": "",
          "type": "uint256"
        },
        {
          "internalType": "uint256",
          "name": "",
          "type": "uint256"
        }
      ],
      "name": "speeds",
      "outputs": [
        {
          "internalType": "uint8",
          "name": "",
          "type": "uint8"
        }
      ],
      "stateMutability": "view",
      "type": "function"
    },
    {
      "inputs": [
        {
          "internalType": "bytes4",
          "name": "interfaceId",
          "type": "bytes4"
        }
      ],
      "name": "supportsInterface",
      "outputs": [
        {
          "internalType": "bool",
          "name": "",
          "type": "bool"
        }
      ],
      "stateMutability": "view",
      "type": "function"
    },
    {
      "inputs": [],
      "name": "symbol",
      "outputs": [
        {
          "internalType": "string",
          "name": "",
          "type": "string"
        }
      ],
      "stateMutability": "view",
      "type": "function"
    },
    {
      "inputs": [
        {
          "internalType": "uint256",
          "name": "index",
          "type": "uint256"
        }
      ],
      "name": "tokenByIndex",
      "outputs": [
        {
          "internalType": "uint256",
          "name": "",
          "type": "uint256"
        }
      ],
      "stateMutability": "view",
      "type": "function"
    },
    {
      "inputs": [],
      "name": "tokenIdCounter",
      "outputs": [
        {
          "internalType": "uint256",
          "name": "_value",
          "type": "uint256"
        }
      ],
      "stateMutability": "view",
      "type": "function"
    },
    {
      "inputs": [
        {
          "internalType": "address",
          "name": "owner",
          "type": "address"
        },
        {
          "internalType": "uint256",
          "name": "index",
          "type": "uint256"
        }
      ],
      "name": "tokenOfOwnerByIndex",
      "outputs": [
        {
          "internalType": "uint256",
          "name": "",
          "type": "uint256"
        }
      ],
      "stateMutability": "view",
      "type": "function"
    },
    {
      "inputs": [
        {
          "internalType": "uint256",
          "name": "tokenId",
          "type": "uint256"
        }
      ],
      "name": "tokenURI",
      "outputs": [
        {
          "internalType": "string",
          "name": "",
          "type": "string"
        }
      ],
      "stateMutability": "view",
      "type": "function"
    },
    {
      "inputs": [],
      "name": "totalSupply",
      "outputs": [
        {
          "internalType": "uint256",
          "name": "",
          "type": "uint256"
        }
      ],
      "stateMutability": "view",
      "type": "function"
    },
    {
      "inputs": [
        {
          "internalType": "address",
          "name": "from",
          "type": "address"
        },
        {
          "internalType": "address",
          "name": "to",
          "type": "address"
        },
        {
          "internalType": "uint256",
          "name": "tokenId",
          "type": "uint256"
        }
      ],
      "name": "transferFrom",
      "outputs": [],
      "stateMutability": "nonpayable",
      "type": "function"
    }
  ],
  "transactionHash": "0xca8d6b9724cc2199048ebdf4faa2a91a9a6e8eea54825032f31c98b8cf59baa7",
  "args": [],
  "numDeployments": 1,
  "solcInputHash": "5f49dcb0793642f32b53b908c5ef57c0",
  "bytecode": "0x60806040523480156200001157600080fd5b506040518060400160405280600a81526020017f44796e616d69634e4654000000000000000000000000000000000000000000008152506040518060400160405280600481526020017f444e46540000000000000000000000000000000000000000000000000000000081525081600090816200008f9190620004d0565b508060019081620000a19190620004d0565b505050620000b96000801b33620000f160201b60201c565b620000eb7f9f2df0fed2c77648de5860a4cc508cd0818c85b8b8a1ab4ceeef8d981c8956a633620000f160201b60201c565b620005b7565b620001038282620001e360201b60201c565b620001df576001600b600084815260200190815260200160002060000160008373ffffffffffffffffffffffffffffffffffffffff1673ffffffffffffffffffffffffffffffffffffffff16815260200190815260200160002060006101000a81548160ff021916908315150217905550620001846200024e60201b60201c565b73ffffffffffffffffffffffffffffffffffffffff168173ffffffffffffffffffffffffffffffffffffffff16837f2f8788117e7eff1d82e926ec794901d17c78024a50270940304540a733656f0d60405160405180910390a45b5050565b6000600b600084815260200190815260200160002060000160008373ffffffffffffffffffffffffffffffffffffffff1673ffffffffffffffffffffffffffffffffffffffff16815260200190815260200160002060009054906101000a900460ff16905092915050565b600033905090565b600081519050919050565b7f4e487b7100000000000000000000000000000000000000000000000000000000600052604160045260246000fd5b7f4e487b7100000000000000000000000000000000000000000000000000000000600052602260045260246000fd5b60006002820490506001821680620002d857607f821691505b602082108103620002ee57620002ed62000290565b5b50919050565b60008190508160005260206000209050919050565b60006020601f8301049050919050565b600082821b905092915050565b600060088302620003587fffffffffffffffffffffffffffffffffffffffffffffffffffffffffffffffff8262000319565b62000364868362000319565b95508019841693508086168417925050509392505050565b6000819050919050565b6000819050919050565b6000620003b1620003ab620003a5846200037c565b62000386565b6200037c565b9050919050565b6000819050919050565b620003cd8362000390565b620003e5620003dc82620003b8565b84845462000326565b825550505050565b600090565b620003fc620003ed565b62000409818484620003c2565b505050565b5b81811015620004315762000425600082620003f2565b6001810190506200040f565b5050565b601f82111562000480576200044a81620002f4565b620004558462000309565b8101602085101562000465578190505b6200047d620004748562000309565b8301826200040e565b50505b505050565b600082821c905092915050565b6000620004a56000198460080262000485565b1980831691505092915050565b6000620004c0838362000492565b9150826002028217905092915050565b620004db8262000256565b67ffffffffffffffff811115620004f757620004f662000261565b5b620005038254620002bf565b6200051082828562000435565b600060209050601f83116001811462000548576000841562000533578287015190505b6200053f8582620004b2565b865550620005af565b601f1984166200055886620002f4565b60005b8281101562000582578489015182556001820191506020850194506020810190506200055b565b86831015620005a257848901516200059e601f89168262000492565b8355505b6001600288020188555050505b505050505050565b61460c80620005c76000396000f3fe608060405234801561001057600080fd5b50600436106101f05760003560e01c806391d148541161010f578063bd11f69d116100a2578063d547741f11610071578063d547741f14610617578063dbdff2c114610633578063e985e9c514610651578063ec4d5ce214610681576101f0565b8063bd11f69d14610569578063c46e63f414610599578063c87b56dd146105c9578063d5391393146105f9576101f0565b8063a217fddf116100de578063a217fddf146104f5578063a22cb46514610513578063b88d4fde1461052f578063ba23ec8e1461054b576101f0565b806391d148541461045957806395d89b411461048957806395fa9135146104a757806398bdf6f5146104d7576101f0565b80632f745c591161018757806342842e0e1161015657806342842e0e146103ad5780634f6ccce7146103c95780636352211e146103f957806370a0823114610429576101f0565b80632f745c591461031557806336568abe146103455780633c051a921461036157806340d097c314610391576101f0565b806318160ddd116101c357806318160ddd1461028f57806323b872dd146102ad578063248a9ca3146102c95780632f2ff15d146102f9576101f0565b806301ffc9a7146101f557806306fdde0314610225578063081812fc14610243578063095ea7b314610273575b600080fd5b61020f600480360381019061020a9190612f31565b6106b1565b60405161021c9190612f79565b60405180910390f35b61022d6106c3565b60405161023a9190613024565b60405180910390f35b61025d6004803603810190610258919061307c565b610755565b60405161026a91906130ea565b60405180910390f35b61028d60048036038101906102889190613131565b61079b565b005b6102976108b2565b6040516102a49190613180565b60405180910390f35b6102c760048036038101906102c2919061319b565b6108bf565b005b6102e360048036038101906102de9190613224565b61091f565b6040516102f09190613260565b60405180910390f35b610313600480360381019061030e919061327b565b61093f565b005b61032f600480360381019061032a9190613131565b610960565b60405161033c9190613180565b60405180910390f35b61035f600480360381019061035a919061327b565b610a05565b005b61037b600480360381019061037691906132bb565b610a88565b6040516103889190613180565b60405180910390f35b6103ab60048036038101906103a691906132fb565b610ad0565b005b6103c760048036038101906103c2919061319b565b610d73565b005b6103e360048036038101906103de919061307c565b610d93565b6040516103f09190613180565b60405180910390f35b610413600480360381019061040e919061307c565b610e04565b60405161042091906130ea565b60405180910390f35b610443600480360381019061043e91906132fb565b610e8a565b6040516104509190613180565b60405180910390f35b610473600480360381019061046e919061327b565b610f41565b6040516104809190612f79565b60405180910390f35b610491610fac565b60405161049e9190613024565b60405180910390f35b6104c160048036038101906104bc919061307c565b61103e565b6040516104ce9190613180565b60405180910390f35b6104df61107a565b6040516104ec9190613180565b60405180910390f35b6104fd611086565b60405161050a9190613260565b60405180910390f35b61052d60048036038101906105289190613354565b61108d565b005b610549600480360381019061054491906134c9565b6110a3565b005b610553611105565b6040516105609190613260565b60405180910390f35b610583600480360381019061057e919061307c565b611127565b6040516105909190613024565b60405180910390f35b6105b360048036038101906105ae919061307c565b6111c7565b6040516105c09190613180565b60405180910390f35b6105e360048036038101906105de919061307c565b6111e3565b6040516105f09190613024565b60405180910390f35b6106016111f5565b60405161060e9190613260565b60405180910390f35b610631600480360381019061062c919061327b565b611219565b005b61063b61123a565b6040516106489190613180565b60405180910390f35b61066b6004803603810190610666919061354c565b61124c565b6040516106789190612f79565b60405180910390f35b61069b600480360381019061069691906132bb565b6112e0565b6040516106a891906135a8565b60405180910390f35b60006106bc82611323565b9050919050565b6060600080546106d2906135f2565b80601f01602080910402602001604051908101604052809291908181526020018280546106fe906135f2565b801561074b5780601f106107205761010080835404028352916020019161074b565b820191906000526020600020905b81548152906001019060200180831161072e57829003601f168201915b5050505050905090565b60006107608261139d565b6004600083815260200190815260200160002060009054906101000a900473ffffffffffffffffffffffffffffffffffffffff169050919050565b60006107a682610e04565b90508073ffffffffffffffffffffffffffffffffffffffff168373ffffffffffffffffffffffffffffffffffffffff1603610816576040517f08c379a000000000000000000000000000000000000000000000000000000000815260040161080d90613695565b60405180910390fd5b8073ffffffffffffffffffffffffffffffffffffffff166108356113e8565b73ffffffffffffffffffffffffffffffffffffffff16148061086457506108638161085e6113e8565b61124c565b5b6108a3576040517f08c379a000000000000000000000000000000000000000000000000000000000815260040161089a90613727565b60405180910390fd5b6108ad83836113f0565b505050565b6000600880549050905090565b6108d06108ca6113e8565b826114a9565b61090f576040517f08c379a0000000000000000000000000000000000000000000000000000000008152600401610906906137b9565b60405180910390fd5b61091a83838361153e565b505050565b6000600b6000838152602001908152602001600020600101549050919050565b6109488261091f565b61095181611837565b61095b838361184b565b505050565b600061096b83610e8a565b82106109ac576040517f08c379a00000000000000000000000000000000000000000000000000000000081526004016109a39061384b565b60405180910390fd5b600660008473ffffffffffffffffffffffffffffffffffffffff1673ffffffffffffffffffffffffffffffffffffffff168152602001908152602001600020600083815260200190815260200160002054905092915050565b610a0d6113e8565b73ffffffffffffffffffffffffffffffffffffffff168173ffffffffffffffffffffffffffffffffffffffff1614610a7a576040517f08c379a0000000000000000000000000000000000000000000000000000000008152600401610a71906138dd565b60405180910390fd5b610a84828261192c565b5050565b60008183610a9461123a565b17604051602001610aa59190613180565b6040516020818303038152906040528051906020012060001c610ac8919061392c565b905092915050565b7f9f2df0fed2c77648de5860a4cc508cd0818c85b8b8a1ab4ceeef8d981c8956a6610afa81611837565b6000610b06600c611a0e565b9050610b12600c611a1c565b610b1c8382611a32565b60006006905060008160ff1667ffffffffffffffff811115610b4157610b4061339e565b5b604051908082528060200260200182016040528015610b6f5781602001602082028036833780820191505090505b50905060005b8260ff168160ff161015610c245760038160ff161015610bcc57610b9d8160ff1660ff610a88565b828260ff1681518110610bb357610bb261395d565b5b602002602001019060ff16908160ff1681525050610c11565b610bda8160ff166024610a88565b6001610be691906139bb565b828260ff1681518110610bfc57610bfb61395d565b5b602002602001019060ff16908160ff16815250505b8080610c1c906139ef565b915050610b75565b5080600081518110610c3957610c3861395d565b5b602002602001015181600181518110610c5557610c5461395d565b5b602002602001015182600281518110610c7157610c7061395d565b5b6020026020010151604051602001610c8b93929190613aa5565b604051602081830303815290604052600d6000610ca8600c611a0e565b81526020019081526020016000209081610cc29190613ca4565b50604051806060016040528082600381518110610ce257610ce161395d565b5b602002602001015160ff1660ff16815260200182600481518110610d0957610d0861395d565b5b602002602001015160ff1660ff16815260200182600581518110610d3057610d2f61395d565b5b602002602001015160ff1660ff16815250600e6000610d4f600c611a0e565b8152602001908152602001600020906003610d6b929190612e01565b505050505050565b610d8e838383604051806020016040528060008152506110a3565b505050565b6000610d9d6108b2565b8210610dde576040517f08c379a0000000000000000000000000000000000000000000000000000000008152600401610dd590613de8565b60405180910390fd5b60088281548110610df257610df161395d565b5b90600052602060002001549050919050565b600080610e1083611a50565b9050600073ffffffffffffffffffffffffffffffffffffffff168173ffffffffffffffffffffffffffffffffffffffff1603610e81576040517f08c379a0000000000000000000000000000000000000000000000000000000008152600401610e7890613e54565b60405180910390fd5b80915050919050565b60008073ffffffffffffffffffffffffffffffffffffffff168273ffffffffffffffffffffffffffffffffffffffff1603610efa576040517f08c379a0000000000000000000000000000000000000000000000000000000008152600401610ef190613ee6565b60405180910390fd5b600360008373ffffffffffffffffffffffffffffffffffffffff1673ffffffffffffffffffffffffffffffffffffffff168152602001908152602001600020549050919050565b6000600b600084815260200190815260200160002060000160008373ffffffffffffffffffffffffffffffffffffffff1673ffffffffffffffffffffffffffffffffffffffff16815260200190815260200160002060009054906101000a900460ff16905092915050565b606060018054610fbb906135f2565b80601f0160208091040260200160405190810160405280929190818152602001828054610fe7906135f2565b80156110345780601f1061100957610100808354040283529160200191611034565b820191906000526020600020905b81548152906001019060200180831161101757829003601f168201915b5050505050905090565b60008161104961123a565b1760405160200161105a9190613180565b6040516020818303038152906040528051906020012060001c9050919050565b600c8060000154905081565b6000801b81565b61109f6110986113e8565b8383611a8d565b5050565b6110b46110ae6113e8565b836114a9565b6110f3576040517f08c379a00000000000000000000000000000000000000000000000000000000081526004016110ea906137b9565b60405180910390fd5b6110ff84848484611bf9565b50505050565b60006040516000810160208160008060185afa61111e57fe5b81519250505090565b600d6020528060005260406000206000915090508054611146906135f2565b80601f0160208091040260200160405190810160405280929190818152602001828054611172906135f2565b80156111bf5780601f10611194576101008083540402835291602001916111bf565b820191906000526020600020905b8154815290600101906020018083116111a257829003601f168201915b505050505081565b6000816111d261123a565b6111dc919061392c565b9050919050565b60606111ee82611c55565b9050919050565b7f9f2df0fed2c77648de5860a4cc508cd0818c85b8b8a1ab4ceeef8d981c8956a681565b6112228261091f565b61122b81611837565b611235838361192c565b505050565b6000611244611105565b60001c905090565b6000600560008473ffffffffffffffffffffffffffffffffffffffff1673ffffffffffffffffffffffffffffffffffffffff16815260200190815260200160002060008373ffffffffffffffffffffffffffffffffffffffff1673ffffffffffffffffffffffffffffffffffffffff16815260200190815260200160002060009054906101000a900460ff16905092915050565b600e60205281600052604060002081815481106112fc57600080fd5b9060005260206000209060209182820401919006915091509054906101000a900460ff1681565b60007f7965db0b000000000000000000000000000000000000000000000000000000007bffffffffffffffffffffffffffffffffffffffffffffffffffffffff1916827bffffffffffffffffffffffffffffffffffffffffffffffffffffffff19161480611396575061139582611d67565b5b9050919050565b6113a681611dc8565b6113e5576040517f08c379a00000000000000000000000000000000000000000000000000000000081526004016113dc90613e54565b60405180910390fd5b50565b600033905090565b816004600083815260200190815260200160002060006101000a81548173ffffffffffffffffffffffffffffffffffffffff021916908373ffffffffffffffffffffffffffffffffffffffff160217905550808273ffffffffffffffffffffffffffffffffffffffff1661146383610e04565b73ffffffffffffffffffffffffffffffffffffffff167f8c5be1e5ebec7d5bd14f71427d1e84f3dd0314c0f7b2291e5b200ac8c7c3b92560405160405180910390a45050565b6000806114b583610e04565b90508073ffffffffffffffffffffffffffffffffffffffff168473ffffffffffffffffffffffffffffffffffffffff1614806114f757506114f6818561124c565b5b8061153557508373ffffffffffffffffffffffffffffffffffffffff1661151d84610755565b73ffffffffffffffffffffffffffffffffffffffff16145b91505092915050565b8273ffffffffffffffffffffffffffffffffffffffff1661155e82610e04565b73ffffffffffffffffffffffffffffffffffffffff16146115b4576040517f08c379a00000000000000000000000000000000000000000000000000000000081526004016115ab90613f78565b60405180910390fd5b600073ffffffffffffffffffffffffffffffffffffffff168273ffffffffffffffffffffffffffffffffffffffff1603611623576040517f08c379a000000000000000000000000000000000000000000000000000000000815260040161161a9061400a565b60405180910390fd5b6116308383836001611e09565b8273ffffffffffffffffffffffffffffffffffffffff1661165082610e04565b73ffffffffffffffffffffffffffffffffffffffff16146116a6576040517f08c379a000000000000000000000000000000000000000000000000000000000815260040161169d90613f78565b60405180910390fd5b6004600082815260200190815260200160002060006101000a81549073ffffffffffffffffffffffffffffffffffffffff02191690556001600360008573ffffffffffffffffffffffffffffffffffffffff1673ffffffffffffffffffffffffffffffffffffffff168152602001908152602001600020600082825403925050819055506001600360008473ffffffffffffffffffffffffffffffffffffffff1673ffffffffffffffffffffffffffffffffffffffff16815260200190815260200160002060008282540192505081905550816002600083815260200190815260200160002060006101000a81548173ffffffffffffffffffffffffffffffffffffffff021916908373ffffffffffffffffffffffffffffffffffffffff160217905550808273ffffffffffffffffffffffffffffffffffffffff168473ffffffffffffffffffffffffffffffffffffffff167fddf252ad1be2c89b69c2b068fc378daa952ba7f163c4a11628f55a4df523b3ef60405160405180910390a46118328383836001611e1b565b505050565b611848816118436113e8565b611e21565b50565b6118558282610f41565b611928576001600b600084815260200190815260200160002060000160008373ffffffffffffffffffffffffffffffffffffffff1673ffffffffffffffffffffffffffffffffffffffff16815260200190815260200160002060006101000a81548160ff0219169083151502179055506118cd6113e8565b73ffffffffffffffffffffffffffffffffffffffff168173ffffffffffffffffffffffffffffffffffffffff16837f2f8788117e7eff1d82e926ec794901d17c78024a50270940304540a733656f0d60405160405180910390a45b5050565b6119368282610f41565b15611a0a576000600b600084815260200190815260200160002060000160008373ffffffffffffffffffffffffffffffffffffffff1673ffffffffffffffffffffffffffffffffffffffff16815260200190815260200160002060006101000a81548160ff0219169083151502179055506119af6113e8565b73ffffffffffffffffffffffffffffffffffffffff168173ffffffffffffffffffffffffffffffffffffffff16837ff6391f5c32d9c69d2a47ea670b442974b53935d1edc7fd64eb21e047a839171b60405160405180910390a45b5050565b600081600001549050919050565b6001816000016000828254019250508190555050565b611a4c828260405180602001604052806000815250611ea6565b5050565b60006002600083815260200190815260200160002060009054906101000a900473ffffffffffffffffffffffffffffffffffffffff169050919050565b8173ffffffffffffffffffffffffffffffffffffffff168373ffffffffffffffffffffffffffffffffffffffff1603611afb576040517f08c379a0000000000000000000000000000000000000000000000000000000008152600401611af290614076565b60405180910390fd5b80600560008573ffffffffffffffffffffffffffffffffffffffff1673ffffffffffffffffffffffffffffffffffffffff16815260200190815260200160002060008473ffffffffffffffffffffffffffffffffffffffff1673ffffffffffffffffffffffffffffffffffffffff16815260200190815260200160002060006101000a81548160ff0219169083151502179055508173ffffffffffffffffffffffffffffffffffffffff168373ffffffffffffffffffffffffffffffffffffffff167f17307eab39ab6107e8899845ad3d59bd9653f200f220920489ca2b5937696c3183604051611bec9190612f79565b60405180910390a3505050565b611c0484848461153e565b611c1084848484611f01565b611c4f576040517f08c379a0000000000000000000000000000000000000000000000000000000008152600401611c4690614108565b60405180910390fd5b50505050565b6060611c608261139d565b6000600a60008481526020019081526020016000208054611c80906135f2565b80601f0160208091040260200160405190810160405280929190818152602001828054611cac906135f2565b8015611cf95780601f10611cce57610100808354040283529160200191611cf9565b820191906000526020600020905b815481529060010190602001808311611cdc57829003601f168201915b505050505090506000611d0a612088565b90506000815103611d1f578192505050611d62565b600082511115611d54578082604051602001611d3c929190614159565b60405160208183030381529060405292505050611d62565b611d5d8461209f565b925050505b919050565b6000634906490660e01b7bffffffffffffffffffffffffffffffffffffffffffffffffffffffff1916827bffffffffffffffffffffffffffffffffffffffffffffffffffffffff19161480611dc15750611dc082612107565b5b9050919050565b60008073ffffffffffffffffffffffffffffffffffffffff16611dea83611a50565b73ffffffffffffffffffffffffffffffffffffffff1614159050919050565b611e1584848484612181565b50505050565b50505050565b611e2b8282610f41565b611ea257611e38816122df565b611e468360001c602061230c565b604051602001611e57929190614215565b6040516020818303038152906040526040517f08c379a0000000000000000000000000000000000000000000000000000000008152600401611e999190613024565b60405180910390fd5b5050565b611eb08383612548565b611ebd6000848484611f01565b611efc576040517f08c379a0000000000000000000000000000000000000000000000000000000008152600401611ef390614108565b60405180910390fd5b505050565b6000611f228473ffffffffffffffffffffffffffffffffffffffff16612765565b1561207b578373ffffffffffffffffffffffffffffffffffffffff1663150b7a02611f4b6113e8565b8786866040518563ffffffff1660e01b8152600401611f6d94939291906142a4565b6020604051808303816000875af1925050508015611fa957506040513d601f19601f82011682018060405250810190611fa69190614305565b60015b61202b573d8060008114611fd9576040519150601f19603f3d011682016040523d82523d6000602084013e611fde565b606091505b506000815103612023576040517f08c379a000000000000000000000000000000000000000000000000000000000815260040161201a90614108565b60405180910390fd5b805181602001fd5b63150b7a0260e01b7bffffffffffffffffffffffffffffffffffffffffffffffffffffffff1916817bffffffffffffffffffffffffffffffffffffffffffffffffffffffff191614915050612080565b600190505b949350505050565b606060405180602001604052806000815250905090565b60606120aa8261139d565b60006120b4612088565b905060008151116120d457604051806020016040528060008152506120ff565b806120de84612788565b6040516020016120ef929190614159565b6040516020818303038152906040525b915050919050565b60007f780e9d63000000000000000000000000000000000000000000000000000000007bffffffffffffffffffffffffffffffffffffffffffffffffffffffff1916827bffffffffffffffffffffffffffffffffffffffffffffffffffffffff1916148061217a575061217982612856565b5b9050919050565b61218d84848484612938565b60018111156121d1576040517f08c379a00000000000000000000000000000000000000000000000000000000081526004016121c8906143a4565b60405180910390fd5b6000829050600073ffffffffffffffffffffffffffffffffffffffff168573ffffffffffffffffffffffffffffffffffffffff1603612218576122138161293e565b612257565b8373ffffffffffffffffffffffffffffffffffffffff168573ffffffffffffffffffffffffffffffffffffffff1614612256576122558582612987565b5b5b600073ffffffffffffffffffffffffffffffffffffffff168473ffffffffffffffffffffffffffffffffffffffff16036122995761229481612af4565b6122d8565b8473ffffffffffffffffffffffffffffffffffffffff168473ffffffffffffffffffffffffffffffffffffffff16146122d7576122d68482612bc5565b5b5b5050505050565b60606123058273ffffffffffffffffffffffffffffffffffffffff16601460ff1661230c565b9050919050565b60606000600283600261231f91906143c4565b61232991906139bb565b67ffffffffffffffff8111156123425761234161339e565b5b6040519080825280601f01601f1916602001820160405280156123745781602001600182028036833780820191505090505b5090507f3000000000000000000000000000000000000000000000000000000000000000816000815181106123ac576123ab61395d565b5b60200101907effffffffffffffffffffffffffffffffffffffffffffffffffffffffffffff1916908160001a9053507f7800000000000000000000000000000000000000000000000000000000000000816001815181106124105761240f61395d565b5b60200101907effffffffffffffffffffffffffffffffffffffffffffffffffffffffffffff1916908160001a9053506000600184600261245091906143c4565b61245a91906139bb565b90505b60018111156124fa577f3031323334353637383961626364656600000000000000000000000000000000600f86166010811061249c5761249b61395d565b5b1a60f81b8282815181106124b3576124b261395d565b5b60200101907effffffffffffffffffffffffffffffffffffffffffffffffffffffffffffff1916908160001a905350600485901c9450806124f390614406565b905061245d565b506000841461253e576040517f08c379a00000000000000000000000000000000000000000000000000000000081526004016125359061447b565b60405180910390fd5b8091505092915050565b600073ffffffffffffffffffffffffffffffffffffffff168273ffffffffffffffffffffffffffffffffffffffff16036125b7576040517f08c379a00000000000000000000000000000000000000000000000000000000081526004016125ae906144e7565b60405180910390fd5b6125c081611dc8565b15612600576040517f08c379a00000000000000000000000000000000000000000000000000000000081526004016125f790614553565b60405180910390fd5b61260e600083836001611e09565b61261781611dc8565b15612657576040517f08c379a000000000000000000000000000000000000000000000000000000000815260040161264e90614553565b60405180910390fd5b6001600360008473ffffffffffffffffffffffffffffffffffffffff1673ffffffffffffffffffffffffffffffffffffffff16815260200190815260200160002060008282540192505081905550816002600083815260200190815260200160002060006101000a81548173ffffffffffffffffffffffffffffffffffffffff021916908373ffffffffffffffffffffffffffffffffffffffff160217905550808273ffffffffffffffffffffffffffffffffffffffff16600073ffffffffffffffffffffffffffffffffffffffff167fddf252ad1be2c89b69c2b068fc378daa952ba7f163c4a11628f55a4df523b3ef60405160405180910390a4612761600083836001611e1b565b5050565b6000808273ffffffffffffffffffffffffffffffffffffffff163b119050919050565b60606000600161279784612c44565b01905060008167ffffffffffffffff8111156127b6576127b561339e565b5b6040519080825280601f01601f1916602001820160405280156127e85781602001600182028036833780820191505090505b509050600082602001820190505b60011561284b578080600190039150507f3031323334353637383961626364656600000000000000000000000000000000600a86061a8153600a858161283f5761283e6138fd565b5b049450600085036127f6575b819350505050919050565b60007f80ac58cd000000000000000000000000000000000000000000000000000000007bffffffffffffffffffffffffffffffffffffffffffffffffffffffff1916827bffffffffffffffffffffffffffffffffffffffffffffffffffffffff1916148061292157507f5b5e139f000000000000000000000000000000000000000000000000000000007bffffffffffffffffffffffffffffffffffffffffffffffffffffffff1916827bffffffffffffffffffffffffffffffffffffffffffffffffffffffff1916145b80612931575061293082612d97565b5b9050919050565b50505050565b6008805490506009600083815260200190815260200160002081905550600881908060018154018082558091505060019003906000526020600020016000909190919091505550565b6000600161299484610e8a565b61299e9190614573565b9050600060076000848152602001908152602001600020549050818114612a83576000600660008673ffffffffffffffffffffffffffffffffffffffff1673ffffffffffffffffffffffffffffffffffffffff168152602001908152602001600020600084815260200190815260200160002054905080600660008773ffffffffffffffffffffffffffffffffffffffff1673ffffffffffffffffffffffffffffffffffffffff168152602001908152602001600020600084815260200190815260200160002081905550816007600083815260200190815260200160002081905550505b6007600084815260200190815260200160002060009055600660008573ffffffffffffffffffffffffffffffffffffffff1673ffffffffffffffffffffffffffffffffffffffff16815260200190815260200160002060008381526020019081526020016000206000905550505050565b60006001600880549050612b089190614573565b9050600060096000848152602001908152602001600020549050600060088381548110612b3857612b3761395d565b5b906000526020600020015490508060088381548110612b5a57612b5961395d565b5b906000526020600020018190555081600960008381526020019081526020016000208190555060096000858152602001908152602001600020600090556008805480612ba957612ba86145a7565b5b6001900381819060005260206000200160009055905550505050565b6000612bd083610e8a565b905081600660008573ffffffffffffffffffffffffffffffffffffffff1673ffffffffffffffffffffffffffffffffffffffff168152602001908152602001600020600083815260200190815260200160002081905550806007600084815260200190815260200160002081905550505050565b600080600090507a184f03e93ff9f4daa797ed6e38ed64bf6a1f0100000000000000008310612ca2577a184f03e93ff9f4daa797ed6e38ed64bf6a1f0100000000000000008381612c9857612c976138fd565b5b0492506040810190505b6d04ee2d6d415b85acef81000000008310612cdf576d04ee2d6d415b85acef81000000008381612cd557612cd46138fd565b5b0492506020810190505b662386f26fc100008310612d0e57662386f26fc100008381612d0457612d036138fd565b5b0492506010810190505b6305f5e1008310612d37576305f5e1008381612d2d57612d2c6138fd565b5b0492506008810190505b6127108310612d5c576127108381612d5257612d516138fd565b5b0492506004810190505b60648310612d7f5760648381612d7557612d746138fd565b5b0492506002810190505b600a8310612d8e576001810190505b80915050919050565b60007f01ffc9a7000000000000000000000000000000000000000000000000000000007bffffffffffffffffffffffffffffffffffffffffffffffffffffffff1916827bffffffffffffffffffffffffffffffffffffffffffffffffffffffff1916149050919050565b82805482825590600052602060002090601f01602090048101928215612e975791602002820160005b83821115612e6857835183826101000a81548160ff021916908360ff1602179055509260200192600101602081600001049283019260010302612e2a565b8015612e955782816101000a81549060ff0219169055600101602081600001049283019260010302612e68565b505b509050612ea49190612ea8565b5090565b5b80821115612ec1576000816000905550600101612ea9565b5090565b6000604051905090565b600080fd5b600080fd5b60007fffffffff0000000000000000000000000000000000000000000000000000000082169050919050565b612f0e81612ed9565b8114612f1957600080fd5b50565b600081359050612f2b81612f05565b92915050565b600060208284031215612f4757612f46612ecf565b5b6000612f5584828501612f1c565b91505092915050565b60008115159050919050565b612f7381612f5e565b82525050565b6000602082019050612f8e6000830184612f6a565b92915050565b600081519050919050565b600082825260208201905092915050565b60005b83811015612fce578082015181840152602081019050612fb3565b60008484015250505050565b6000601f19601f8301169050919050565b6000612ff682612f94565b6130008185612f9f565b9350613010818560208601612fb0565b61301981612fda565b840191505092915050565b6000602082019050818103600083015261303e8184612feb565b905092915050565b6000819050919050565b61305981613046565b811461306457600080fd5b50565b60008135905061307681613050565b92915050565b60006020828403121561309257613091612ecf565b5b60006130a084828501613067565b91505092915050565b600073ffffffffffffffffffffffffffffffffffffffff82169050919050565b60006130d4826130a9565b9050919050565b6130e4816130c9565b82525050565b60006020820190506130ff60008301846130db565b92915050565b61310e816130c9565b811461311957600080fd5b50565b60008135905061312b81613105565b92915050565b6000806040838503121561314857613147612ecf565b5b60006131568582860161311c565b925050602061316785828601613067565b9150509250929050565b61317a81613046565b82525050565b60006020820190506131956000830184613171565b92915050565b6000806000606084860312156131b4576131b3612ecf565b5b60006131c28682870161311c565b93505060206131d38682870161311c565b92505060406131e486828701613067565b9150509250925092565b6000819050919050565b613201816131ee565b811461320c57600080fd5b50565b60008135905061321e816131f8565b92915050565b60006020828403121561323a57613239612ecf565b5b60006132488482850161320f565b91505092915050565b61325a816131ee565b82525050565b60006020820190506132756000830184613251565b92915050565b6000806040838503121561329257613291612ecf565b5b60006132a08582860161320f565b92505060206132b18582860161311c565b9150509250929050565b600080604083850312156132d2576132d1612ecf565b5b60006132e085828601613067565b92505060206132f185828601613067565b9150509250929050565b60006020828403121561331157613310612ecf565b5b600061331f8482850161311c565b91505092915050565b61333181612f5e565b811461333c57600080fd5b50565b60008135905061334e81613328565b92915050565b6000806040838503121561336b5761336a612ecf565b5b60006133798582860161311c565b925050602061338a8582860161333f565b9150509250929050565b600080fd5b600080fd5b7f4e487b7100000000000000000000000000000000000000000000000000000000600052604160045260246000fd5b6133d682612fda565b810181811067ffffffffffffffff821117156133f5576133f461339e565b5b80604052505050565b6000613408612ec5565b905061341482826133cd565b919050565b600067ffffffffffffffff8211156134345761343361339e565b5b61343d82612fda565b9050602081019050919050565b82818337600083830152505050565b600061346c61346784613419565b6133fe565b90508281526020810184848401111561348857613487613399565b5b61349384828561344a565b509392505050565b600082601f8301126134b0576134af613394565b5b81356134c0848260208601613459565b91505092915050565b600080600080608085870312156134e3576134e2612ecf565b5b60006134f18782880161311c565b94505060206135028782880161311c565b935050604061351387828801613067565b925050606085013567ffffffffffffffff81111561353457613533612ed4565b5b6135408782880161349b565b91505092959194509250565b6000806040838503121561356357613562612ecf565b5b60006135718582860161311c565b92505060206135828582860161311c565b9150509250929050565b600060ff82169050919050565b6135a28161358c565b82525050565b60006020820190506135bd6000830184613599565b92915050565b7f4e487b7100000000000000000000000000000000000000000000000000000000600052602260045260246000fd5b6000600282049050600182168061360a57607f821691505b60208210810361361d5761361c6135c3565b5b50919050565b7f4552433732313a20617070726f76616c20746f2063757272656e74206f776e6560008201527f7200000000000000000000000000000000000000000000000000000000000000602082015250565b600061367f602183612f9f565b915061368a82613623565b604082019050919050565b600060208201905081810360008301526136ae81613672565b9050919050565b7f4552433732313a20617070726f76652063616c6c6572206973206e6f7420746f60008201527f6b656e206f776e6572206f7220617070726f76656420666f7220616c6c000000602082015250565b6000613711603d83612f9f565b915061371c826136b5565b604082019050919050565b6000602082019050818103600083015261374081613704565b9050919050565b7f4552433732313a2063616c6c6572206973206e6f7420746f6b656e206f776e6560008201527f72206f7220617070726f76656400000000000000000000000000000000000000602082015250565b60006137a3602d83612f9f565b91506137ae82613747565b604082019050919050565b600060208201905081810360008301526137d281613796565b9050919050565b7f455243373231456e756d657261626c653a206f776e657220696e646578206f7560008201527f74206f6620626f756e6473000000000000000000000000000000000000000000602082015250565b6000613835602b83612f9f565b9150613840826137d9565b604082019050919050565b6000602082019050818103600083015261386481613828565b9050919050565b7f416363657373436f6e74726f6c3a2063616e206f6e6c792072656e6f756e636560008201527f20726f6c657320666f722073656c660000000000000000000000000000000000602082015250565b60006138c7602f83612f9f565b91506138d28261386b565b604082019050919050565b600060208201905081810360008301526138f6816138ba565b9050919050565b7f4e487b7100000000000000000000000000000000000000000000000000000000600052601260045260246000fd5b600061393782613046565b915061394283613046565b925082613952576139516138fd565b5b828206905092915050565b7f4e487b7100000000000000000000000000000000000000000000000000000000600052603260045260246000fd5b7f4e487b7100000000000000000000000000000000000000000000000000000000600052601160045260246000fd5b60006139c682613046565b91506139d183613046565b92508282019050808211156139e9576139e861398c565b5b92915050565b60006139fa8261358c565b915060ff8203613a0d57613a0c61398c565b5b600182019050919050565b60008160f81b9050919050565b6000613a3082613a18565b9050919050565b613a48613a438261358c565b613a25565b82525050565b600081905092915050565b7f2c00000000000000000000000000000000000000000000000000000000000000600082015250565b6000613a8f600183613a4e565b9150613a9a82613a59565b600182019050919050565b6000613ab18286613a37565b600182019150613ac082613a82565b9150613acc8285613a37565b600182019150613adb82613a82565b9150613ae78284613a37565b600182019150819050949350505050565b60008190508160005260206000209050919050565b60006020601f8301049050919050565b600082821b905092915050565b600060088302613b5a7fffffffffffffffffffffffffffffffffffffffffffffffffffffffffffffffff82613b1d565b613b648683613b1d565b95508019841693508086168417925050509392505050565b6000819050919050565b6000613ba1613b9c613b9784613046565b613b7c565b613046565b9050919050565b6000819050919050565b613bbb83613b86565b613bcf613bc782613ba8565b848454613b2a565b825550505050565b600090565b613be4613bd7565b613bef818484613bb2565b505050565b5b81811015613c1357613c08600082613bdc565b600181019050613bf5565b5050565b601f821115613c5857613c2981613af8565b613c3284613b0d565b81016020851015613c41578190505b613c55613c4d85613b0d565b830182613bf4565b50505b505050565b600082821c905092915050565b6000613c7b60001984600802613c5d565b1980831691505092915050565b6000613c948383613c6a565b9150826002028217905092915050565b613cad82612f94565b67ffffffffffffffff811115613cc657613cc561339e565b5b613cd082546135f2565b613cdb828285613c17565b600060209050601f831160018114613d0e5760008415613cfc578287015190505b613d068582613c88565b865550613d6e565b601f198416613d1c86613af8565b60005b82811015613d4457848901518255600182019150602085019450602081019050613d1f565b86831015613d615784890151613d5d601f891682613c6a565b8355505b6001600288020188555050505b505050505050565b7f455243373231456e756d657261626c653a20676c6f62616c20696e646578206f60008201527f7574206f6620626f756e64730000000000000000000000000000000000000000602082015250565b6000613dd2602c83612f9f565b9150613ddd82613d76565b604082019050919050565b60006020820190508181036000830152613e0181613dc5565b9050919050565b7f4552433732313a20696e76616c696420746f6b656e2049440000000000000000600082015250565b6000613e3e601883612f9f565b9150613e4982613e08565b602082019050919050565b60006020820190508181036000830152613e6d81613e31565b9050919050565b7f4552433732313a2061646472657373207a65726f206973206e6f74206120766160008201527f6c6964206f776e65720000000000000000000000000000000000000000000000602082015250565b6000613ed0602983612f9f565b9150613edb82613e74565b604082019050919050565b60006020820190508181036000830152613eff81613ec3565b9050919050565b7f4552433732313a207472616e736665722066726f6d20696e636f72726563742060008201527f6f776e6572000000000000000000000000000000000000000000000000000000602082015250565b6000613f62602583612f9f565b9150613f6d82613f06565b604082019050919050565b60006020820190508181036000830152613f9181613f55565b9050919050565b7f4552433732313a207472616e7366657220746f20746865207a65726f2061646460008201527f7265737300000000000000000000000000000000000000000000000000000000602082015250565b6000613ff4602483612f9f565b9150613fff82613f98565b604082019050919050565b6000602082019050818103600083015261402381613fe7565b9050919050565b7f4552433732313a20617070726f766520746f2063616c6c657200000000000000600082015250565b6000614060601983612f9f565b915061406b8261402a565b602082019050919050565b6000602082019050818103600083015261408f81614053565b9050919050565b7f4552433732313a207472616e7366657220746f206e6f6e20455243373231526560008201527f63656976657220696d706c656d656e7465720000000000000000000000000000602082015250565b60006140f2603283612f9f565b91506140fd82614096565b604082019050919050565b60006020820190508181036000830152614121816140e5565b9050919050565b600061413382612f94565b61413d8185613a4e565b935061414d818560208601612fb0565b80840191505092915050565b60006141658285614128565b91506141718284614128565b91508190509392505050565b7f416363657373436f6e74726f6c3a206163636f756e7420000000000000000000600082015250565b60006141b3601783613a4e565b91506141be8261417d565b601782019050919050565b7f206973206d697373696e6720726f6c6520000000000000000000000000000000600082015250565b60006141ff601183613a4e565b915061420a826141c9565b601182019050919050565b6000614220826141a6565b915061422c8285614128565b9150614237826141f2565b91506142438284614128565b91508190509392505050565b600081519050919050565b600082825260208201905092915050565b60006142768261424f565b614280818561425a565b9350614290818560208601612fb0565b61429981612fda565b840191505092915050565b60006080820190506142b960008301876130db565b6142c660208301866130db565b6142d36040830185613171565b81810360608301526142e5818461426b565b905095945050505050565b6000815190506142ff81612f05565b92915050565b60006020828403121561431b5761431a612ecf565b5b6000614329848285016142f0565b91505092915050565b7f455243373231456e756d657261626c653a20636f6e736563757469766520747260008201527f616e7366657273206e6f7420737570706f727465640000000000000000000000602082015250565b600061438e603583612f9f565b915061439982614332565b604082019050919050565b600060208201905081810360008301526143bd81614381565b9050919050565b60006143cf82613046565b91506143da83613046565b92508282026143e881613046565b915082820484148315176143ff576143fe61398c565b5b5092915050565b600061441182613046565b9150600082036144245761442361398c565b5b600182039050919050565b7f537472696e67733a20686578206c656e67746820696e73756666696369656e74600082015250565b6000614465602083612f9f565b91506144708261442f565b602082019050919050565b6000602082019050818103600083015261449481614458565b9050919050565b7f4552433732313a206d696e7420746f20746865207a65726f2061646472657373600082015250565b60006144d1602083612f9f565b91506144dc8261449b565b602082019050919050565b60006020820190508181036000830152614500816144c4565b9050919050565b7f4552433732313a20746f6b656e20616c7265616479206d696e74656400000000600082015250565b600061453d601c83612f9f565b915061454882614507565b602082019050919050565b6000602082019050818103600083015261456c81614530565b9050919050565b600061457e82613046565b915061458983613046565b92508282039050818111156145a1576145a061398c565b5b92915050565b7f4e487b7100000000000000000000000000000000000000000000000000000000600052603160045260246000fdfea264697066735822122057e095f146f6c2ed3ec67b568668520fe0b28cfe3d02f66188cddea77fb2491b64736f6c63430008130033",
  "libraries": {
    "Encoder": "0xeeA9CD3979a8E9fC133714C8E49DE8246dD473e8",
    "SVG": "0xCD4346DF55c2147B8466bcCae0887129C8e0b884"
  },
  "devdoc": {
    "events": {
      "Approval(address,address,uint256)": {
        "details": "Emitted when `owner` enables `approved` to manage the `tokenId` token."
      },
      "ApprovalForAll(address,address,bool)": {
        "details": "Emitted when `owner` enables or disables (`approved`) `operator` to manage all of its assets."
      },
      "BatchMetadataUpdate(uint256,uint256)": {
        "details": "This event emits when the metadata of a range of tokens is changed. So that the third-party platforms such as NFT market could timely update the images and related attributes of the NFTs."
      },
      "MetadataUpdate(uint256)": {
        "details": "This event emits when the metadata of a token is changed. So that the third-party platforms such as NFT market could timely update the images and related attributes of the NFT."
      },
      "RoleAdminChanged(bytes32,bytes32,bytes32)": {
        "details": "Emitted when `newAdminRole` is set as ``role``'s admin role, replacing `previousAdminRole` `DEFAULT_ADMIN_ROLE` is the starting admin for all roles, despite {RoleAdminChanged} not being emitted signaling this. _Available since v3.1._"
      },
      "RoleGranted(bytes32,address,address)": {
        "details": "Emitted when `account` is granted `role`. `sender` is the account that originated the contract call, an admin role bearer except when using {AccessControl-_setupRole}."
      },
      "RoleRevoked(bytes32,address,address)": {
        "details": "Emitted when `account` is revoked `role`. `sender` is the account that originated the contract call:   - if using `revokeRole`, it is the admin role bearer   - if using `renounceRole`, it is the role bearer (i.e. `account`)"
      },
      "Transfer(address,address,uint256)": {
        "details": "Emitted when `tokenId` token is transferred from `from` to `to`."
      }
    },
    "kind": "dev",
    "methods": {
      "approve(address,uint256)": {
        "details": "See {IERC721-approve}."
      },
      "balanceOf(address)": {
        "details": "See {IERC721-balanceOf}."
      },
      "getApproved(uint256)": {
        "details": "See {IERC721-getApproved}."
      },
      "getNextRandomNumber(uint256)": {
        "params": {
          "nextIndex": "The nextIndex to interate the RNG value by"
        },
        "returns": {
          "_0": "The randon number with an additional index iteration. This shold be used for multiple values in the same block"
        }
      },
      "getNextRandomRange(uint256,uint256)": {
        "params": {
          "max": "The maximum number the random number should be inclusive",
          "nextIndex": "The nextIndex to interate the RNG value by"
        },
        "returns": {
          "_0": "Random number between 0 & max"
        }
      },
      "getRandomBytes()": {
        "details": "Read here for how it works: https://docs.skale.network/tools/skale-specific/random-number-generator"
      },
      "getRandomNumber()": {
        "returns": {
          "_0": "The randon number"
        }
      },
      "getRandomRange(uint256)": {
        "params": {
          "max": "The maximum number the random number should be inclusive"
        },
        "returns": {
          "_0": "Random number between 0 & max"
        }
      },
      "getRoleAdmin(bytes32)": {
        "details": "Returns the admin role that controls `role`. See {grantRole} and {revokeRole}. To change a role's admin, use {_setRoleAdmin}."
      },
      "grantRole(bytes32,address)": {
        "details": "Grants `role` to `account`. If `account` had not been already granted `role`, emits a {RoleGranted} event. Requirements: - the caller must have ``role``'s admin role. May emit a {RoleGranted} event."
      },
      "hasRole(bytes32,address)": {
        "details": "Returns `true` if `account` has been granted `role`."
      },
      "isApprovedForAll(address,address)": {
        "details": "See {IERC721-isApprovedForAll}."
      },
      "name()": {
        "details": "See {IERC721Metadata-name}."
      },
      "ownerOf(uint256)": {
        "details": "See {IERC721-ownerOf}."
      },
      "renounceRole(bytes32,address)": {
        "details": "Revokes `role` from the calling account. Roles are often managed via {grantRole} and {revokeRole}: this function's purpose is to provide a mechanism for accounts to lose their privileges if they are compromised (such as when a trusted device is misplaced). If the calling account had been revoked `role`, emits a {RoleRevoked} event. Requirements: - the caller must be `account`. May emit a {RoleRevoked} event."
      },
      "revokeRole(bytes32,address)": {
        "details": "Revokes `role` from `account`. If `account` had been granted `role`, emits a {RoleRevoked} event. Requirements: - the caller must have ``role``'s admin role. May emit a {RoleRevoked} event."
      },
      "safeTransferFrom(address,address,uint256)": {
        "details": "See {IERC721-safeTransferFrom}."
      },
      "safeTransferFrom(address,address,uint256,bytes)": {
        "details": "See {IERC721-safeTransferFrom}."
      },
      "setApprovalForAll(address,bool)": {
        "details": "See {IERC721-setApprovalForAll}."
      },
      "symbol()": {
        "details": "See {IERC721Metadata-symbol}."
      },
      "tokenByIndex(uint256)": {
        "details": "See {IERC721Enumerable-tokenByIndex}."
      },
      "tokenOfOwnerByIndex(address,uint256)": {
        "details": "See {IERC721Enumerable-tokenOfOwnerByIndex}."
      },
      "totalSupply()": {
        "details": "See {IERC721Enumerable-totalSupply}."
      },
      "transferFrom(address,address,uint256)": {
        "details": "See {IERC721-transferFrom}."
      }
    },
    "version": 1
  },
  "userdoc": {
    "kind": "user",
    "methods": {},
    "version": 1
  },
  "storageLayout": {
    "storage": [
      {
        "astId": 529,
        "contract": "contracts/DynamicNFT.sol:DynamicNFT",
        "label": "_name",
        "offset": 0,
        "slot": "0",
        "type": "t_string_storage"
      },
      {
        "astId": 531,
        "contract": "contracts/DynamicNFT.sol:DynamicNFT",
        "label": "_symbol",
        "offset": 0,
        "slot": "1",
        "type": "t_string_storage"
      },
      {
        "astId": 535,
        "contract": "contracts/DynamicNFT.sol:DynamicNFT",
        "label": "_owners",
        "offset": 0,
        "slot": "2",
        "type": "t_mapping(t_uint256,t_address)"
      },
      {
        "astId": 539,
        "contract": "contracts/DynamicNFT.sol:DynamicNFT",
        "label": "_balances",
        "offset": 0,
        "slot": "3",
        "type": "t_mapping(t_address,t_uint256)"
      },
      {
        "astId": 543,
        "contract": "contracts/DynamicNFT.sol:DynamicNFT",
        "label": "_tokenApprovals",
        "offset": 0,
        "slot": "4",
        "type": "t_mapping(t_uint256,t_address)"
      },
      {
        "astId": 549,
        "contract": "contracts/DynamicNFT.sol:DynamicNFT",
        "label": "_operatorApprovals",
        "offset": 0,
        "slot": "5",
        "type": "t_mapping(t_address,t_mapping(t_address,t_bool))"
      },
      {
        "astId": 1579,
        "contract": "contracts/DynamicNFT.sol:DynamicNFT",
        "label": "_ownedTokens",
        "offset": 0,
        "slot": "6",
        "type": "t_mapping(t_address,t_mapping(t_uint256,t_uint256))"
      },
      {
        "astId": 1583,
        "contract": "contracts/DynamicNFT.sol:DynamicNFT",
        "label": "_ownedTokensIndex",
        "offset": 0,
        "slot": "7",
        "type": "t_mapping(t_uint256,t_uint256)"
      },
      {
        "astId": 1586,
        "contract": "contracts/DynamicNFT.sol:DynamicNFT",
        "label": "_allTokens",
        "offset": 0,
        "slot": "8",
        "type": "t_array(t_uint256)dyn_storage"
      },
      {
        "astId": 1590,
        "contract": "contracts/DynamicNFT.sol:DynamicNFT",
        "label": "_allTokensIndex",
        "offset": 0,
        "slot": "9",
        "type": "t_mapping(t_uint256,t_uint256)"
      },
      {
        "astId": 1934,
        "contract": "contracts/DynamicNFT.sol:DynamicNFT",
        "label": "_tokenURIs",
        "offset": 0,
        "slot": "10",
        "type": "t_mapping(t_uint256,t_string_storage)"
      },
      {
        "astId": 111,
        "contract": "contracts/DynamicNFT.sol:DynamicNFT",
        "label": "_roles",
        "offset": 0,
        "slot": "11",
        "type": "t_mapping(t_bytes32,t_struct(RoleData)106_storage)"
      },
      {
        "astId": 3873,
        "contract": "contracts/DynamicNFT.sol:DynamicNFT",
        "label": "tokenIdCounter",
        "offset": 0,
        "slot": "12",
        "type": "t_struct(Counter)2537_storage"
      },
      {
        "astId": 3877,
        "contract": "contracts/DynamicNFT.sol:DynamicNFT",
        "label": "colors",
        "offset": 0,
        "slot": "13",
        "type": "t_mapping(t_uint256,t_string_storage)"
      },
      {
        "astId": 3882,
        "contract": "contracts/DynamicNFT.sol:DynamicNFT",
        "label": "speeds",
        "offset": 0,
        "slot": "14",
        "type": "t_mapping(t_uint256,t_array(t_uint8)dyn_storage)"
      }
    ],
    "types": {
      "t_address": {
        "encoding": "inplace",
        "label": "address",
        "numberOfBytes": "20"
      },
      "t_array(t_uint256)dyn_storage": {
        "base": "t_uint256",
        "encoding": "dynamic_array",
        "label": "uint256[]",
        "numberOfBytes": "32"
      },
      "t_array(t_uint8)dyn_storage": {
        "base": "t_uint8",
        "encoding": "dynamic_array",
        "label": "uint8[]",
        "numberOfBytes": "32"
      },
      "t_bool": {
        "encoding": "inplace",
        "label": "bool",
        "numberOfBytes": "1"
      },
      "t_bytes32": {
        "encoding": "inplace",
        "label": "bytes32",
        "numberOfBytes": "32"
      },
      "t_mapping(t_address,t_bool)": {
        "encoding": "mapping",
        "key": "t_address",
        "label": "mapping(address => bool)",
        "numberOfBytes": "32",
        "value": "t_bool"
      },
      "t_mapping(t_address,t_mapping(t_address,t_bool))": {
        "encoding": "mapping",
        "key": "t_address",
        "label": "mapping(address => mapping(address => bool))",
        "numberOfBytes": "32",
        "value": "t_mapping(t_address,t_bool)"
      },
      "t_mapping(t_address,t_mapping(t_uint256,t_uint256))": {
        "encoding": "mapping",
        "key": "t_address",
        "label": "mapping(address => mapping(uint256 => uint256))",
        "numberOfBytes": "32",
        "value": "t_mapping(t_uint256,t_uint256)"
      },
      "t_mapping(t_address,t_uint256)": {
        "encoding": "mapping",
        "key": "t_address",
        "label": "mapping(address => uint256)",
        "numberOfBytes": "32",
        "value": "t_uint256"
      },
      "t_mapping(t_bytes32,t_struct(RoleData)106_storage)": {
        "encoding": "mapping",
        "key": "t_bytes32",
        "label": "mapping(bytes32 => struct AccessControl.RoleData)",
        "numberOfBytes": "32",
        "value": "t_struct(RoleData)106_storage"
      },
      "t_mapping(t_uint256,t_address)": {
        "encoding": "mapping",
        "key": "t_uint256",
        "label": "mapping(uint256 => address)",
        "numberOfBytes": "32",
        "value": "t_address"
      },
      "t_mapping(t_uint256,t_array(t_uint8)dyn_storage)": {
        "encoding": "mapping",
        "key": "t_uint256",
        "label": "mapping(uint256 => uint8[])",
        "numberOfBytes": "32",
        "value": "t_array(t_uint8)dyn_storage"
      },
      "t_mapping(t_uint256,t_string_storage)": {
        "encoding": "mapping",
        "key": "t_uint256",
        "label": "mapping(uint256 => string)",
        "numberOfBytes": "32",
        "value": "t_string_storage"
      },
      "t_mapping(t_uint256,t_uint256)": {
        "encoding": "mapping",
        "key": "t_uint256",
        "label": "mapping(uint256 => uint256)",
        "numberOfBytes": "32",
        "value": "t_uint256"
      },
      "t_string_storage": {
        "encoding": "bytes",
        "label": "string",
        "numberOfBytes": "32"
      },
      "t_struct(Counter)2537_storage": {
        "encoding": "inplace",
        "label": "struct Counters.Counter",
        "members": [
          {
            "astId": 2536,
            "contract": "contracts/DynamicNFT.sol:DynamicNFT",
            "label": "_value",
            "offset": 0,
            "slot": "0",
            "type": "t_uint256"
          }
        ],
        "numberOfBytes": "32"
      },
      "t_struct(RoleData)106_storage": {
        "encoding": "inplace",
        "label": "struct AccessControl.RoleData",
        "members": [
          {
            "astId": 103,
            "contract": "contracts/DynamicNFT.sol:DynamicNFT",
            "label": "members",
            "offset": 0,
            "slot": "0",
            "type": "t_mapping(t_address,t_bool)"
          },
          {
            "astId": 105,
            "contract": "contracts/DynamicNFT.sol:DynamicNFT",
            "label": "adminRole",
            "offset": 0,
            "slot": "1",
            "type": "t_bytes32"
          }
        ],
        "numberOfBytes": "64"
      },
      "t_uint256": {
        "encoding": "inplace",
        "label": "uint256",
        "numberOfBytes": "32"
      },
      "t_uint8": {
        "encoding": "inplace",
        "label": "uint8",
        "numberOfBytes": "1"
      }
    }
  }
}