{
  "address": "0xCD4346DF55c2147B8466bcCae0887129C8e0b884",
  "abi": [
    {
      "inputs": [
        {
          "internalType": "string",
          "name": "rgb",
          "type": "string"
        },
        {
          "internalType": "uint8[]",
          "name": "speeds",
          "type": "uint8[]"
        }
      ],
      "name": "load",
      "outputs": [
        {
          "internalType": "string",
          "name": "",
          "type": "string"
        }
      ],
      "stateMutability": "pure",
      "type": "function"
    }
  ],
  "transactionHash": "0x4bf2c95430b063cb38f37178365d6dfaa953ff9ab5d172a55e33fe8b017f178d",
  "args": [],
  "numDeployments": 1,
  "solcInputHash": "5f49dcb0793642f32b53b908c5ef57c0",
  "bytecode": "0x6126fc610053600b82828239805160001a607314610046577f4e487b7100000000000000000000000000000000000000000000000000000000600052600060045260246000fd5b30600052607381538281f3fe73000000000000000000000000000000000000000030146080604052600436106100355760003560e01c8063452955e41461003a575b600080fd5b610054600480360381019061004f9190610346565b61006a565b604051610061919061043d565b60405180910390f35b606082826000815181106100815761008061045f565b5b60200260200101518360018151811061009d5761009c61045f565b5b6020026020010151846002815181106100b9576100b861045f565b5b60200260200101516040516020016100d49493929190612322565b604051602081830303815290604052905092915050565b6000604051905090565b600080fd5b600080fd5b600080fd5b600080fd5b6000601f19601f8301169050919050565b7f4e487b7100000000000000000000000000000000000000000000000000000000600052604160045260246000fd5b61015282610109565b810181811067ffffffffffffffff821117156101715761017061011a565b5b80604052505050565b60006101846100eb565b90506101908282610149565b919050565b600067ffffffffffffffff8211156101b0576101af61011a565b5b6101b982610109565b9050602081019050919050565b82818337600083830152505050565b60006101e86101e384610195565b61017a565b90508281526020810184848401111561020457610203610104565b5b61020f8482856101c6565b509392505050565b600082601f83011261022c5761022b6100ff565b5b813561023c8482602086016101d5565b91505092915050565b600067ffffffffffffffff8211156102605761025f61011a565b5b602082029050602081019050919050565b600080fd5b600060ff82169050919050565b61028c81610276565b811461029757600080fd5b50565b6000813590506102a981610283565b92915050565b60006102c26102bd84610245565b61017a565b905080838252602082019050602084028301858111156102e5576102e4610271565b5b835b8181101561030e57806102fa888261029a565b8452602084019350506020810190506102e7565b5050509392505050565b600082601f83011261032d5761032c6100ff565b5b813561033d8482602086016102af565b91505092915050565b6000806040838503121561035d5761035c6100f5565b5b600083013567ffffffffffffffff81111561037b5761037a6100fa565b5b61038785828601610217565b925050602083013567ffffffffffffffff8111156103a8576103a76100fa565b5b6103b485828601610318565b9150509250929050565b600081519050919050565b600082825260208201905092915050565b60005b838110156103f85780820151818401526020810190506103dd565b60008484015250505050565b600061040f826103be565b61041981856103c9565b93506104298185602086016103da565b61043281610109565b840191505092915050565b600060208201905081810360008301526104578184610404565b905092915050565b7f4e487b7100000000000000000000000000000000000000000000000000000000600052603260045260246000fd5b600081905092915050565b7f3c73766720786d6c6e733d22687474703a2f2f7777772e77332e6f72672f323060008201527f30302f737667222077696474683d2233303022206865696768743d223330302260208201527f3e00000000000000000000000000000000000000000000000000000000000000604082015250565b600061051b60418361048e565b915061052682610499565b604182019050919050565b7f3c646566733e0000000000000000000000000000000000000000000000000000600082015250565b600061056760068361048e565b915061057282610531565b600682019050919050565b7f3c72616469616c4772616469656e742069643d22706c616e657447726164696560008201527f6e74222063783d22353025222063793d223530252220723d223530252220667860208201527f3d22353025222066793d22353025223e00000000000000000000000000000000604082015250565b60006105ff60508361048e565b915061060a8261057d565b605082019050919050565b7f3c73746f70206f66667365743d22302522207374796c653d2273746f702d636f60008201527f6c6f723a20726267280000000000000000000000000000000000000000000000602082015250565b600061067160298361048e565b915061067c82610615565b602982019050919050565b6000610692826103be565b61069c818561048e565b93506106ac8185602086016103da565b80840191505092915050565b7f293b73746f702d6f7061636974793a3122202f3e000000000000000000000000600082015250565b60006106ee60148361048e565b91506106f9826106b8565b601482019050919050565b7f3c73746f70206f66667365743d223130302522207374796c653d2273746f702d60008201527f636f6c6f723a233636363636363b73746f702d6f7061636974793a3122202f3e602082015250565b600061076060408361048e565b915061076b82610704565b604082019050919050565b7f3c2f72616469616c4772616469656e743e000000000000000000000000000000600082015250565b60006107ac60118361048e565b91506107b782610776565b601182019050919050565b7f3c72616469616c4772616469656e742069643d226d6f6f6e314772616469656e60008201527f74222063783d22353025222063793d223530252220723d22353025222066783d60208201527f22353025222066793d22353025223e0000000000000000000000000000000000604082015250565b6000610844604f8361048e565b915061084f826107c2565b604f82019050919050565b7f3c73746f70206f66667365743d22302522207374796c653d2273746f702d636f60008201527f6c6f723a236666636330303b73746f702d6f7061636974793a3122202f3e0000602082015250565b60006108b6603e8361048e565b91506108c18261085a565b603e82019050919050565b7f3c73746f70206f66667365743d223130302522207374796c653d2273746f702d60008201527f636f6c6f723a236666393930303b73746f702d6f7061636974793a3122202f3e602082015250565b600061092860408361048e565b9150610933826108cc565b604082019050919050565b7f3c72616469616c4772616469656e742069643d226d6f6f6e324772616469656e60008201527f74222063783d22353025222063793d223530252220723d22353025222066783d60208201527f22353025222066793d22353025223e0000000000000000000000000000000000604082015250565b60006109c0604f8361048e565b91506109cb8261093e565b604f82019050919050565b7f3c73746f70206f66667365743d22302522207374796c653d2273746f702d636f60008201527f6c6f723a236666303066663b73746f702d6f7061636974793a3122202f3e0000602082015250565b6000610a32603e8361048e565b9150610a3d826109d6565b603e82019050919050565b7f3c73746f70206f66667365743d223130302522207374796c653d2273746f702d60008201527f636f6c6f723a233939303066663b73746f702d6f7061636974793a3122202f3e602082015250565b6000610aa460408361048e565b9150610aaf82610a48565b604082019050919050565b7f3c72616469616c4772616469656e742069643d226d6f6f6e334772616469656e60008201527f74222063783d22353025222063793d223530252220723d22353025222066783d60208201527f22353025222066793d22353025223e0000000000000000000000000000000000604082015250565b6000610b3c604f8361048e565b9150610b4782610aba565b604f82019050919050565b7f3c73746f70206f66667365743d22302522207374796c653d2273746f702d636f60008201527f6c6f723a233030666630303b73746f702d6f7061636974793a3122202f3e0000602082015250565b6000610bae603e8361048e565b9150610bb982610b52565b603e82019050919050565b7f3c73746f70206f66667365743d223130302522207374796c653d2273746f702d60008201527f636f6c6f723a233030636330303b73746f702d6f7061636974793a3122202f3e602082015250565b6000610c2060408361048e565b9150610c2b82610bc4565b604082019050919050565b7f3c66696c7465722069643d22736861646f7746696c7465722220783d222d333060008201527f252220793d222d333025222077696474683d223136302522206865696768743d60208201527f2231363025223e00000000000000000000000000000000000000000000000000604082015250565b6000610cb860478361048e565b9150610cc382610c36565b604782019050919050565b7f3c666544726f70536861646f772064783d2230222064793d223022207374644460008201527f6576696174696f6e3d22342220666c6f6f642d636f6c6f723d2223303030303060208201527f302220666c6f6f642d6f7061636974793d22302e3522202f3e00000000000000604082015250565b6000610d5060598361048e565b9150610d5b82610cce565b605982019050919050565b7f3c2f66696c7465723e0000000000000000000000000000000000000000000000600082015250565b6000610d9c60098361048e565b9150610da782610d66565b600982019050919050565b7f3c66696c7465722069643d2263726174657246696c746572223e000000000000600082015250565b6000610de8601a8361048e565b9150610df382610db2565b601a82019050919050565b7f3c66654f66667365742064783d2231222064793d22312220696e3d22536f757260008201527f6365416c7068612220726573756c743d226f666673657422202f3e0000000000602082015250565b6000610e5a603b8361048e565b9150610e6582610dfe565b603b82019050919050565b7f3c6665476175737369616e426c757220696e3d226f666673657422207374644460008201527f6576696174696f6e3d22312220726573756c743d22626c757222202f3e000000602082015250565b6000610ecc603d8361048e565b9150610ed782610e70565b603d82019050919050565b7f3c666553706563756c61724c69676874696e6720696e3d22626c75722220737560008201527f72666163655363616c653d2232222073706563756c6172436f6e7374616e743d60208201527f22302e3735222073706563756c61724578706f6e656e743d22323022206c696760408201527f6874696e672d636f6c6f723d22233939393939392220726573756c743d22737060608201527f6563756c6172223e000000000000000000000000000000000000000000000000608082015250565b6000610fb060888361048e565b9150610fbb82610ee2565b608882019050919050565b7f3c6665506f696e744c6967687420783d222d353030302220793d222d3130303060008201527f3022207a3d22323030303022202f3e0000000000000000000000000000000000602082015250565b6000611022602f8361048e565b915061102d82610fc6565b602f82019050919050565b7f3c2f666553706563756c61724c69676874696e673e0000000000000000000000600082015250565b600061106e60158361048e565b915061107982611038565b601582019050919050565b7f3c6665436f6d706f7369746520696e3d2273706563756c61722220696e323d2260008201527f536f75726365416c70686122206f70657261746f723d22696e2220726573756c60208201527f743d22636f6d706f7369746522202f3e00000000000000000000000000000000604082015250565b600061110660508361048e565b915061111182611084565b605082019050919050565b7f3c6665436f6d706f7369746520696e3d22536f7572636547726170686963222060008201527f696e323d22636f6d706f7369746522206f70657261746f723d2261726974686d60208201527f6574696322206b313d223022206b323d223122206b333d223122206b343d223060408201527f2220726573756c743d226c69745061696e7422202f3e00000000000000000000606082015250565b60006111c460768361048e565b91506111cf8261111c565b607682019050919050565b7f3c2f646566733e00000000000000000000000000000000000000000000000000600082015250565b600061121060078361048e565b915061121b826111da565b600782019050919050565b7f3c726563742077696474683d223130302522206865696768743d22313030252260008201527f2066696c6c3d222330303030303022202f3e0000000000000000000000000000602082015250565b600061128260328361048e565b915061128d82611226565b603282019050919050565b7f3c672066696c7465723d2275726c2823736861646f7746696c74657229223e00600082015250565b60006112ce601f8361048e565b91506112d982611298565b601f82019050919050565b7f3c636972636c652063783d223330222063793d2232302220723d22302e35222060008201527f66696c6c3d222366666666666622202f3e000000000000000000000000000000602082015250565b600061134060318361048e565b915061134b826112e4565b603182019050919050565b7f3c636972636c652063783d22323330222063793d2235302220723d22302e382260008201527f2066696c6c3d222366663939303022202f3e0000000000000000000000000000602082015250565b60006113b260328361048e565b91506113bd82611356565b603282019050919050565b7f3c636972636c652063783d22313230222063793d2238302220723d22312e322260008201527f2066696c6c3d222366666363303022202f3e0000000000000000000000000000602082015250565b600061142460328361048e565b915061142f826113c8565b603282019050919050565b7f3c636972636c652063783d22323030222063793d2235302220723d22302e372260008201527f2066696c6c3d222366666666666622202f3e0000000000000000000000000000602082015250565b600061149660328361048e565b91506114a18261143a565b603282019050919050565b7f3c636972636c652063783d22323330222063793d2237302220723d22312e302260008201527f2066696c6c3d222366663939303022202f3e0000000000000000000000000000602082015250565b600061150860328361048e565b9150611513826114ac565b603282019050919050565b7f3c636972636c652063783d22323530222063793d2232352220723d22302e392260008201527f2066696c6c3d222366666363303022202f3e0000000000000000000000000000602082015250565b600061157a60328361048e565b91506115858261151e565b603282019050919050565b7f3c636972636c652063783d223135222063793d223230302220723d22302e352260008201527f2066696c6c3d222366666666666622202f3e0000000000000000000000000000602082015250565b60006115ec60328361048e565b91506115f782611590565b603282019050919050565b7f3c636972636c652063783d223235222063793d223233302220723d22302e382260008201527f2066696c6c3d222366663939303022202f3e0000000000000000000000000000602082015250565b600061165e60328361048e565b915061166982611602565b603282019050919050565b7f3c636972636c652063783d223735222063793d223139302220723d22312e302260008201527f2066696c6c3d222366666363303022202f3e0000000000000000000000000000602082015250565b60006116d060328361048e565b91506116db82611674565b603282019050919050565b7f3c636972636c652063783d22313235222063793d223233302220723d22302e3760008201527f222066696c6c3d222366666666666622202f3e00000000000000000000000000602082015250565b600061174260338361048e565b915061174d826116e6565b603382019050919050565b7f3c2f673e00000000000000000000000000000000000000000000000000000000600082015250565b600061178e60048361048e565b915061179982611758565b600482019050919050565b7f3c636972636c652063783d22313530222063793d223135302220723d2231303060008201527f222066696c6c3d2275726c2823706c616e65744772616469656e74292220666960208201527f6c7465723d2275726c2823736861646f7746696c746572292200000000000000604082015250565b600061182660598361048e565b9150611831826117a4565b605982019050919050565b7f3c67207472616e73666f726d3d22726f7461746528302031353020313530292260008201527f3e00000000000000000000000000000000000000000000000000000000000000602082015250565b600061189860218361048e565b91506118a38261183c565b602182019050919050565b7f3c636972636c652063783d22323630222063793d2237302220723d223130222060008201527f66696c6c3d2275726c28236d6f6f6e314772616469656e7429222066696c746560208201527f723d2275726c2823736861646f7746696c74657229223e000000000000000000604082015250565b600061193060578361048e565b915061193b826118ae565b605782019050919050565b7f3c616e696d6174655472616e73666f726d206174747269627574654e616d653d60008201527f227472616e73666f726d2220747970653d22726f74617465222066726f6d3d2260208201527f3020313530203135302220746f3d22333630203135302031353022206475723d60408201527f2200000000000000000000000000000000000000000000000000000000000000606082015250565b60006119ee60618361048e565b91506119f982611946565b606182019050919050565b60008160f81b9050919050565b6000611a1c82611a04565b9050919050565b611a34611a2f82610276565b611a11565b82525050565b7f732220726570656174436f756e743d22696e646566696e69746522202f3e0000600082015250565b6000611a70601e8361048e565b9150611a7b82611a3a565b601e82019050919050565b7f3c616e696d6174654d6f74696f6e206475723d2238732220726570656174436f60008201527f756e743d22696e646566696e697465223e000000000000000000000000000000602082015250565b6000611ae260318361048e565b9150611aed82611a86565b603182019050919050565b7f3c6d7061746820687265663d22236d6f6f6e506174683122202f3e0000000000600082015250565b6000611b2e601b8361048e565b9150611b3982611af8565b601b82019050919050565b7f3c2f616e696d6174654d6f74696f6e3e00000000000000000000000000000000600082015250565b6000611b7a60108361048e565b9150611b8582611b44565b601082019050919050565b7f3c2f636972636c653e0000000000000000000000000000000000000000000000600082015250565b6000611bc660098361048e565b9150611bd182611b90565b600982019050919050565b7f3c636972636c652063783d22323730222063793d223232302220723d2231352260008201527f2066696c6c3d2275726c28236d6f6f6e324772616469656e7429222066696c7460208201527f65723d2275726c2823736861646f7746696c74657229223e0000000000000000604082015250565b6000611c5e60588361048e565b9150611c6982611bdc565b605882019050919050565b7f3c616e696d6174654d6f74696f6e206475723d2231327322207265706561744360008201527f6f756e743d22696e646566696e697465223e0000000000000000000000000000602082015250565b6000611cd060328361048e565b9150611cdb82611c74565b603282019050919050565b7f3c6d7061746820687265663d22236d6f6f6e506174683222202f3e0000000000600082015250565b6000611d1c601b8361048e565b9150611d2782611ce6565b601b82019050919050565b7f3c636972636c652063783d22323335222063793d223231302220723d2231322260008201527f2066696c6c3d2275726c28236d6f6f6e334772616469656e7429222066696c7460208201527f65723d2275726c2823736861646f7746696c74657229223e0000000000000000604082015250565b6000611db460588361048e565b9150611dbf82611d32565b605882019050919050565b7f3c616e696d6174654d6f74696f6e206475723d2231307322207265706561744360008201527f6f756e743d22696e646566696e697465223e0000000000000000000000000000602082015250565b6000611e2660328361048e565b9150611e3182611dca565b603282019050919050565b7f3c6d7061746820687265663d22236d6f6f6e506174683322202f3e0000000000600082015250565b6000611e72601b8361048e565b9150611e7d82611e3c565b601b82019050919050565b7f3c636972636c652069643d226d6f6f6e5061746831222063783d22313530222060008201527f63793d223135302220723d223930222066696c6c3d226e6f6e6522202f3e0000602082015250565b6000611ee4603e8361048e565b9150611eef82611e88565b603e82019050919050565b7f3c636972636c652069643d226d6f6f6e5061746832222063783d22313530222060008201527f63793d223135302220723d22313130222066696c6c3d226e6f6e6522202f3e00602082015250565b6000611f56603f8361048e565b9150611f6182611efa565b603f82019050919050565b7f3c636972636c652069643d226d6f6f6e5061746833222063783d22313530222060008201527f63793d223135302220723d22313330222066696c6c3d226e6f6e6522202f3e00602082015250565b6000611fc8603f8361048e565b9150611fd382611f6c565b603f82019050919050565b7f3c636972636c652063783d22313530222063793d223135302220723d2236302260008201527f2066696c6c3d227267626128302c20302c20302c20302e3229222066696c746560208201527f723d2275726c2823736861646f7746696c7465722922202f3e00000000000000604082015250565b600061206060598361048e565b915061206b82611fde565b605982019050919050565b7f3c636972636c652063783d22313030222063793d223132302220723d2237222060008201527f66696c6c3d2223383838383538222066696c7465723d2275726c28236372617460208201527f657246696c7465722922202f3e00000000000000000000000000000000000000604082015250565b60006120f8604d8361048e565b915061210382612076565b604d82019050919050565b7f3c636972636c652063783d22313730222063793d223138302220723d2231302260008201527f2066696c6c3d2223383738383838222066696c7465723d2275726c282363726160208201527f74657246696c7465722922202f3e000000000000000000000000000000000000604082015250565b6000612190604e8361048e565b915061219b8261210e565b604e82019050919050565b7f3c636972636c652063783d22313330222063793d223234302220723d2238222060008201527f66696c6c3d2223383838383538222066696c7465723d2275726c28236372617460208201527f657246696c7465722922202f3e00000000000000000000000000000000000000604082015250565b6000612228604d8361048e565b9150612233826121a6565b604d82019050919050565b7f3c636972636c652063783d223730222063793d223139302220723d223922206660008201527f696c6c3d2223383738383838222066696c7465723d2275726c2823637261746560208201527f7246696c7465722922202f3e0000000000000000000000000000000000000000604082015250565b60006122c0604c8361048e565b91506122cb8261223e565b604c82019050919050565b7f3c2f7376673e0000000000000000000000000000000000000000000000000000600082015250565b600061230c60068361048e565b9150612317826122d6565b600682019050919050565b600061232d8261050e565b91506123388261055a565b9150612343826105f2565b915061234e82610664565b915061235a8287610687565b9150612365826106e1565b915061237082610753565b915061237b8261079f565b915061238682610837565b9150612391826108a9565b915061239c8261091b565b91506123a78261079f565b91506123b2826109b3565b91506123bd82610a25565b91506123c882610a97565b91506123d38261079f565b91506123de82610b2f565b91506123e982610ba1565b91506123f482610c13565b91506123ff8261079f565b915061240a82610cab565b915061241582610d43565b915061242082610d8f565b915061242b82610ddb565b915061243682610e4d565b915061244182610ebf565b915061244c82610fa3565b915061245782611015565b915061246282611061565b915061246d826110f9565b9150612478826111b7565b915061248382610d8f565b915061248e82611203565b915061249982611275565b91506124a4826112c1565b91506124af82611333565b91506124ba826113a5565b91506124c582611417565b91506124d082611489565b91506124db826114fb565b91506124e68261156d565b91506124f1826115df565b91506124fc82611651565b9150612507826116c3565b915061251282611735565b915061251d82611781565b915061252882611819565b91506125338261188b565b915061253e82611923565b9150612549826119e1565b91506125558286611a23565b60018201915061256482611a63565b915061256f82611ad5565b915061257a82611b21565b915061258582611b6d565b915061259082611bb9565b915061259b82611c51565b91506125a6826119e1565b91506125b28285611a23565b6001820191506125c182611a63565b91506125cc82611cc3565b91506125d782611d0f565b91506125e282611b6d565b91506125ed82611bb9565b91506125f882611da7565b9150612603826119e1565b915061260f8284611a23565b60018201915061261e82611a63565b915061262982611e19565b915061263482611e65565b915061263f82611b6d565b915061264a82611bb9565b915061265582611781565b915061266082611ed7565b915061266b82611f49565b915061267682611fbb565b915061268182612053565b915061268c826120eb565b915061269782612183565b91506126a28261221b565b91506126ad826122b3565b91506126b8826122ff565b91508190509594505050505056fea264697066735822122045d222c974b825090eac7609b9532660d0fe2f8dcb1d4513392719c01e1cbe1764736f6c63430008130033",
  "devdoc": {
    "kind": "dev",
    "methods": {},
    "version": 1
  },
  "userdoc": {
    "kind": "user",
    "methods": {},
    "version": 1
  },
  "storageLayout": {
    "storage": [],
    "types": null
  }
}