{
  "address": "0xE2419bEDDe902C38ff2D9e9cAD6ca5D34B788840",
  "abi": [
    {
      "inputs": [
        {
          "internalType": "string",
          "name": "rgb",
          "type": "string"
        },
        {
          "internalType": "uint8[]",
          "name": "speeds",
          "type": "uint8[]"
        }
      ],
      "name": "load",
      "outputs": [
        {
          "internalType": "bytes",
          "name": "",
          "type": "bytes"
        }
      ],
      "stateMutability": "pure",
      "type": "function"
    }
  ],
  "transactionHash": "0x1bb1dfccc83638c3cfde5ac60c53a75bbec61c5ea7d5eb4f832802ab33e14804",
  "args": [],
  "numDeployments": 10,
  "solcInputHash": "974683319fd9893a8bb4251ec38564b2",
  "bytecode": "0x612910610053600b82828239805160001a607314610046577f4e487b7100000000000000000000000000000000000000000000000000000000600052600060045260246000fd5b30600052607381538281f3fe73000000000000000000000000000000000000000030146080604052600436106100355760003560e01c8063452955e41461003a575b600080fd5b610054600480360381019061004f9190610588565b61006a565b604051610061919061067f565b60405180910390f35b60608261009483600081518110610084576100836106a1565b5b602002602001015160ff1661010c565b6100bb846001815181106100ab576100aa6106a1565b5b602002602001015160ff1661010c565b6100e2856002815181106100d2576100d16106a1565b5b602002602001015160ff1661010c565b6040516020016100f59493929190612513565b604051602081830303815290604052905092915050565b60606000600161011b846101da565b01905060008167ffffffffffffffff81111561013a5761013961035c565b5b6040519080825280601f01601f19166020018201604052801561016c5781602001600182028036833780820191505090505b509050600082602001820190505b6001156101cf578080600190039150507f3031323334353637383961626364656600000000000000000000000000000000600a86061a8153600a85816101c3576101c26128ab565b5b0494506000850361017a575b819350505050919050565b600080600090507a184f03e93ff9f4daa797ed6e38ed64bf6a1f0100000000000000008310610238577a184f03e93ff9f4daa797ed6e38ed64bf6a1f010000000000000000838161022e5761022d6128ab565b5b0492506040810190505b6d04ee2d6d415b85acef81000000008310610275576d04ee2d6d415b85acef8100000000838161026b5761026a6128ab565b5b0492506020810190505b662386f26fc1000083106102a457662386f26fc10000838161029a576102996128ab565b5b0492506010810190505b6305f5e10083106102cd576305f5e10083816102c3576102c26128ab565b5b0492506008810190505b61271083106102f25761271083816102e8576102e76128ab565b5b0492506004810190505b60648310610315576064838161030b5761030a6128ab565b5b0492506002810190505b600a8310610324576001810190505b80915050919050565b6000604051905090565b600080fd5b600080fd5b600080fd5b600080fd5b6000601f19601f8301169050919050565b7f4e487b7100000000000000000000000000000000000000000000000000000000600052604160045260246000fd5b6103948261034b565b810181811067ffffffffffffffff821117156103b3576103b261035c565b5b80604052505050565b60006103c661032d565b90506103d2828261038b565b919050565b600067ffffffffffffffff8211156103f2576103f161035c565b5b6103fb8261034b565b9050602081019050919050565b82818337600083830152505050565b600061042a610425846103d7565b6103bc565b90508281526020810184848401111561044657610445610346565b5b610451848285610408565b509392505050565b600082601f83011261046e5761046d610341565b5b813561047e848260208601610417565b91505092915050565b600067ffffffffffffffff8211156104a2576104a161035c565b5b602082029050602081019050919050565b600080fd5b600060ff82169050919050565b6104ce816104b8565b81146104d957600080fd5b50565b6000813590506104eb816104c5565b92915050565b60006105046104ff84610487565b6103bc565b90508083825260208201905060208402830185811115610527576105266104b3565b5b835b81811015610550578061053c88826104dc565b845260208401935050602081019050610529565b5050509392505050565b600082601f83011261056f5761056e610341565b5b813561057f8482602086016104f1565b91505092915050565b6000806040838503121561059f5761059e610337565b5b600083013567ffffffffffffffff8111156105bd576105bc61033c565b5b6105c985828601610459565b925050602083013567ffffffffffffffff8111156105ea576105e961033c565b5b6105f68582860161055a565b9150509250929050565b600081519050919050565b600082825260208201905092915050565b60005b8381101561063a57808201518184015260208101905061061f565b60008484015250505050565b600061065182610600565b61065b818561060b565b935061066b81856020860161061c565b6106748161034b565b840191505092915050565b600060208201905081810360008301526106998184610646565b905092915050565b7f4e487b7100000000000000000000000000000000000000000000000000000000600052603260045260246000fd5b600081905092915050565b7f3c73766720786d6c6e733d27687474703a2f2f7777772e77332e6f72672f323060008201527f30302f737667273e000000000000000000000000000000000000000000000000602082015250565b60006107376028836106d0565b9150610742826106db565b602882019050919050565b7f3c646566733e0000000000000000000000000000000000000000000000000000600082015250565b60006107836006836106d0565b915061078e8261074d565b600682019050919050565b7f3c72616469616c4772616469656e742069643d27706c616e657447726164696560008201527f6e74272063783d27353025272063793d273530252720723d273530252720667860208201527f3d27353025272066793d27353025273e00000000000000000000000000000000604082015250565b600061081b6050836106d0565b915061082682610799565b605082019050919050565b7f3c73746f70206f66667365743d27302527207374796c653d2773746f702d636f60008201527f6c6f723a20726267280000000000000000000000000000000000000000000000602082015250565b600061088d6029836106d0565b915061089882610831565b602982019050919050565b600081519050919050565b60006108b9826108a3565b6108c381856106d0565b93506108d381856020860161061c565b80840191505092915050565b7f293b73746f702d6f7061636974793a3127202f3e000000000000000000000000600082015250565b60006109156014836106d0565b9150610920826108df565b601482019050919050565b7f3c73746f70206f66667365743d273130302527207374796c653d2773746f702d60008201527f636f6c6f723a233636363636363b73746f702d6f7061636974793a3127202f3e602082015250565b60006109876040836106d0565b91506109928261092b565b604082019050919050565b7f3c2f72616469616c4772616469656e743e000000000000000000000000000000600082015250565b60006109d36011836106d0565b91506109de8261099d565b601182019050919050565b7f3c72616469616c4772616469656e742069643d276d6f6f6e314772616469656e60008201527f74272063783d27353025272063793d273530252720723d27353025272066783d60208201527f27353025272066793d27353025273e0000000000000000000000000000000000604082015250565b6000610a6b604f836106d0565b9150610a76826109e9565b604f82019050919050565b7f3c73746f70206f66667365743d27302527207374796c653d2773746f702d636f60008201527f6c6f723a236666636330303b73746f702d6f7061636974793a3127202f3e0000602082015250565b6000610add603e836106d0565b9150610ae882610a81565b603e82019050919050565b7f3c73746f70206f66667365743d273130302527207374796c653d2773746f702d60008201527f636f6c6f723a236666393930303b73746f702d6f7061636974793a3127202f3e602082015250565b6000610b4f6040836106d0565b9150610b5a82610af3565b604082019050919050565b7f3c72616469616c4772616469656e742069643d276d6f6f6e324772616469656e60008201527f74272063783d27353025272063793d273530252720723d27353025272066783d60208201527f27353025272066793d27353025273e0000000000000000000000000000000000604082015250565b6000610be7604f836106d0565b9150610bf282610b65565b604f82019050919050565b7f3c73746f70206f66667365743d27302527207374796c653d2773746f702d636f60008201527f6c6f723a236666303066663b73746f702d6f7061636974793a3127202f3e0000602082015250565b6000610c59603e836106d0565b9150610c6482610bfd565b603e82019050919050565b7f3c73746f70206f66667365743d273130302527207374796c653d2773746f702d60008201527f636f6c6f723a233939303066663b73746f702d6f7061636974793a3127202f3e602082015250565b6000610ccb6040836106d0565b9150610cd682610c6f565b604082019050919050565b7f3c72616469616c4772616469656e742069643d276d6f6f6e334772616469656e60008201527f74272063783d27353025272063793d273530252720723d27353025272066783d60208201527f27353025272066793d27353025273e0000000000000000000000000000000000604082015250565b6000610d63604f836106d0565b9150610d6e82610ce1565b604f82019050919050565b7f3c73746f70206f66667365743d27302527207374796c653d2773746f702d636f60008201527f6c6f723a233030666630303b73746f702d6f7061636974793a3127202f3e0000602082015250565b6000610dd5603e836106d0565b9150610de082610d79565b603e82019050919050565b7f3c73746f70206f66667365743d273130302527207374796c653d2773746f702d60008201527f636f6c6f723a233030636330303b73746f702d6f7061636974793a3127202f3e602082015250565b6000610e476040836106d0565b9150610e5282610deb565b604082019050919050565b7f3c66696c7465722069643d27736861646f7746696c7465722720783d272d333060008201527f252720793d272d333025272077696474683d273136302527206865696768743d60208201527f2731363025273e00000000000000000000000000000000000000000000000000604082015250565b6000610edf6047836106d0565b9150610eea82610e5d565b604782019050919050565b7f3c666544726f70536861646f772064783d2730272064793d273027207374644460008201527f6576696174696f6e3d27342720666c6f6f642d636f6c6f723d2723303030303060208201527f302720666c6f6f642d6f7061636974793d27302e3527202f3e00000000000000604082015250565b6000610f776059836106d0565b9150610f8282610ef5565b605982019050919050565b7f3c2f66696c7465723e0000000000000000000000000000000000000000000000600082015250565b6000610fc36009836106d0565b9150610fce82610f8d565b600982019050919050565b7f3c66696c7465722069643d2763726174657246696c746572273e000000000000600082015250565b600061100f601a836106d0565b915061101a82610fd9565b601a82019050919050565b7f3c66654f66667365742064783d2731272064793d27312720696e3d27536f757260008201527f6365416c7068612720726573756c743d276f666673657427202f3e0000000000602082015250565b6000611081603b836106d0565b915061108c82611025565b603b82019050919050565b7f3c6665476175737369616e426c757220696e3d276f666673657427207374644460008201527f6576696174696f6e3d27312720726573756c743d27626c757227202f3e000000602082015250565b60006110f3603d836106d0565b91506110fe82611097565b603d82019050919050565b7f3c666553706563756c61724c69676874696e6720696e3d27626c75722720737560008201527f72666163655363616c653d2732272073706563756c6172436f6e7374616e743d60208201527f27302e3735272073706563756c61724578706f6e656e743d27323027206c696760408201527f6874696e672d636f6c6f723d27233939393939392720726573756c743d27737060608201527f6563756c6172273e000000000000000000000000000000000000000000000000608082015250565b60006111d76088836106d0565b91506111e282611109565b608882019050919050565b7f3c6665506f696e744c6967687420783d272d353030302720793d272d3130303060008201527f3027207a3d27323030303027202f3e0000000000000000000000000000000000602082015250565b6000611249602f836106d0565b9150611254826111ed565b602f82019050919050565b7f3c2f666553706563756c61724c69676874696e673e0000000000000000000000600082015250565b60006112956015836106d0565b91506112a08261125f565b601582019050919050565b7f3c6665436f6d706f7369746520696e3d2773706563756c61722720696e323d2760008201527f536f75726365416c70686127206f70657261746f723d27696e2720726573756c60208201527f743d27636f6d706f7369746527202f3e00000000000000000000000000000000604082015250565b600061132d6050836106d0565b9150611338826112ab565b605082019050919050565b7f3c6665436f6d706f7369746520696e3d27536f7572636547726170686963272060008201527f696e323d27636f6d706f7369746527206f70657261746f723d2761726974686d60208201527f6574696327206b313d273027206b323d273127206b333d273127206b343d273060408201527f2720726573756c743d276c69745061696e7427202f3e00000000000000000000606082015250565b60006113eb6076836106d0565b91506113f682611343565b607682019050919050565b7f3c2f646566733e00000000000000000000000000000000000000000000000000600082015250565b60006114376007836106d0565b915061144282611401565b600782019050919050565b7f3c726563742077696474683d273130302527206865696768743d27313030252760008201527f2066696c6c3d272330303030303027202f3e0000000000000000000000000000602082015250565b60006114a96032836106d0565b91506114b48261144d565b603282019050919050565b7f3c672066696c7465723d2775726c2823736861646f7746696c74657229273e00600082015250565b60006114f5601f836106d0565b9150611500826114bf565b601f82019050919050565b7f3c636972636c652063783d273330272063793d2732302720723d27302e35272060008201527f66696c6c3d272366666666666627202f3e000000000000000000000000000000602082015250565b60006115676031836106d0565b91506115728261150b565b603182019050919050565b7f3c636972636c652063783d27323330272063793d2735302720723d27302e382760008201527f2066696c6c3d272366663939303027202f3e0000000000000000000000000000602082015250565b60006115d96032836106d0565b91506115e48261157d565b603282019050919050565b7f3c636972636c652063783d27313230272063793d2738302720723d27312e322760008201527f2066696c6c3d272366666363303027202f3e0000000000000000000000000000602082015250565b600061164b6032836106d0565b9150611656826115ef565b603282019050919050565b7f3c636972636c652063783d27323030272063793d2735302720723d27302e372760008201527f2066696c6c3d272366666666666627202f3e0000000000000000000000000000602082015250565b60006116bd6032836106d0565b91506116c882611661565b603282019050919050565b7f3c636972636c652063783d27323330272063793d2737302720723d27312e302760008201527f2066696c6c3d272366663939303027202f3e0000000000000000000000000000602082015250565b600061172f6032836106d0565b915061173a826116d3565b603282019050919050565b7f3c636972636c652063783d27323530272063793d2732352720723d27302e392760008201527f2066696c6c3d272366666363303027202f3e0000000000000000000000000000602082015250565b60006117a16032836106d0565b91506117ac82611745565b603282019050919050565b7f3c636972636c652063783d273135272063793d273230302720723d27302e352760008201527f2066696c6c3d272366666666666627202f3e0000000000000000000000000000602082015250565b60006118136032836106d0565b915061181e826117b7565b603282019050919050565b7f3c636972636c652063783d273235272063793d273233302720723d27302e382760008201527f2066696c6c3d272366663939303027202f3e0000000000000000000000000000602082015250565b60006118856032836106d0565b915061189082611829565b603282019050919050565b7f3c636972636c652063783d273735272063793d273139302720723d27312e302760008201527f2066696c6c3d272366666363303027202f3e0000000000000000000000000000602082015250565b60006118f76032836106d0565b91506119028261189b565b603282019050919050565b7f3c636972636c652063783d27313235272063793d273233302720723d27302e3760008201527f272066696c6c3d272366666666666627202f3e00000000000000000000000000602082015250565b60006119696033836106d0565b91506119748261190d565b603382019050919050565b7f3c2f673e00000000000000000000000000000000000000000000000000000000600082015250565b60006119b56004836106d0565b91506119c08261197f565b600482019050919050565b7f3c636972636c652063783d27313530272063793d273135302720723d2731303060008201527f272066696c6c3d2775726c2823706c616e65744772616469656e74292720666960208201527f6c7465723d2775726c2823736861646f7746696c7465722927202f3e00000000604082015250565b6000611a4d605c836106d0565b9150611a58826119cb565b605c82019050919050565b7f3c67207472616e73666f726d3d27726f7461746528302031353020313530292760008201527f3e00000000000000000000000000000000000000000000000000000000000000602082015250565b6000611abf6021836106d0565b9150611aca82611a63565b602182019050919050565b7f3c636972636c652063783d27323630272063793d2737302720723d273130272060008201527f66696c6c3d2775726c28236d6f6f6e314772616469656e7429272066696c746560208201527f723d2775726c2823736861646f7746696c74657229273e000000000000000000604082015250565b6000611b576057836106d0565b9150611b6282611ad5565b605782019050919050565b7f3c616e696d6174655472616e73666f726d206174747269627574654e616d653d60008201527f277472616e73666f726d2720747970653d27726f74617465272066726f6d3d2760208201527f3020313530203135302720746f3d27333630203135302031353027206475723d60408201527f2700000000000000000000000000000000000000000000000000000000000000606082015250565b6000611c156061836106d0565b9150611c2082611b6d565b606182019050919050565b7f732720726570656174436f756e743d27696e646566696e69746527202f3e0000600082015250565b6000611c61601e836106d0565b9150611c6c82611c2b565b601e82019050919050565b7f3c616e696d6174654d6f74696f6e206475723d2738732720726570656174436f60008201527f756e743d27696e646566696e697465273e000000000000000000000000000000602082015250565b6000611cd36031836106d0565b9150611cde82611c77565b603182019050919050565b7f3c6d7061746820687265663d27236d6f6f6e506174683127202f3e0000000000600082015250565b6000611d1f601b836106d0565b9150611d2a82611ce9565b601b82019050919050565b7f3c2f616e696d6174654d6f74696f6e3e00000000000000000000000000000000600082015250565b6000611d6b6010836106d0565b9150611d7682611d35565b601082019050919050565b7f3c2f636972636c653e0000000000000000000000000000000000000000000000600082015250565b6000611db76009836106d0565b9150611dc282611d81565b600982019050919050565b7f3c636972636c652063783d27323730272063793d273232302720723d2731352760008201527f2066696c6c3d2775726c28236d6f6f6e324772616469656e7429272066696c7460208201527f65723d2775726c2823736861646f7746696c74657229273e0000000000000000604082015250565b6000611e4f6058836106d0565b9150611e5a82611dcd565b605882019050919050565b7f3c616e696d6174654d6f74696f6e206475723d2731327327207265706561744360008201527f6f756e743d27696e646566696e697465273e0000000000000000000000000000602082015250565b6000611ec16032836106d0565b9150611ecc82611e65565b603282019050919050565b7f3c6d7061746820687265663d27236d6f6f6e506174683227202f3e0000000000600082015250565b6000611f0d601b836106d0565b9150611f1882611ed7565b601b82019050919050565b7f3c636972636c652063783d27323335272063793d273231302720723d2731322760008201527f2066696c6c3d2775726c28236d6f6f6e334772616469656e7429272066696c7460208201527f65723d2775726c2823736861646f7746696c74657229273e0000000000000000604082015250565b6000611fa56058836106d0565b9150611fb082611f23565b605882019050919050565b7f3c616e696d6174654d6f74696f6e206475723d2731307327207265706561744360008201527f6f756e743d27696e646566696e697465273e0000000000000000000000000000602082015250565b60006120176032836106d0565b915061202282611fbb565b603282019050919050565b7f3c6d7061746820687265663d27236d6f6f6e506174683327202f3e0000000000600082015250565b6000612063601b836106d0565b915061206e8261202d565b601b82019050919050565b7f3c636972636c652069643d276d6f6f6e5061746831272063783d27313530272060008201527f63793d273135302720723d273930272066696c6c3d276e6f6e6527202f3e0000602082015250565b60006120d5603e836106d0565b91506120e082612079565b603e82019050919050565b7f3c636972636c652069643d276d6f6f6e5061746832272063783d27313530272060008201527f63793d273135302720723d27313130272066696c6c3d276e6f6e6527202f3e00602082015250565b6000612147603f836106d0565b9150612152826120eb565b603f82019050919050565b7f3c636972636c652069643d276d6f6f6e5061746833272063783d27313530272060008201527f63793d273135302720723d27313330272066696c6c3d276e6f6e6527202f3e00602082015250565b60006121b9603f836106d0565b91506121c48261215d565b603f82019050919050565b7f3c636972636c652063783d27313530272063793d273135302720723d2736302760008201527f2066696c6c3d277267626128302c20302c20302c20302e3229272066696c746560208201527f723d2775726c2823736861646f7746696c7465722927202f3e00000000000000604082015250565b60006122516059836106d0565b915061225c826121cf565b605982019050919050565b7f3c636972636c652063783d27313030272063793d273132302720723d2737272060008201527f66696c6c3d2723383838383538272066696c7465723d2775726c28236372617460208201527f657246696c7465722927202f3e00000000000000000000000000000000000000604082015250565b60006122e9604d836106d0565b91506122f482612267565b604d82019050919050565b7f3c636972636c652063783d27313730272063793d273138302720723d2731302760008201527f2066696c6c3d2723383738383838272066696c7465723d2775726c282363726160208201527f74657246696c7465722927202f3e000000000000000000000000000000000000604082015250565b6000612381604e836106d0565b915061238c826122ff565b604e82019050919050565b7f3c636972636c652063783d27313330272063793d273234302720723d2738272060008201527f66696c6c3d2723383838383538272066696c7465723d2775726c28236372617460208201527f657246696c7465722927202f3e00000000000000000000000000000000000000604082015250565b6000612419604d836106d0565b915061242482612397565b604d82019050919050565b7f3c636972636c652063783d273730272063793d273139302720723d273927206660008201527f696c6c3d2723383738383838272066696c7465723d2775726c2823637261746560208201527f7246696c7465722927202f3e0000000000000000000000000000000000000000604082015250565b60006124b1604c836106d0565b91506124bc8261242f565b604c82019050919050565b7f3c2f7376673e0000000000000000000000000000000000000000000000000000600082015250565b60006124fd6006836106d0565b9150612508826124c7565b600682019050919050565b600061251e8261072a565b915061252982610776565b91506125348261080e565b915061253f82610880565b915061254b82876108ae565b915061255682610908565b91506125618261097a565b915061256c826109c6565b915061257782610a5e565b915061258282610ad0565b915061258d82610b42565b9150612598826109c6565b91506125a382610bda565b91506125ae82610c4c565b91506125b982610cbe565b91506125c4826109c6565b91506125cf82610d56565b91506125da82610dc8565b91506125e582610e3a565b91506125f0826109c6565b91506125fb82610ed2565b915061260682610f6a565b915061261182610fb6565b915061261c82611002565b915061262782611074565b9150612632826110e6565b915061263d826111ca565b91506126488261123c565b915061265382611288565b915061265e82611320565b9150612669826113de565b915061267482610fb6565b915061267f8261142a565b915061268a8261149c565b9150612695826114e8565b91506126a08261155a565b91506126ab826115cc565b91506126b68261163e565b91506126c1826116b0565b91506126cc82611722565b91506126d782611794565b91506126e282611806565b91506126ed82611878565b91506126f8826118ea565b91506127038261195c565b915061270e826119a8565b915061271982611a40565b915061272482611ab2565b915061272f82611b4a565b915061273a82611c08565b915061274682866108ae565b915061275182611c54565b915061275c82611cc6565b915061276782611d12565b915061277282611d5e565b915061277d82611daa565b915061278882611e42565b915061279382611c08565b915061279f82856108ae565b91506127aa82611c54565b91506127b582611eb4565b91506127c082611f00565b91506127cb82611d5e565b91506127d682611daa565b91506127e182611f98565b91506127ec82611c08565b91506127f882846108ae565b915061280382611c54565b915061280e8261200a565b915061281982612056565b915061282482611d5e565b915061282f82611daa565b915061283a826119a8565b9150612845826120c8565b91506128508261213a565b915061285b826121ac565b915061286682612244565b9150612871826122dc565b915061287c82612374565b91506128878261240c565b9150612892826124a4565b915061289d826124f0565b915081905095945050505050565b7f4e487b7100000000000000000000000000000000000000000000000000000000600052601260045260246000fdfea26469706673582212202dd11c9a7392c728d167ca5b65fa87d27164655633868872839aa838c63efbb164736f6c63430008130033",
  "devdoc": {
    "kind": "dev",
    "methods": {},
    "version": 1
  },
  "userdoc": {
    "kind": "user",
    "methods": {},
    "version": 1
  },
  "storageLayout": {
    "storage": [],
    "types": null
  }
}